:020000040800F2
:10000000180400204901000875050008390400089B
:1000100071050008BD010008990A000800000000F1
:100020000000000000000000000000002908000897
:10003000C1010008000000003D0600081509000885
:100040006301000863010008630100086301000800
:100050006301000863010008C30100086301000890
:1000600063010008630100086301000863010008E0
:1000700063010008630100086301000863010008D0
:1000800063010008630100086301000863010008C0
:1000900063010008630100086301000863010008B0
:1000A00063010008630100086301000863010008A0
:1000B0006301000863010008630100086301000890
:1000C0006301000863010008630100086301000880
:1000D0006301000863010008630100086301000870
:1000E000D5010008630100086301000863010008EE
:1000F0006301000863010008630100086301000850
:10010000630100086301000863010008630100083F
:10011000630100086301000863010008630100082F
:10012000630100086301000863010008630100081F
:10013000DFF810D000F030F800480047E10C00086C
:10014000AFF30080180400200648804706480047A7
:10015000FEE7FEE7FEE7FEE7FEE7FEE7FEE7FEE777
:10016000FEE7FEE7190900083101000830B50B462B
:10017000014600202022012409E021FA02F59D42D7
:1001800005D303FA02F5491B04FA02F52844151EAB
:10019000A2F10102F1DC30BD064C074D06E0E0683B
:1001A00040F0010394E8070098471034AC42F6D3BE
:1001B000FFF7C2FFBC0E0008DC0E000800BFFEE720
:1001C000704710B5012000F017F810B1012000F0C1
:1001D0000DF810BD10B54FF4005000F00DF818B137
:1001E0004FF4005000F002F810BD00000149086013
:1001F000704700001404014001460020034A1268C1
:100200000A400AB1012000E00020704714040140B8
:10021000002123498279002A3AD00A4612680368ED
:100220009A430B461A600A1D126803689A430B1D15
:100230001A60027911440A6803681A430A60184A6E
:100240000832126803689A43154B08331A601A1D66
:10025000126803689A43124B0C331A604279102AD1
:100260000ED11A1F126803681A430D4B08331A6027
:100270001A1D126803681A43094B0C331A600DE00B
:100280000749427911440A6803681A430A6005E085
:10029000027911440A6803689A430A6070470000B3
:1002A0000004014030B500228B071C0F0F2303FA16
:1002B00004F20B4B8C1053F824309343084C8D10F0
:1002C00044F8253023468C1053F824308C07240F33
:1002D00000FA04F42343024C8D1044F8253030BD5D
:1002E000080001402DE9F0410246002500260020CB
:1002F00000230024002791F803C00CF00F0591F8AB
:1003000003C00CF0100CBCF1000F03D091F802C038
:100310004CEA050591F800C0BCF1000F31D014681B
:1003200000202BE04FF0010C0CFA00F3B1F800C0F4
:100330000CEA03069E4220D183004FF00F0C0CFA0A
:1003400003F7BC4305FA03FC4CEA040491F803C02C
:10035000BCF1280F06D14FF0010C0CFA00FCC2F8DA
:1003600014C00AE091F803C0BCF1480F05D14FF06A
:10037000010C0CFA00FCC2F810C0401C0828D1D3B4
:100380001460B1F800C0BCF1FF0F34DD54680020E8
:100390002EE000F1080C4FF0010808FA0CF3B1F858
:1003A00000C00CEA03069E4221D183004FF00F0CDF
:1003B0000CFA03F7BC4305FA03FC4CEA040491F879
:1003C00003C0BCF1280F05D100F1080C08FA0CF8A5
:1003D000C2F8148091F803C0BCF1480F07D100F1B6
:1003E000080C4FF0010808FA0CF8C2F81080401C05
:1003F0000828CED35460BDE8F081416170470161A7
:10040000704710B54FF4803000F0BAF900F0F0F901
:100410000446012C0FD100F0D9F900BF392000F0BB
:1004200089F90028FAD1022000F0D6F900BF00F0C7
:100430009FF90828FBD110BD00BFFEE71CB50121C4
:10044000084600F0FDF80120009000208DF804001F
:1004500008208DF8050001208DF8060000210846CF
:10046000FFF720FF6846FFF7D3FE4FF400500090DF
:1004700000208DF804000C208DF805000D210220CD
:10048000FFF710FF6846FFF7C3FE00F023F800F007
:1004900001F81CBD08B50121042000F0D1F80121AC
:1004A000102000F0CDF80120ADF8000004208DF8F8
:1004B000030069460548FFF715FF4FF40050ADF8FB
:1004C000000069460248FFF70DFF08BD0008014023
:1004D0000010014008B506208DF8000001208DF8BD
:1004E000030000208DF8010001208DF802004FF478
:1004F000E06000F079F8684600F03EF828208DF8BA
:10050000000000208DF8010002208DF802004FF459
:10051000E06000F069F8684600F02EF808BD0000C1
:1005200008B50121082000F08BF810208DF8030099
:1005300003208DF802000120ADF8000069460B4849
:10054000FFF7D0FE2020ADF8000069460748FFF70E
:10055000C9FE0220ADF8000069460448FFF7C2FE5C
:1005600023210248FFF74BFF08BD0000000C0140AB
:1005700000BFFEE77047000070B5002100230F2286
:10058000C47804B3154C246804F4E064C4F5E06452
:10059000210AC1F10403CA40447804FA03F18478C3
:1005A0001440214309010E4C0678A155047804F04B
:1005B0001F050124AC4005786D11AD0005F1E02563
:1005C000C5F8004109E0047804F01F050124AC409F
:1005D000044D0678761145F8264070BD0CED00E01C
:1005E00000E400E080E100E002490143024A1160BA
:1005F000704700000000FA050CED00E010B502465F
:1006000000200C4B186820F00300104318600A4BC0
:100610001B6843F00403084C2360012901D130BF5B
:1006200000E020BF044B1B6823F00403024C23604E
:1006300010BD00000070004010ED00E070470000A9
:1006400029B1064A92690243044B9A6104E0034AC5
:1006500092698243014B9A6170470000001002408A
:1006600030B500210022002400232D4D6D6805F0D7
:100670000C0121B1042905D0082923D105E0294D19
:10068000056022E0274D05601FE0254D6D6805F4EB
:100690007012234D6D6805F48034022505EB9242FB
:1006A0001CB9214D554305600BE01D4D6D6805F4E7
:1006B00000351DB11C4D5543056002E0194D5543F1
:1006C000056002E0174D056000BF00BF144D6D6866
:1006D00005F0F0010909154D6B5C0568DD404560CA
:1006E0000F4D6D6805F4E061090A104D6B5C4568BB
:1006F000DD4085600A4D6D6805F46051C90A0B4DF7
:100700006B5C4568DD40C560054D6D6805F4404192
:10071000890B074D6B5CC568B5FBF3F5056130BD12
:100720000010024000127A0000093D000000002085
:100730001000002010B501460022002300204A11BD
:10074000012A02D1094C236806E0022A02D1074C93
:10075000236A01E0054C636A01F01F020124944002
:100760001C400CB1012000E0002010BD0010024030
:100770000248406800F00C00704700000010024082
:100780001149096821F480310F4A11601146096846
:1007900021F480211160B0F5803F03D0B0F5802FA7
:1007A0000ED106E00849096841F48031064A11601B
:1007B00007E00549096841F4A021034A116000E0FF
:1007C00000BF00BF704700000010024001490866EA
:1007D000704700000000424201460020034A506872
:1007E00020F00300084350607047000000100240F2
:1007F00038B5002000900024002500BF3120FFF70D
:1008000099FF05460098401C00900098B0F5A06F35
:1008100001D0002DF2D03120FFF78CFF08B1012468
:1008200000E00024204638BD704710B500F002F803
:1008300010BD00000CB50020019000903348006806
:1008400040F480303149086000BF3048006800F44F
:10085000003000900198401C0190009818B9019850
:10086000B0F5A06FF1D12948006800F4003010B154
:100870000120009001E0002000900098012843D161
:100880002348006840F010002149086008460068CD
:1008900020F0030008600846006840F0020008608D
:1008A0001A48406819494860084640684860084648
:1008B000406840F4806048600846406820F47C103E
:1008C00048600846406840F4E81048600846006800
:1008D00040F08070086000BF0C48006800F00070B5
:1008E0000028F9D00948406820F003000749486013
:1008F0000846406840F00200486000BF0348406876
:1009000000F00C000828F9D10CBD000000100240D6
:10091000002002407047000010B51348006840F006
:1009200001001149086008464068104908400E4916
:100930004860084600680E4908400B4908600846B0
:10094000006820F4802008600846406820F4FE001B
:1009500048604FF41F008860FFF767FF4FF00060AA
:100960000449086010BD0000001002400000FFF8BC
:10097000FFFFF6FE08ED00E021B1828942F400524B
:10098000828104E082894DF6FF731A4082817047AC
:1009900010B500F0A3F800F081F810BD0246002069
:1009A000B1F5007F00D100BF13880B400BB10120CF
:1009B00000E00020704700002DE9F04786B00546B2
:1009C0000E460024A24600BFA1460027B08900B110
:1009D00000BF2F462C8A4CF6FF700440F088044379
:1009E0002C82AC894EF6F3100440B088318908435C
:1009F000718908430443AC81AC8A4FF6FF40044040
:100A0000B0890443AC8201A8FFF72AFE1F48874241
:100A100002D1DDF810A001E0DDF80CA0A88900F4F7
:100A2000004040B10AEBCA0000EB0A1031684900EF
:100A3000B0FBF1F807E00AEBCA0000EB0A103168DE
:100A40008900B0FBF1F86420B8FBF0F00401200944
:100A5000642101FB1089A88900F4004040B13220D4
:100A600000EBC900B0FBF1F000F00700044308E020
:100A7000322000EB09106421B0FBF1F000F00F0010
:100A800004432C8106B0BDE8F08700000038014027
:100A9000C1F308028280704700BFFEE71FB5012145
:100AA0008803FFF7CDFD4FF4E13000900020ADF852
:100AB0000C000C20ADF80A000020ADF80800ADF8DD
:100AC0000600ADF8040069460348FFF775FF0121F1
:100AD0000148FFF751FF1FBD0038014008B5012153
:100AE0000420FFF7ADFD4FF40070ADF800001820B2
:100AF0008DF8030003208DF8020069460648FFF7D1
:100B0000F1FB04208DF803000002ADF800006946F7
:100B10000148FFF7E7FB08BD000801400FB4054B93
:100B200010B503A9044A029800F018F810BC5DF84B
:100B300014FB0000BD0C00081400002002E008C8EF
:100B4000121F08C1002AFAD170477047002001E047
:100B500001C1121F002AFBD1704700002DE9FF4F91
:100B600089B09B460446002506E025280BD05A464E
:100B70000B999047641C6D1C20780028F5D10DB0AE
:100B80002846BDE8F08F0027B8460122474900E01B
:100B9000074314F8013F203B02FA03F00842F7D163
:100BA00020782E2819D114F8010F47F004072A28BD
:100BB0000ED06FF02F022078A0F1300109290CD857
:100BC00008EB880102EB410100EB0108641CF2E72D
:100BD0000A98641C50F8048B0A9020780028CED024
:100BE000642808D0692806D075281ED05A460B996B
:100BF00090476D1C58E00A994FF00A0901C90A9103
:100C0000002802DA40422D2102E0390504D52B21CB
:100C10008DF82010012103E0F90704D02021F7E727
:100C20008A4608AE0DE00021FAE70A994FF00A095A
:100C300001C90A91F7E74946FFF798FA303106F8FB
:100C4000011D0028F7D1ADEB060000F1200978075F
:100C500001D44FF00108C84502DDA8EB090000E00F
:100C600000208046002706E008A85A46C05D0B9980
:100C700090476D1C7F1C5745F6DB04E030205A4638
:100C80000B9990476D1CB8F10001A8F10108F5DC43
:100C900005E016F8010B5A460B9990476D1CB9F107
:100CA0000001A9F10109F4DC641C65E709280100D1
:100CB00000BF011EA0F10100FBD1704770B50446D2
:100CC0000D46E1B20548FFF7E3FE00BF802103486F
:100CD000FFF764FE0028F9D0204670BD00380140BF
:100CE00086B0FFF71DFCFFF753FEFFF7A7FB0221BD
:100CF0004548FFF782FB01214348FFF780FB202195
:100D00004148FFF77CFB41A0FFF708FF01A8FFF770
:100D1000A7FC43490298B0FBF1F4214641A0FFF73C
:100D2000FDFE3F490398B0FBF1F4214641A0FFF7D7
:100D3000F5FE3B490498B0FBF1F4214641A0FFF7D2
:100D4000EDFE37490198B0FBF1F4214641A0FFF7D1
:100D5000E5FE4448FFF7ACFF01210846FFF74EFCD3
:100D600001A8FFF77DFCFFF74CFB3FA0FFF7D6FE85
:100D70002B490298B0FBF1F421462AA0FFF7CEFEE2
:100D800027490398B0FBF1F421462AA0FFF7C6FEDD
:100D900023490498B0FBF1F421462AA0FFF7BEFED8
:100DA0001F490198B0FBF1F421462AA0FFF7B6FED7
:100DB00020211548FFF721FB02211348FFF71FFBF5
:100DC00001211148FFF71BFB2648FFF771FF1AE0CE
:100DD00001210D48FFF711FB20210B48FFF70FFB06
:100DE00002210948FFF70BFB24A0FFF797FE1D48DF
:100DF000FFF75EFF01210846FFF700FCFFF701FB4C
:100E000026A0FFF78BFEE3E7000C0140BDF8C8EB1E
:100E100073746F70206D6F6465D6AEC7B00D0A0035
:100E200040420F0048434C4B203D202564204D0D8F
:100E30000A00000050434C4B31203D202564204DDA
:100E40000D0A000050434C4B32203D202564204DBC
:100E50000D0A0000535953434C4B203D202564207C
:100E60004D0D0A00FFFF0F00BDF8C8EB73746F70E3
:100E7000206D6F6465D6AEBAF30D0A00D4DA7768D8
:100E8000696C65D6D0BDF8C8EB73746F70206D6F58
:100E90006465D6AEC7B00D0A00000000D4DA7768EA
:100EA000696C65D6D0BDF8C8EB73746F70206D6F38
:100EB0006465D6AEBAF30D0A00000000DC0E00082F
:100EC00000000020180000003C0B0008F40E000891
:100ED00018000020000400004C0B00080000000077
:100EE00001020304010203040607080902040608BC
:040EF00000000000FE
:0400000508000131BD
:00000001FF
