:020000040800F2
:100000001804002049010008B10300085703000844
:10001000AD0300089101000851080008000000002D
:1000200000000000000000000000000001060008C1
:100030009501000800000000E9040008ED06000832
:1000400063010008610400086301000863010008FF
:1000500063010008630100086301000863010008F0
:1000600063010008630100086301000863010008E0
:1000700063010008630100086301000863010008D0
:1000800063010008630100086301000863010008C0
:1000900063010008630100086301000863010008B0
:1000A00063010008630100086301000863010008A0
:1000B0006301000863010008630100086301000890
:1000C0006301000863010008630100086301000880
:1000D0006301000863010008630100086301000870
:1000E0006301000863010008630100086301000860
:1000F0006301000863010008630100086301000850
:10010000630100086301000863010008630100083F
:10011000630100086301000863010008630100082F
:10012000630100086301000863010008630100081F
:10013000DFF810D000F01AF800480047F508000872
:10014000AFF30080180400200648804706480047A7
:10015000FEE7FEE7FEE7FEE7FEE7FEE7FEE7FEE777
:10016000FEE7FEE7F106000831010008064C074DE6
:1001700006E0E06840F0010394E807009847103477
:10018000AC42F6D3FFF7D8FF7809000898090008B9
:1001900000BFFEE77047000001490860704700009B
:1001A00014040140002123498279002A3AD00A46EA
:1001B000126803689A430B461A600A1D12680368A6
:1001C0009A430B1D1A60027911440A6803681A43A6
:1001D0000A60184A0832126803689A43154B0833BC
:1001E0001A601A1D126803689A43124B0C331A6086
:1001F0004279102A0ED11A1F126803681A430D4B58
:1002000008331A601A1D126803681A43094B0C332D
:100210001A600DE00749427911440A6803681A43DD
:100220000A6005E0027911440A6803689A430A608B
:1002300070470000000401402DE9F041024600250E
:100240000026002000230024002791F803C00CF0B2
:100250000F0591F803C00CF0100CBCF1000F03D097
:1002600091F802C04CEA050591F800C0BCF1000FFE
:1002700031D0146800202BE04FF0010C0CFA00F391
:10028000B1F800C00CEA03069E4220D183004FF073
:100290000F0C0CFA03F7BC4305FA03FC4CEA040408
:1002A00091F803C0BCF1280F06D14FF0010C0CFAF5
:1002B00000FCC2F814C00AE091F803C0BCF1480F7A
:1002C00005D14FF0010C0CFA00FCC2F810C0401C24
:1002D0000828D1D31460B1F800C0BCF1FF0F34DDA1
:1002E000546800202EE000F1080C4FF0010808FAD5
:1002F0000CF3B1F800C00CEA03069E4221D1830042
:100300004FF00F0C0CFA03F7BC4305FA03FC4CEA60
:10031000040491F803C0BCF1280F05D100F1080CCA
:1003200008FA0CF8C2F8148091F803C0BCF1480F29
:1003300007D100F1080C4FF0010808FA0CF8C2F8D8
:100340001080401C0828CED35460BDE8F081416184
:1003500070470161704700BFFEE7000008B501214A
:10036000082000F0D3F810208DF8030003208DF84A
:1003700002000120ADF8000069460B48FFF75CFF62
:100380002020ADF8000069460748FFF755FF02201E
:10039000ADF8000069460448FFF74EFF23210248EC
:1003A000FFF7D7FF08BD0000000C014000BFFEE7CB
:1003B000704708B525208DF8000001208DF8030056
:1003C0008DF8010000208DF802004FF4C06000F0AD
:1003D0003DF8684600F002F808BD000070B5002145
:1003E00000230F22C47804B3154C246804F4E0649D
:1003F000C4F5E064210AC1F10403CA40447804FA58
:1004000003F184781440214309010E4C0678A1556C
:10041000047804F01F050124AC4005786D11AD008F
:1004200005F1E025C5F8004109E0047804F01F0556
:100430000124AC40044D0678761145F8264070BD85
:100440000CED00E000E400E080E100E0024901433F
:10045000024A1160704700000000FA050CED00E050
:1004600010B5042000F022F801280ED120210948FF
:10047000FFF76DFF02210748FFF76BFF01210548D9
:10048000FFF767FF042000F007F84FF48030FFF714
:1004900083FE10BD000C01400349096841EA800158
:1004A000014A1160704700000070004001460020C2
:1004B000034A52680A400AB1012000E00020704758
:1004C00000700040014908617047000000000E42C2
:1004D00001460020034A106820F0E0000843106045
:1004E00070470000007000407047000029B1064AC4
:1004F000D2690243044BDA6104E0034AD2698243C1
:10050000014BDA61704700000010024029B1064A31
:1005100092690243044B9A6104E0034A9269824360
:10052000014B9A61704700000010024030B5002175
:100530000022002400232D4D6D6805F00C0121B12F
:10054000042905D0082923D105E0294D056022E0C2
:10055000274D05601FE0254D6D6805F47012234D91
:100560006D6805F48034022505EB92421CB9214DDB
:10057000554305600BE01D4D6D6805F400351DB158
:100580001C4D5543056002E0194D5543056002E0DE
:10059000174D056000BF00BF144D6D6805F0F001F8
:1005A0000909154D6B5C0568DD4045600F4D6D68B0
:1005B00005F4E061090A104D6B5C4568DD4085601B
:1005C0000A4D6D6805F46051C90A0B4D6B5C4568B6
:1005D000DD40C560054D6D6805F44041890B074D50
:1005E0006B5CC568B5FBF3F5056130BD00100240DA
:1005F00000127A0000093D000000002010000020D9
:10060000704710B500F002F810BD00000CB50020D6
:10061000019000903348006840F480303149086010
:1006200000BF3048006800F4003000900198401C82
:100630000190009818B90198B0F5A06FF1D1294840
:10064000006800F4003010B10120009001E00020AB
:1006500000900098012843D12348006840F0100022
:10066000214908600846006820F003000860084639
:10067000006840F0020008601A4840681949486064
:100680000846406848600846406840F4806048601A
:100690000846406820F47C1048600846406840F4F2
:1006A000E81048600846006840F08070086000BFAD
:1006B0000C48006800F000700028F9D00948406834
:1006C00020F00300074948600846406840F00200F7
:1006D000486000BF0348406800F00C000828F9D1CA
:1006E0000CBD0000001002400020024070470000D6
:1006F00010B51348006840F0010011490860084631
:100700004068104908400E494860084600680E4994
:1007100008400B4908600846006820F48020086003
:100720000846406820F4FE0048604FF41F008860CF
:10073000FFF767FF4FF000600449086010BD00003C
:10074000001002400000FFF8FFFFF6FE08ED00E099
:1007500021B1828942F40052828104E082894DF6FF
:10076000FF731A408281704710B5FFF722FE00F038
:1007700091F800F06FF810BD2DE9F04786B00546FE
:100780000E460024A24600BFA1460027B08900B152
:1007900000BF2F462C8A4CF6FF700440F0880443BB
:1007A0002C82AC894EF6F3100440B088318908439E
:1007B000718908430443AC81AC8A4FF6FF40044082
:1007C000B0890443AC8201A8FFF7B0FE1F488742FE
:1007D00002D1DDF810A001E0DDF80CA0A88900F43A
:1007E000004040B10AEBCA0000EB0A103168490032
:1007F000B0FBF1F807E00AEBCA0000EB0A10316821
:100800008900B0FBF1F86420B8FBF0F00401200986
:10081000642101FB1089A88900F4004040B1322016
:1008200000EBC900B0FBF1F000F00700044308E062
:10083000322000EB09106421B0FBF1F000F00F0052
:1008400004432C8106B0BDE8F08700000038014069
:1008500000BFFEE71FB501218803FFF757FE4FF4E5
:10086000E13000900020ADF80C000C20ADF80A003B
:100870000020ADF80800ADF80600ADF804006946A8
:100880000348FFF779FF01210148FFF761FF1FBD12
:100890000038014008B501210420FFF737FE4FF46E
:1008A0000070ADF8000018208DF8030003208DF8CB
:1008B000020069460648FFF7BFFC04208DF80300DC
:1008C0000002ADF8000069460148FFF7B5FC08BD1D
:1008D0000008014002E008C8121F08C1002AFAD12E
:1008E00070477047002001E001C1121F002AFBD1B0
:1008F00070470000FFF732FDFFF736FF00F010F8F9
:1009000001210648FFF723FD20210448FFF721FDC0
:1009100002210248FFF71DFD00BFFEE7000C014069
:100920000EB501210807FFF7E1FD01208DF8000059
:100930008DF8030000208DF801008DF802004FF4BF
:10094000C060FFF783FD6846FFF748FD4FF4803035
:10095000019001208DF80A0000208DF80800102079
:100960008DF8090001A8FFF71DFC2020FFF7B0FD5E
:100970000120FFF7A7FD0EBD980900080000002028
:1009800014000000D4080008AC090008140000207E
:1009900004040000E4080008000000000102030451
:0C09A0000102030406070809020406080F
:0400000508000131BD
:00000001FF
