:020000040800F2
:1000000000040020490100082D040008D503000861
:1000100029040008910100083509000800000000CB
:100020000000000000000000000000007104000853
:1000300095010008000000002F0400085D0500087D
:100040006301000863010008630100086301000800
:1000500063010008630100086301000863010008F0
:1000600063010008630100086301000863010008E0
:1000700063010008630100086301000863010008D0
:1000800063010008630100086301000863010008C0
:1000900063010008630100086301000863010008B0
:1000A00063010008630100086301000863010008A0
:1000B0006301000863010008630100086301000890
:1000C0006301000863010008630100086301000880
:1000D0006301000863010008630100086301000870
:1000E0006301000863010008630100086301000860
:1000F0006301000863010008630100086301000850
:10010000630100086301000863010008630100083F
:10011000630100086301000863010008630100082F
:10012000630100086301000863010008630100081F
:10013000DFF810D000F01AF800480047590900080D
:10014000AFF30080000400200648804706480047BF
:10015000FEE7FEE7FEE7FEE7FEE7FEE7FEE7FEE777
:10016000FEE7FEE76105000831010008064C074D77
:1001700006E0E06840F0010394E807009847103477
:10018000AC42F6D3FFF7D8FF7409000884090008D1
:1001900000BFFEE77047000008B501213C2000F0D9
:1001A00057F918208DF8030003208DF80200012074
:1001B000ADF8000069460C4800F018F80220ADF8D0
:1001C00000006946084800F011F80420ADF800006E
:1001D0006946054800F00AF80820ADF800006946B5
:1001E000014800F003F808BD000801402DE9F04186
:1001F000024600250026002000230024002791F855
:1002000003C00CF00F0591F803C00CF0100CBCF10A
:10021000000F03D091F802C04CEA050591F800C028
:10022000BCF1000F31D0146800202BE04FF0010C1E
:100230000CFA00F3B1F800C00CEA03069E4220D18C
:1002400083004FF00F0C0CFA03F7BC4305FA03FCD4
:100250004CEA040491F803C0BCF1280F06D14FF01A
:10026000010C0CFA00FCC2F814C00AE091F803C0BB
:10027000BCF1480F05D14FF0010C0CFA00FCC2F89C
:1002800010C0401C0828D1D31460B1F800C0BCF1E4
:10029000FF0F34DD546800202EE000F1080C4FF011
:1002A000010808FA0CF3B1F800C00CEA03069E42FC
:1002B00021D183004FF00F0C0CFA03F7BC4305FA71
:1002C00003FC4CEA040491F803C0BCF1280F05D1EB
:1002D00000F1080C08FA0CF8C2F8148091F803C079
:1002E000BCF1480F07D100F1080C4FF0010808FAE3
:1002F0000CF8C2F81080401C0828CED35460BDE82A
:10030000F08101617047000000B587B0012108202D
:1003100000F08EF80020ADF81600ADF812000920AC
:10032000ADF814004720ADF8100000208DF818003B
:1003300004A9244800F0ACFA0020ADF80C006020BD
:10034000ADF800000020ADF80E000820ADF80A005E
:100350000020ADF80800ADF804000120ADF802005F
:100360000520ADF806006946164800F035F9082169
:10037000144800F07DF90420ADF8060069461148E4
:1003800000F080F908210F4800F0CEF90320ADF805
:10039000060069460B4800F0D5F90821094800F02D
:1003A00021FA0220ADF806006946064800F024FA5A
:1003B0000821044800F05EFA0121024800F000F92B
:1003C00007B000BD000C004010B5FFF7E5FEFFF7D9
:1003D0009BFF10BD00BFFEE708B50121082000F01B
:1003E00037F810208DF8030003208DF8020001205B
:1003F000ADF8000069460B48FFF7F8FE2020ADF885
:10040000000069460748FFF7F1FE0220ADF8000042
:1004100069460448FFF7EAFE23210248FFF771FF0F
:1004200008BD0000000C014000BFFEE770477047A8
:1004300029B1064AD2690243044BDA6104E0034A57
:10044000D2698243014BDA6170470000001002401C
:1004500029B1064A92690243044B9A6104E0034AB7
:1004600092698243014B9A6170470000001002407C
:10047000704710B500F002F810BD00000CB5002068
:10048000019000903348006840F4803031490860A2
:1004900000BF3048006800F4003000900198401C14
:1004A0000190009818B90198B0F5A06FF1D12948D2
:1004B000006800F4003010B10120009001E000203D
:1004C00000900098012843D12348006840F01000B4
:1004D000214908600846006820F0030008600846CB
:1004E000006840F0020008601A48406819494860F6
:1004F0000846406848600846406840F480604860AC
:100500000846406820F47C1048600846406840F483
:10051000E81048600846006840F08070086000BF3E
:100520000C48006800F000700028F9D009484068C5
:1005300020F00300074948600846406840F0020088
:10054000486000BF0348406800F00C000828F9D15B
:100550000CBD000000100240002002407047000067
:1005600010B51348006840F00100114908600846C2
:100570004068104908400E494860084600680E4926
:1005800008400B4908600846006820F48020086095
:100590000846406820F4FE0048604FF41F00886061
:1005A000FFF767FF4FF000600449086010BD0000CE
:1005B000001002400000FFF8FFFFF6FE08ED00E02B
:1005C00021B1028842F00102028004E002884FF665
:1005D000FE731A400280704770B500240022002389
:1005E000058C4FF6FE7635400584028C8388048B9B
:1005F0004FF68F752C40B51E2C400D882C43751E70
:100600002A400D892A434D882A43144DA8420BD015
:10061000134DA84208D0134DA84205D0124DA84250
:1006200002D0124DA84213D14FF6F7752A404D89DA
:100630002A434FF6FB752A408D882A434FF6FF6503
:100640002B404FF6FF552B408D892B43CD892B43F3
:1006500083800483CD888586028470BD002C014090
:100660000034014000400140004401400048014086
:100670000A460021018B4FF6F7731940114301839D
:100680007047000070B5002400220023058C4FF64F
:10069000EF7635400584028C8388048B48F6FF751D
:1006A0002C404FF6FF452C400D884FF6FF7606EAAA
:1006B00005252C434FF6DF752A400D8906EA0515FE
:1006C0002A434D8806EA05152A43154DA84202D053
:1006D000144DA8421DD14FF67F752A404D894FF623
:1006E000FF7606EA05152A434FF6BF752A408D8826
:1006F00006EA05152A434FF6FF352B404FF2FF75EA
:100700002B408D8906EA85052B43CD8906EA8505B0
:100710002B4383800483CD880587028470BD00004D
:10072000002C0140003401400A460021018B4FF2A9
:10073000FF7319404FF6FF7303EA02231943018345
:100740007047000070B5002400220023058C4FF68E
:10075000FF6635400584028C8388848B4FF68F7545
:100760002C404FF6FC752C400D882C434FF6FF555E
:100770002A400D894FF6FF7606EA05252A434D8863
:1007800006EA05252A43154DA84202D0144DA84279
:100790001DD14FF2FF752A404D894FF6FF7606EACC
:1007A00005252A434FF6FF352A408D8806EA0525A0
:1007B0002A434EF6FF752B404DF6FF752B408D8971
:1007C00006EA05152B43CD8906EA05152B438380E0
:1007D0008483CD888587028470BD0000002C014091
:1007E000003401400A460021818B4FF6F77319400F
:1007F000114381837047000070B50022002300245C
:10080000058C4EF6FF7635400584038C8488828BF8
:1008100048F6FF752A404FF6FF452A400D884FF6EF
:10082000FF7606EA05252A434DF6FF752B400D8914
:1008300006EA05352B434D8806EA05352B430B4D5B
:10084000A84202D00A4DA84208D14BF6FF752C40B1
:100850008D894FF6FF7606EA85152C4384808283C6
:10086000CD88A0F84050038470BD0000002C0140EA
:10087000003401400A460021818B4FF2FF7319407A
:100880004FF6FF7303EA0223194381837047000088
:10089000002202881D4B98420ED01D4B98420BD06F
:1008A000B0F1804F08D01B4B984205D01A4B9842AC
:1008B00002D01A4B984204D14FF68F731A404B88DE
:1008C0001A43174B984207D0164B984204D04FF664
:1008D000FF431A40CB881A4302808B8883850B889C
:1008E00003850A4B98420BD0094B984208D00E4B17
:1008F000984205D00D4B984202D00D4B984201D141
:100900000B7A03860123838270470000002C01408C
:10091000003401400004004000080040000C00408A
:10092000001000400014004000400140004401401D
:100930000048014000BFFEE702E008C8121F08C1DE
:10094000002AFAD170477047002001E001C1121F50
:10095000002AFBD170470000FFF73EFDFFF734FD92
:1009600005E00348006880F0200001490860F8E7CE
:100970000C0C014084090008000000200004000065
:04098000480900081A
:0400000508000131BD
:00000001FF
