:020000040800F2
:10000000600F002049010008210B0008C70A000802
:100010001D0B000841020008E11C00080000000060
:10002000000000000000000000000000711A00083D
:10003000A104000800000000D10B00085D1B0008AF
:100040006301000863010008630100086301000800
:1000500063010008630100086301000863010008F0
:1000600063010008630100086301000863010008E0
:1000700063010008630100086301000863010008D0
:1000800063010008630100086301000863010008C0
:1000900063010008630100086301000863010008B0
:1000A00063010008630100086301000863010008A0
:1000B0006301000863010008630100086301000890
:1000C0006301000863010008630100086301000880
:1000D0006301000863010008630100086301000870
:1000E0006301000863010008630100086301000860
:1000F0006301000863010008630100086301000850
:1001000063010008D50E00086301000863010008C0
:10011000630100086301000863010008630100082F
:10012000630100086301000863010008630100081F
:10013000DFF810D000F072F8004800472D3F0008AB
:10014000AFF30080600F0020064880470648004754
:10015000FEE7FEE7FEE7FEE7FEE7FEE7FEE7FEE777
:10016000FEE7FEE7611B00083101000840EA0103D9
:100170009B0703D009E008C9121F08C0042AFAD25D
:1001800003E011F8013B00F8013B521EF9D2704721
:10019000D2B201E000F8012B491EFBD270470022C9
:1001A000F6E710B513460A4604461946FFF7F0FF76
:1001B000204610BDCAB2401E10F8011F8A4202D06C
:1001C0000029F9D100207047421C10F8011B0029BA
:1001D000FBD1801A704730B504460020034600E08A
:1001E0005B1C934203D2E05CCD5C401BF8D030BD79
:1001F00030B50B46014600202022012409E021FAF7
:1002000002F59D4205D303FA02F5491B04FA02F5F3
:100210002844151EA2F10102F1DC30BD064C074D49
:1002200006E0E06840F0010394E8070098471034C6
:10023000AC42F6D3FFF780FF54F4020874F40208CE
:1002400000BFFEE770B500254FF4803400E0641E67
:1002500024B1802000F01EFE0028F8D014B9032538
:10026000284670BD40F2FF5000F0CCFD2846F8E76C
:10027000014600BF0748406B00F045000028F9D058
:1002800040F2FF50034A9063104640690822104034
:10029000C0B270470080014070B500251048446B23
:1002A00001E00F48446B04F045000028F9D004F049
:1002B000040028B10325042000F0A4FD284670BDE9
:1002C00004F0010028B10125012000F09BFD284623
:1002D000F5E740F2FF5000F095FD2846EFE70000FB
:1002E0000080014070B500250B48446B01E00A48CE
:1002F000446B04F045000028F9D004F0040028B154
:100300000325042000F07EFD284670BD40F2FF501A
:1003100000F078FD2846F8E7008001402DE9F04123
:1003200006460F464FF000082248456B01E0214881
:10033000456B05F045000028F9D005F0040038B100
:100340004FF00308042000F05DFD4046BDE8F08159
:1003500005F0010030B14FF00108012000F052FD1E
:100360004046F3E700F090FDB04203D04FF0100894
:100370004046EBE740F2FF5000F044FD002000F063
:100380009DFD044604F4604018B9200C38804046B6
:10039000DCE704F4005008B11320D7E704F48040F0
:1003A00008B11020D2E704F4004008B10F20CDE7D7
:1003B0004046CBE70080014070B500264FF4803501
:1003C0000F48446B02E06D1E0D48446B04F045007D
:1003D00008B9002DF7D115B104F0040028B10326A7
:1003E000042000F00FFD304670BD04F0400028B13D
:1003F0000026402000F006FD3046F5E73046F3E7E2
:100400000080014000F0805111B10349086001E013
:1004100002494860704700000404024000000240A6
:1004200021B1026842F00102026004E002684FF666
:10043000FE731A400260704701460020002201F05E
:10044000805313B1054B1A6801E0054B1A6802EAA4
:1004500001030BB1012000E00020704700040240BE
:100460000000024010B50022026847F6F0739A437C
:100470000C6A8B6823430C6923434C6923438C69C2
:100480002343CC6923434C6A23438C6A23431A4396
:100490000260CB6843600B6883604B68C36010BD2B
:1004A000704700002DE9F84F06468946002000906D
:1004B0008046C246504603F01BFE054622A001F0CE
:1004C00051FC01224946304602F078FF044654B1FF
:1004D000214628A001F046FCA346284603F0D6FB9F
:1004E0005846BDE8F88FD6F80C806B464246294640
:1004F000304603F05AF804464CB1214625A001F0DD
:1005000031FCA346284603F0C1FB5846E9E728A082
:10051000009901F027FC29462EA001F023FC30466B
:1005200002F0B7FB04464CB1214631A001F01AFCA1
:10053000A346284603F0AAFB5846D2E72846009F68
:1005400003F0A4FB3846CCE70D0A2A2A2A2A2A2AD5
:1005500020BCB4BDABBDF8D0D0CEC4BCFEB6C1C8C3
:10056000A1B2E2CAD42E2E2E202A2A2A2A2A2A0D05
:100570000A000000665F6F70656E2072656164201E
:100580006661696C2C20726573756C743A25640D14
:100590000A000000665F72656164206661696C2C08
:1005A00020726573756C743A25640D0A00000000B2
:1005B000A1B7CEC4BCFEB6C1C8A1B3C9B9A62CB6FA
:1005C000C1B5BDD7D6BDDACAFDBEDDA3BA25640D5F
:1005D0000A000000A1B7B6C1C8A1B5C3B5C4CEC456
:1005E000BCFECAFDBEDDCEAAA3BA2573200D0A004B
:1005F000665F636C6F736520726561642066616914
:100600006C2C20726573756C743A25640D0A0000B9
:10061000F0B58BB005460E4600200A9024221EA19C
:1006200001A8FFF7A3FD25A001F09CFB0A2231469B
:10063000284602F0C3FE044634B121462AA001F048
:1006400091FB20460BB0F0BD01A8FFF7BDFD0746AA
:100650000AAB3A4601A9284603F0C5F804462CB176
:10066000214629A001F07EFB2046EBE72DA00A9948
:1006700001F078FB01A934A001F074FB284602F0D8
:1006800008FB04462CB1214636A001F06BFB204646
:10069000D8E70A98D6E7000073746D3332463130DC
:1006A0003320534443617264204641544653CEC4C0
:1006B000BCFECFB5CDB3B2E2CAD421000D0A2A2ABE
:1006C0002A2A2A2A20BCB4BDABBDF8D0D0CEC4BCE7
:1006D000FED0B4C8EBB2E2CAD42E2E2E202A2A2A8B
:1006E0002A2A2A0D0A000000665F6F70656E207767
:1006F00072697465206661696C2C20726573756C13
:10070000743A25640D0A0000665F7772697465208B
:100710006661696C2C20726573756C743A25640D82
:100720000A000000A1B7CEC4BCFED0B4C8EBB3C968
:10073000B9A6A3ACD0B4C8EBD7D6BDDACAFDBEDD2E
:10074000A3BA25640A000000A1B7CFF2CEC4BCFE54
:10075000D0B4C8EBB5C4CAFDBEDDCEAAA3BA25731A
:100760000D0A0000665F636C6F73652077726974B1
:1007700065206661696C2C20726573756C743A250E
:10078000640D0A002DE9FC4107460D4600260024B1
:1007900000200090019008205B490860102048600C
:1007A000402088600020C8604FF4806008610846DF
:1007B00000F0C2FB1020FFF75BFD044614B1204699
:1007C000BDE8FC815148008800044F49086037208B
:1007D0004860402088600020C8604FF48060086155
:1007E000084600F0A9FB3720FFF742FD04460CB194
:1007F0002046E5E74FF0FF30454908600820486093
:10080000302088600220C860002008610120486113
:10081000084600F00FFB00203B4908603320486089
:10082000402088600020C8604FF48060086108465E
:1008300000F082FB3320FFF71BFD04460CB120467D
:10084000BEE709E04FF4001000F024FB20B100F0F7
:100850006DFB4DF82600761C2E48406B40F22A6155
:1008600008400028EED0082000F014FB28B1082032
:1008700000F0C8FA04242046A2E7022000F00AFB98
:1008800028B1022000F0BEFA0224204698E720207A
:1008900000F000FB28B1202000F0B4FA0624204626
:1008A0008EE74FF4007000F0F5FA30B14FF40070AD
:1008B00000F0A8FA0724204682E740F2FF5000F03B
:1008C000A1FA00980006009901F47F4140EA012056
:1008D000009901F47F0140EA1120009940EA11607B
:1008E000686001980006019901F47F4140EA012007
:1008F000019901F47F0140EA1120019940EA116059
:10090000286020465CE70000340900202400002015
:10091000480900200080014008B50121302000F086
:1009200069F918208DF8030003208DF802004FF4B8
:100930008070ADF800006946194800F035F84FF4B2
:100940000070ADF800006946154800F02DF84FF42E
:100950008060ADF800006946114800F025F84FF4BA
:100960000060ADF8000069460D4800F01DF84FF436
:100970008050ADF800006946094800F015F80420E1
:10098000ADF800006946074800F00EF80121880222
:1009900000F020F90121022000F01CF908BD000040
:1009A00000100140001401402DE9F04102460025ED
:1009B0000026002000230024002791F803C00CF03B
:1009C0000F0591F803C00CF0100CBCF1000F03D020
:1009D00091F802C04CEA050591F800C0BCF1000F87
:1009E00031D0146800202BE04FF0010C0CFA00F31A
:1009F000B1F800C00CEA03069E4220D183004FF0FC
:100A00000F0C0CFA03F7BC4305FA03FC4CEA040490
:100A100091F803C0BCF1280F06D14FF0010C0CFA7D
:100A200000FCC2F814C00AE091F803C0BCF1480F02
:100A300005D14FF0010C0CFA00FCC2F810C0401CAC
:100A40000828D1D31460B1F800C0BCF1FF0F34DD29
:100A5000546800202EE000F1080C4FF0010808FA5D
:100A60000CF3B1F800C00CEA03069E4221D18300CA
:100A70004FF00F0C0CFA03F7BC4305FA03FC4CEAE9
:100A8000040491F803C0BCF1280F05D100F1080C53
:100A900008FA0CF8C2F8148091F803C0BCF1480FB2
:100AA00007D100F1080C4FF0010808FA0CF8C2F861
:100AB0001080401C0828CED35460BDE8F08141610D
:100AC00070470161704700BFFEE7000008B50121D3
:100AD000082000F08FF810208DF8030003208DF817
:100AE00002000120ADF8000069460B48FFF75CFFEB
:100AF0002020ADF8000069460748FFF755FF0220A7
:100B0000ADF8000069460448FFF74EFF2321024874
:100B1000FFF7D7FF08BD0000000C014000BFFEE753
:100B2000704708B54FF4C06000F048F831208DF8E8
:100B3000000000208DF801008DF8020001208DF8E2
:100B40000300684600F002F808BD000070B50021FF
:100B500000230F22C47804B3154C246804F4E06425
:100B6000C4F5E064210AC1F10403CA40447804FAE0
:100B700003F184781440214309010E4C0678A155F5
:100B8000047804F01F050124AC4005786D11AD0018
:100B900005F1E025C5F8004109E0047804F01F05DF
:100BA0000124AC40044D0678761145F8264070BD0E
:100BB0000CED00E000E400E080E100E002490143C8
:100BC000024A1160704700000000FA050CED00E0D9
:100BD0007047000029B1064A52690243044B5A612A
:100BE00004E0034A52698243014B5A617047000096
:100BF0000010024029B1064A92690243044B9A61EF
:100C000004E0034A92698243014B9A6170470000F5
:100C10000010024030B500210022002400232D4D99
:100C20006D6805F00C0121B1042905D0082923D1F4
:100C300005E0294D056022E0274D05601FE0254DA8
:100C40006D6805F47012234D6D6805F4803402253B
:100C500005EB92421CB9214D554305600BE01D4D3B
:100C60006D6805F400351DB11C4D5543056002E06B
:100C7000194D5543056002E0174D056000BF00BFE8
:100C8000144D6D6805F0F0010909154D6B5C0568A0
:100C9000DD4045600F4D6D6805F4E061090A104DB7
:100CA0006B5C4568DD4085600A4D6D6805F46051F8
:100CB000C90A0B4D6B5C4568DD40C560054D6D682C
:100CC00005F44041890B074D6B5CC568B5FBF3F536
:100CD000056130BD0010024000127A0000093D009D
:100CE00000000020100000207CB5054600240020F4
:100CF0000090019000F0E2F800F0007010B10E24B6
:100D000020467CBD3D49098888B26946FFF73AFD17
:100D100004460CB12046F4E7012D36D1019800F4C9
:100D2000802000282ED0354800880004344908600F
:100D300037204860402088600020C860A802086111
:100D4000084600F0F9F83720FFF792FA04460CB194
:100D50002046D6E702202A49086006204860402045
:100D600088600020C8604FF480600861084600F089
:100D7000E3F80620FFF77CFA04460CB12046C0E7F2
:100D80002046BEE725242046BBE7019800F48030CA
:100D900078B31A4800880004194908603720486071
:100DA000402088600020C8604FF4806008610846D9
:100DB00000F0C2F83720FFF75BFA04460CB120467A
:100DC0009FE700200E4908600620486040208860A8
:100DD0000020C8604FF480600861084600F0ACF85D
:100DE0000620FFF745FA04460CB1204689E7204665
:100DF00087E7FFE72524204683E700002400002042
:100E000034090020014988637047000000800140D8
:100E10000149886370470000008001400149086073
:100E200070470000A0003042014908607047000090
:100E30008C05304200210A4B02685A6242689A626D
:100E40001A46D16A21F0F701D0E902231A43036957
:100E50001A4343691A431143014AD16270470000A3
:100E60000080014000200649086048608860C86032
:100E700048628862C862034888630020C86370477C
:100E800000800140FF07C00001480069C0B2704700
:100E90000080014001460020034A526B0A400AB11B
:100EA000012000E0002070470080014002480068F7
:100EB00000F00300704700000080014008B50146C3
:100EC000002000900248084400900098006808BD87
:100ED0001480014010B500F02FFC10BD29B1064A66
:100EE000D26B0243044BDA6304E0034AD26B8243C1
:100EF000014BDA63704700000080014000210A4A7C
:100F0000516847F6FF629143027D83681A43436844
:100F10001A43C3681A4303681A4303691A43114307
:100F2000014A51607047000000800140014800689C
:100F300070470000808001400021094B02689A60E0
:100F40001A46D1686FF30A01D0E901231A43C36836
:100F50001A4303691A431143014AD16070470000E4
:100F6000008001400549096821F00301034A11602E
:100F7000114609680143116070470000008001407C
:100F800010B50248FFF758FA10BD0000002000100D
:100F900070B50446002520480068032802D12725A3
:100FA000284670BD1C48006838B11B4800680128FD
:100FB00003D01948006802282CD1B4F5805F02D113
:100FC00027252846EDE7B4F5006F13D10120FFF780
:100FD0008BFE0546F5B90020104908750860486089
:100FE00088604FF40060C860002008610846FFF781
:100FF00085FF0FE00020FFF777FE054655B900207A
:1010000006490875086048608860C860086108463D
:10101000FFF774FF2846C4E7200000201C090020C9
:1010200010B5002400F0C4FA04460CB1204610BDEF
:1010300000F0B4F904460CB12046F8E700200F494F
:101040000875086048608860C86008610846FFF756
:1010500055FF1CB90A4800F015F8044634B9084990
:10106000B1F84C10080400F007FC044624B94FF412
:101070000060FFF78DFF04462046D8E71C090020DA
:10108000CC08002030B5014600200022AC4B1B7874
:1010900081F84E30AB4B1B88A1F84C30AA4B1B6833
:1010A0001A0E93090B70C2F383034B7002F0030313
:1010B0008B70A54B1B68C3F30742CA70A24B1B88F9
:1010C000C3F307220A71A04B1A784A715B681A0EA3
:1010D0001301CB809C4B5B68C3F30742CB8843EA88
:1010E0001213CB8002F00F030B72974B9B88C3F354
:1010F0000722D3094B72C2F380138B72C2F34013E1
:10110000CB72C2F300130B7300234B738C4B1B6821
:101110001BB18B4B1B68012B3CD193071B0D0B6143
:10112000894B1A790B6943EA82030B61864B9B68F2
:101130001A0E0B6943EA92130B61C2F3C2030B75DB
:1011400002F007034B75804B9B68C3F307425309BA
:101150008B75C2F38203CB7593075B0F0B767A4BCB
:101160001B89C3F307220B7E43EAD2130B760B696C
:101170005B1C4B640C7E4B6CA41C0125A5406B438F
:101180004B640C7A0123A3408B64D1E9113463438F
:101190004B6421E06A4B1B68022B1DD16A4B1A7904
:1011A00093069B0A0B61684B9B681A0E0B6943EA16
:1011B00002230B61644B9B68C3F307420B69134323
:1011C0000B61614B1B89C3F307220B695B1CDB04BA
:1011D0004B644FF400738B64C2F3801301F8193F22
:1011E00093065B0E4B70584B1A7A4B7843EAD21336
:1011F0004B7002F07F038B70534BDB681A0ED309E0
:10120000CB70C2F341130B71C2F382034B7193078E
:101210001B0F8B714C4BDB68C3F307428B7943EA9E
:1012200092138B71C2F34013CB7100230B7202F047
:1012300001034B72444B9B89C3F30722D3098B7282
:10124000C2F38013CB72C2F340130B73C2F30013CB
:101250004B73C2F381038B7302F00303CB733A4BDE
:101260001A7B53080B7401234B74384B1B681A0EFE
:10127000CA741939354B1B68C3F307421402CC8575
:10128000324B1B88C3F30722CB8D1343CB852F4BE7
:101290001A7814060C635B681A0E0B6B43EA02445F
:1012A0000C632A4B5B68C3F307420B6B43EA0224CF
:1012B0000C63264B9B88C3F307220B6B13430B6312
:1012C000224B1A7934235A54204B9B681A0E35232B
:1012D0005A541E4B9B68C3F3074214068C631B4B86
:1012E0001B89C3F307228B6B43EA02448C63174BC1
:1012F0001A7A8B6B43EA02248C63144BDB681A0E58
:101300008B6B13438B63114BDB68C3F307423C23A6
:101310005B5C43EA12143C235C5413071C0DCC871E
:101320000A4B9B89C3F30722CB8F1343CB87074B11
:101330001A7B540840235C54012441235C5430BD83
:1013400020000020240000209C080020AC08002081
:1013500008B500200090684600F0A8FA08B1FF2008
:1013600008BD0098C0F34320FAE710B50424FFF746
:10137000EFFF0446042C01D1002010BDFF2C01D149
:101380000220FAE70120F8E710B5FFF7C5FAFFF7EA
:10139000C8FBFFF767FD00F003F910BD38B5002466
:1013A00001200090FFF782FD10B92524204638BDAA
:1013B00044480068042828D00020434908600220DF
:1013C0004860C02088600020C8604FF480600861D9
:1013D0000846FFF7B1FDFEF75FFF04460CB120465B
:1013E000E5E70020FFF76AFD384908600420FFF7B1
:1013F00065FD364948600820FFF760FD3349886085
:101400000C20FFF75BFD3149C8602E48006858B1D9
:101410002C480068012807D02A480068062803D015
:1014200028480068022816D10020274908600320B8
:101430004860402088600020C8604FF480600861E8
:101440000846FFF779FD69460320FEF767FF04466B
:101450000CB12046ABE71B48006804282ED0BDF82D
:1014600000001B490860BDF8000000041649086030
:1014700009204860C02088600020C8604FF4806068
:1014800008610846FFF758FDFEF706FF04460CB159
:1014900020468CE70020FFF711FD0E49086004206C
:1014A000FFF70CFD0B4948600820FFF707FD0949CD
:1014B00088600C20FFF702FD0649C8600024204622
:1014C00075E700002000002034090020AC0800204F
:1014D000240000209C08002030B58BB005460C4647
:1014E0001348FEF78FFF00211248FEF799FF1248BC
:1014F0000090019500200290A00803900020049025
:1015000080200590800006908000079000200890C1
:101510004FF40050099000200A9069460548FEF7F4
:10152000A1FF01210348FEF77BFF0BB030BD000097
:1015300000F00010440402408080014030B58BB0C0
:1015400005460C461348FEF75DFF00211248FEF7E2
:1015500067FF12480090019510200290A0080390A8
:101560000020049080200590800006908000079065
:10157000002008904FF40050099000200A9069461E
:101580000548FEF76FFF01210348FEF749FF0BB046
:1015900030BD000000F00010440402408080014093
:1015A00010B500240020FFF7DDFC204610BD000030
:1015B0002DE9F0410024002600250027A046B22096
:1015C000594908750020086048608860C860086153
:1015D0000846FFF793FC0320FFF7C4FC0120FFF748
:1015E0001DFC00205149086048608860C8604FF4C5
:1015F000806008610846FFF79FFCFEF723FE044663
:1016000014B12046BDE8F0814FF4D5704749086019
:1016100008204860402088600020C8604FF4806047
:1016200008610846FFF788FCFEF7C6FE04462CB9A1
:1016300001203F4908604FF0804812E000203B49FC
:10164000086037204860402088600020C8604FF460
:10165000806008610846FFF76FFC3720FEF708FE40
:1016600004460020314908603720486040208860E7
:101670000020C8604FF4806008610846FFF75CFCFA
:101680003720FEF7F5FD0446002C4AD136E0002055
:101690002649086037204860402088600020C860E4
:1016A0004FF4806008610846FFF746FC3720FEF7DC
:1016B000DFFD04460CB12046A4E71E4848EA0000BE
:1016C0001A49086029204860402088600020C860CE
:1016D0004FF4806008610846FFF72EFCFEF702FE1B
:1016E00004460CB120468DE70020FFF7E7FB0646D5
:1016F000012080EAD67080F001076D1C1FB94FF6FB
:10170000FF708542C3D34FF6FF70854202D31B247E
:10171000204677E706F08040061E02D002200449EA
:10172000086020466EE700001C09002034090020F4
:10173000200000200000108010B51148006801282A
:101740000BD100200F49886040F24C40C8600C204B
:10175000FEF78EFD0C49087002E000200A4908706F
:101760004FF48070FFF754FB00214FF48070FFF7B7
:10177000B5FB0120054908600348007810BD000052
:1017800028000020008001402C00002030000020B4
:101790002DE9F04180460D4614461E4600270020E4
:1017A0002E4908702E49086001202E49086000204B
:1017B0002D49C8622D480068022801D104026D0A33
:1017C0002B48046010202A4948604020886000208F
:1017D000C8604FF4806008610846FFF7ADFB102039
:1017E000FEF746FD074617B13846BDE8F0814FF0D9
:1017F000FF302049086006FB04F0486090208860B4
:101800000220C86000200861012048610846FFF7F7
:1018100011FB174805601220154948604020886078
:101820000020C8604FF4806008610846FFF784FB21
:101830001220FEF71DFD07460FB13846D5E70121FE
:101840000802FFF74BFB0120FFF7EEFA06FB04F15D
:101850004046FFF741FE3846C7E700002C00002055
:1018600030000020280000200080014020000020DF
:10187000340900204809002070B5044600250A48B4
:101880000460072008494860402088600020C86044
:101890004FF4806008610846FFF74EFB0720FEF713
:1018A000E7FC0546284670BD3409002070B50446A3
:1018B00000250A48008800040949886040F24D402C
:1018C000C8600D20FEF7D4FC05460DB1284670BD5A
:1018D0000348406920602846F9E700002400002002
:1018E0000080014010B5002400BFFFF749FB30B96C
:1018F0000748006818B9074800780028F5D005485F
:10190000007810B10348007810BD2046FCE70000C5
:10191000300000202C00002010B5002400BFFFF78D
:101920002FFB30B90948006818B909480078002829
:10193000F5D00748007810B10548007810BD40F296
:10194000FF50FFF75FFA2046F8E700003000002064
:101950002C0000202DE9F84380460E4617461C4611
:101960000025002000903A4908703A49086001209B
:101970003949086000203949C8623948006802289E
:1019800001D10702760A374800880004364908600A
:1019900037204860402088600020C8604FF4806095
:1019A00008610846FFF7C8FA3720FEF761FC0546D4
:1019B00015B12846BDE8F8832B48046017202A4952
:1019C0004860402088600020C8604FF48060086153
:1019D0000846FFF7B1FA1720FEF74AFC05460DB19D
:1019E0002846E7E72048066019201F494860402044
:1019F00088600020C8604FF4806008610846FFF7E7
:101A00009BFA1920FEF734FC05460DB12846D1E7B4
:101A10004FF0FF301549086004FB07F04860902044
:101A200088600020C8600861012048610846FFF70F
:101A300001FA01210802FFF751FA0120FFF7F4F93A
:101A400004FB07F14046FFF779FD2846B2E70000A6
:101A50002C000020300000202800002000800140E1
:101A60002000002024000020340900204809002024
:101A7000704710B500F002F810BD00000CB5002052
:101A8000019000903348006840F48030314908608C
:101A900000BF3048006800F4003000900198401CFE
:101AA0000190009818B90198B0F5A06FF1D12948BC
:101AB000006800F4003010B10120009001E0002027
:101AC00000900098012843D12348006840F010009E
:101AD000214908600846006820F0030008600846B5
:101AE000006840F0020008601A48406819494860E0
:101AF0000846406848600846406840F48060486096
:101B00000846406820F47C1048600846406840F46D
:101B1000E81048600846006840F08070086000BF28
:101B20000C48006800F000700028F9D009484068AF
:101B300020F00300074948600846406840F0020072
:101B4000486000BF0348406800F00C000828F9D145
:101B50000CBD000000100240002002407047000051
:101B600010B51348006840F00100114908600846AC
:101B70004068104908400E494860084600680E4910
:101B800008400B4908600846006820F4802008607F
:101B90000846406820F4FE0048604FF41F0088604B
:101BA000FFF767FF4FF000600449086010BD0000B8
:101BB000001002400000FFF8FFFFF6FE08ED00E015
:101BC00021B1828942F40052828104E082894DF67B
:101BD000FF731A408281704710B500F0A3F800F03F
:101BE00081F810BD02460020B1F5007F00D100BF92
:101BF00013880B400BB1012000E00020704700006B
:101C00002DE9F04786B005460E460024A24600BFE7
:101C1000A1460027B08900B100BF2F462C8A4CF6A0
:101C2000FF700440F08804432C82AC894EF6F31018
:101C30000440B08831890843718908430443AC816A
:101C4000AC8A4FF6FF400440B0890443AC8201A83F
:101C5000FEF7E0FF1F48874202D1DDF810A001E047
:101C6000DDF80CA0A88900F4004040B10AEBCA00DE
:101C700000EB0A1031684900B0FBF1F807E00AEB0D
:101C8000CA0000EB0A1031688900B0FBF1F864204B
:101C9000B8FBF0F004012009642101FB1089A88938
:101CA00000F4004040B1322000EBC900B0FBF1F07D
:101CB00000F00700044308E0322000EB0910642123
:101CC000B0FBF1F000F00F0004432C8106B0BDE83A
:101CD000F087000000380140C1F30802828070479D
:101CE00000BFFEE71FB501218803FEF783FF4FF415
:101CF000E13000900020ADF80C000C20ADF80A0097
:101D00000020ADF80800ADF80600ADF80400694603
:101D10000348FFF775FF01210148FFF751FF1FBD81
:101D20000038014008B501210420FEF763FF4FF49D
:101D30000070ADF8000018208DF8030003208DF826
:101D4000020069460648FEF72FFE04208DF80300C6
:101D50000002ADF8000069460148FEF725FE08BD07
:101D6000000801400FB4054B10B503A9044A0298BE
:101D700000F018F810BC5DF814FB0000693C000886
:101D80003400002002E008C8121F08C1002AFAD15E
:101D900070477047002001E001C1121F002AFBD1EB
:101DA000704700002DE9FF4F8BB09A460F4605465D
:101DB000002606E025280BD052460D9990476D1C51
:101DC000761C28780028F5D10FB03046BDE8F08F9A
:101DD0000024A0460122604900E0044315F8013FB9
:101DE000203B02FA03F00842F7D128782E2817D1B9
:101DF00015F8010F44F004042A280ED06FF02F02CA
:101E00002878A0F1300109290AD808EB880102EBF3
:101E1000410100EB01086D1CF2E757F8048B6D1CC3
:101E2000287869283ED006DC0028CDD063280BD066
:101E3000642804D136E0732810D075284BD0524660
:101E40000D999047761C85E017F8040B8DF800007B
:101E500000208DF80100E946012003E057F8049BBB
:101E60004FF0FF3061074FF0000401D40AE0641C1A
:101E700044450DDA8442FADB19F804100029F6D142
:101E800006E0641C8442FCDB19F804100029F8D138
:101E9000264404E019F8010B52460D999047641E40
:101EA000F8D257E001CF4FF00A0B002802DA404287
:101EB0002D2102E0210504D52B218DF824100121CC
:101EC00003E0E10705D02021F7E70DF12009089193
:101ED0000CE00021F9E701CF4FF00A0BF9E7594672
:101EE000FEF786F901F1300209F8012D0028F6D13C
:101EF000ADEB090000F1200B600701D44FF00108A1
:101F0000D84502DDA8EB0B0000E00020804600244D
:101F100006E009A85246005D0D999047641C761CA6
:101F200008988442F5DB04E0302052460D99904732
:101F3000761CB8F10001A8F10108F5DC05E019F8FC
:101F4000010B52460D999047761CBBF10001ABF195
:101F5000010BF4DC6D1C34E7092801002DE9F04188
:101F60000446884600202071401E206341462046DA
:101F700002F04AFA10B10420BDE8F08104F23220E8
:101F800001F0CEFF074694F83450EB2D03D0E92D35
:101F900001D0E82D43D14AF65520874208D10822C6
:101FA00023A104F18600FEF716F908B90020E3E743
:101FB00004F13F0001F0B4FF06464120055D701EAC
:101FC000304060BBB6F5007F29DBB6F5007F26DC2C
:101FD0002DB3681E284010BB04F1420001F0A0FFA1
:101FE000E8B14420005D401E012818D804F14500E6
:101FF00001F096FF98B104F1470001F091FF8028AD
:1020000006DA04F1540001F07FFFB0F5803F06D3FB
:1020100004F14A0001F084FF08B10020ACE74AF661
:102020005520874201D10220A6E70320A4E7000043
:102030004641543332202020000000000246891E11
:102040009069801E884201D8002070475389D06A69
:1020500003FB0100F9E700002DE9F04780460C463C
:1020600004F11A0001F05CFF10B10020BDE8F08718
:10207000207800F03F00401E00EB800101EBC0051E
:102080004FF00109002621E01849895D081901F087
:1020900047FF0746B9F1000F11D0FF2D0BD8384686
:1020A00001F0FEFC824629466D1C38F8110001F053
:1020B000F7FC824501D00020D8E7B94605E04FF68D
:1020C000FF70874201D00020D0E7761C0D2EDBD3B5
:1020D000207800F0400038B1B9F1000F04D038F892
:1020E000150008B10020C1E70120BFE758480008EB
:1020F0002DE9F04782468846DAF80040B8F1000F33
:1021000006D1276917B1A069B84215D8012713E095
:102110004146504601F04CFE0546022D02D20120F8
:10212000BDE8F087681C08B92846F9E7A069A8420D
:1021300001D92846F4E74746606908B90020EFE76F
:102140000026474518D17E1CA069B04200D802265F
:102150003146504601F02CFE0546012D01D0681C89
:1021600008B92846DCE73DB12569022D03D3A069F3
:10217000A84200D92F460026E6B93E4600BF761C8D
:10218000A069B04204D80226BE4201D90020C7E7A8
:102190003146504601F00CFE054605B909E0012D17
:1021A00001D0681C08B92846BAE7BE42E7D1002032
:1021B000B6E700BF4FF0FF323146204602F03EF94D
:1021C0008146B9F1000F08D1B8F1000F05D03246B1
:1021D0004146204602F032F98146B9F1000F0DD197
:1021E0002661D4E90510801E814202D86069401E34
:1021F0006061607940F00100607107E0B9F1010FA2
:1022000002D14FF0FF3000E001200646304687E75C
:102210002DE9F34F85B08146069800680490D9F8FF
:102220000000D0F80CA0002500BF04A802F0CFFAEF
:1022300083460BF1010018B9062007B0BDE8F08F06
:10224000BBF5803F05D34FEA1B4228466D1C2AF898
:1022500010201FFA8BF4202C03DB2F2C01D05C2CD8
:1022600000D111E0802C06DA21467BA0FDF7A2FF09
:1022700008B10620E1E7FF2D01D30620DDE728465F
:102280006D1C2AF81040D0E700BF202C01DA04268C
:1022900011E002E00498401C0490049800782F2874
:1022A000F8D0049800785C28F4D0002604980078D0
:1022B000202800D2042604990698016008E0681ED0
:1022C0003AF81040202C02D02E2C00D002E06D1ED7
:1022D000002DF4D100BF00202AF815000DB906200A
:1022E000ABE7002700E07F1C3AF817002028FAD05F
:1022F0001FB93AF817002E2801D146F0030600E076
:102300006D1E25B1681E3AF810002E28F8D1202243
:102310000B2109F12000FDF73BFF4FF00008CDF83D
:102320000C800820029000BF38467F1C3AF810400D
:1023300004B966E0202C03D02E2C04D1AF4202D089
:1023400046F00306F0E7DDE90210884201D2AF4211
:1023500016D102980B2802D146F0030651E0AF4295
:1023600001D046F00306AF4200D94AE02F460820CC
:1023700003900B2002904FEA88604FEA1068D3E781
:10238000802C0ADB46F00206204601F089FB4FF460
:102390006A71019001F04AFB0446FF2C11DD02989E
:1023A000401E0399884204D846F003060298039021
:1023B000BAE722120398411C039109F120010A5443
:1023C00018E024B1214627A0FDF7F4FE18B15F24E0
:1023D00046F003060EE0412C03DB5A2C01DC48F0EA
:1023E0000208612C06DB7A2C04DC48F00108A4F119
:1023F000200084B20398411C039109F120010C5480
:1024000092E700BF99F82000E52802D1052089F85D
:1024100020000298082803D14FEA88604FEA10682C
:1024200008F00C000C2803D008F00300032801D1A9
:1024300046F0020606F0020048B908F0010008B1B3
:1024400046F0100608F0040008B146F008062B20FC
:1024500000F809600020F0E62A3A3C3E7C223F7FEB
:10246000000000002B2C3B3D5B5D00002DE9FF4F81
:1024700085B09A4603AA0121059800F02BFB18B1FC
:10248000012009B0BDE8F08FDDF80C904FF03F0857
:10249000082701E07806070E37B1B9FBF7F0B0FB6B
:1024A000F8F0B0F5806FF5D807B9FF274FF4007149
:1024B0005046FDF774FE0AF5DF764FF0000B4446F8
:1024C00069E0069850F82B50642D07D801D1484692
:1024D00003E06420B9FBF0F0684305466019484505
:1024E00001D8601901D3A9EB040505B959E02146CB
:1024F00006F1080002F0DDF8294606F10C0002F0B2
:10250000D8F807983071B4FBF8F0B0FBF7F00490FE
:10251000B4FBF8F0B0FBF7F107FB1100C0B202907A
:10252000B4FBF8F008FB1040401CC0B201900298C8
:102530007070C021049801EA900001990843B070BE
:102540000498F0706019401EB0FBF8F0B0FBF7F093
:1025500004906019401EB0FBF8F0B0FBF7F107FBE8
:102560001100C0B202906019401EB0FBF8F108FBE8
:102570001100401CC0B2019002987071C0210498F3
:1025800001EA900001990843B0710498F071103687
:102590000BF1010B2C44BBF1040F02D20CB14C45E2
:1025A0008FD300BF4AF655210AF5FF7002F08DF86F
:1025B000012300225146059800F019FB08B10120C3
:1025C0005FE700205DE7000001460B480078884285
:1025D0000FDC09484078884201DB0120704706483B
:1025E0008078884205DC0448C078884201DB0120FD
:1025F000F4E70020F2E700006548000801461048B3
:102600000079884219DC0E484079884201DB0120BC
:1026100070470B488079884205DC0948C0798842B8
:1026200001DB0120F4E70648007A884205DC044813
:10263000407A884201DB0120EAE70020E8E7000059
:10264000654800082DE9F04104460E46D4F80080A4
:102650000021204600F0DBF90546EDB9002700BF58
:102660004046A16901F0D0FE054605B113E0E069DE
:102670000078E52802D0E069007820B9781C074688
:10268000B04201D107E000270121204600F0B7F851
:102690000546002DE4D000BF042D00D107252846B3
:1026A000BDE8F0812DE9F04704468946204602F056
:1026B00069F810B10120BDE8F08749462046FFF7D0
:1026C000BDFC064626634FF4007104F13400FDF7AB
:1026D00066FD04F134080127002500E03D446089CF
:1026E000A84207D9721960783B46414600F07FFA4C
:1026F0000028F3D06089A84201D00120DBE7002048
:10270000D9E72DE9F0470446D4F800A0002120467F
:1027100000F07DF9064616B13046BDE8F0874FF06F
:10272000FF08C1464FF0FF30E06200BF5046A1698C
:1027300001F06AFE064606B15EE0E06905780DB973
:10274000042659E0E069C07A00F03F07A771E52D43
:1027500004D007F0080038B10F2F05D04FF0FF0864
:102760004FF0FF30E06240E00F2F22D12B20005DC0
:1027700000F0400098BB05F0400038B1E06990F8E7
:102780000D9005F0BF05A8462069E06245450CD1D3
:10279000E069407B484508D1E169DAF80C00FFF7B1
:1027A0005BFC10B1A8F1010000E0FF2000F0FF0881
:1027B0001BE0B8F1000F05D1E06901F08CFF48453E
:1027C00000D119E02B20005D00F0010040B90B2280
:1027D00004F12001E069FDF7FEFC08B90CE004E01B
:1027E0004FF0FF084FF0FF30E0620021204600F07C
:1027F00006F80646002E99D000BF30468DE72DE939
:10280000F041044688462768206900F12006B6F5A5
:10281000001F01D30020A061A06910B90420BDE809
:10282000F081C6F30800002845D1A069401CA061D2
:10283000606938B93889B0EB561F3CD80020A061D8
:102840000420ECE77889401E00EA562098BB204619
:10285000616901F0ADFA0546012D01D80220DEE7DD
:10286000681C08B90120DAE7B869A8421DD8B8F198
:10287000000F03D10020A0610420D0E72046616949
:10288000FFF736FC05460DB90720C8E7012D01D139
:102890000220C4E7681C08B90120C0E72946384671
:1028A000FFF700FF08B10120B9E765612946384606
:1028B000FFF7C4FBA0612661C6F3080107F13400ED
:1028C0000844E0610020AAE72DE9FE4F044626688F
:1028D0002B20005D00F0A00010B10620BDE8FE8FA7
:1028E0004FF0000901E009F10109F06830F8190022
:1028F0000028F8D1D4E90912206A8DE807009DF874
:102900000B0000F0010028B340212B2001554FF0AF
:1029100001080EE04346694604F12000F26801F028
:10292000DDF92046FFF7EDFE054605B104E008F1AC
:102930000108B8F1640FEDD300BFB8F1640F01D105
:102940000720CBE7042D01D02846C7E79DF80B10E0
:102950002B2001559DF80B0000F0020030B109F169
:102960000C000D21B0FBF1F0401C00E001200746F7
:1029700039462046FFF766FE05464DBB781E071E0A
:1029800026D02069A0EB4711204600F040F805460C
:10299000F5B904F1200001F09EFE824600BF3046EA
:1029A000A16901F031FD054605B110E0FAB2E16917
:1029B0005346F06801F0DEFD012030710021204611
:1029C000FFF71DFF054615B9781E071EE7D100BFAA
:1029D000DDB93046A16901F017FD0546ADB92021EA
:1029E000E069FDF7DCFBE069216A0160616A416032
:1029F000218D018194F82A1081722B20005D00F056
:102A00001800E169087301203071284666E72DE956
:102A1000F04104460D462668B5F5001F02D205F0C8
:102A20001F0010B10220BDE8F0812561A7681FB921
:102A30003078032800DBB76A47B93089B0EB551FFF
:102A400001D80220EFE7B06AA0611CE070894FEA6C
:102A5000402811E03946204601F0AAF90746781CC3
:102A600008B90120DFE7022F02D3B069B84201D8CC
:102A70000220D8E7A5EB08054545EBD2394630469C
:102A8000FFF7DCFAA0616761A06908B90220CAE714
:102A9000A06900EB5520A061C5F3080106F13400E0
:102AA0000844E0610020BEE770B50546002615B178
:102AB000012D0DD101E0204670BDFEF765FCFEF74B
:102AC000AFFA06460EB9002400E001242046F3E7E1
:102AD0000120F1E720B5034613B1012B1CD101E021
:102AE000204620BD012904D002290AD0032910D193
:102AF0000BE00A48406C094DAD6CB0FBF5F010607E
:102B000007E04FF40070108003E00448806C106010
:102B100000BF00BF0020E4E70420E2E7CC0800206B
:102B20002DE9F047ADF5007D07460C461546984661
:102B30004FF0000917B1012F42D104E030460DF5E6
:102B4000007DBDE8F08704F00300F0B14FF0000A0B
:102B500013E02A466D1C012369461846FFF7E0FF83
:102B60008246BAF1000F00D00CE04FF400726946C3
:102B70002046FDF7FBFA04F50074B8F10000A8F157
:102B80000108E6D100BF5046D9E7690243464FF439
:102B900000722046FEF7FCFD8146B9F1000F07D117
:102BA000FEF7A0FE814600BFFEF7DFFB0028FBD149
:102BB000B9F1000F01D1002600E001263046BEE742
:102BC0000420BCE770B50546042615B1012D0CD1D3
:102BD00001E0204670BDFEF7BBFB0646042E01D186
:102BE000002400E001242046F4E70120F2E72DE96B
:102BF000F047ADF5007D07460C46154698464FF068
:102C0000000917B1012F42D104E030460DF5007DD7
:102C1000BDE8F08704F00300F0B14FF0000A13E0C4
:102C20004FF4007221466846FDF7A0FA2A466D1C53
:102C3000012369461846FFF7DAFF8246BAF1000F12
:102C400000D006E004F50074B8F10000A8F1010816
:102C5000E6D100BF5046D9E7690243464FF40072FF
:102C60002046FEF777FE8146B9F1000F07D1FEF747
:102C700053FE814600BFFEF778FB0028FBD1B9F177
:102C8000000F01D1002600E001263046BEE70420F7
:102C9000BCE738B50546284600F055FD04463CB96A
:102CA0006946284601F0B9FD04460CB900202860A9
:102CB000204638BD2DE9FF4F99B00E4619A801F006
:102CC000E9F803900398002803DA0B201DB0BDE853
:102CD000F08FFE49039851F8200028B10021FB4AEB
:102CE000039852F8200001700398C0B2169000209B
:102CF00015901698FFF7D8FE0290029800F0010098
:102D000008B10320E2E7029800F0040008B10A20AD
:102D1000DCE706B9EE4E70681390139820B913AA39
:102D200003211698FFF7D6FE139840B11398B0F51B
:102D3000004F04D81398401E1399084008B1012091
:102D400013904FF40078307800F00F0018907078EE
:102D5000012804DB7078022801DC707800E0012093
:102D60000690B16889B1B168B1F5004F0DD8404601
:102D70004FEAE87108EBD1614911B268B2FBF1F397
:102D800001FB132109B9B16801E04FF4007105910D
:102D9000F068B0F1807F05D8F068411E084008B99E
:102DA000F06800E0002007900798B0FBF8F007906B
:102DB0001C98B0FBF8F01490149808B9112085E71E
:102DC0001B9C0CB9112081E74FF0000BCDF840B0EF
:102DD00000BF10AA01211698FFF77CFE08B1012060
:102DE00074E7189800F0080040B910983F2805D9FA
:102DF0004FF03F0B1098A0EB0B001090109880281C
:102E000001D20E2062E700BF00BF0798802801D9D9
:102E100080200790189800F0020028B1189800F060
:102E2000010008B9032707E0189800F0010008B96D
:102E300013204BE7022700BF00BF01F029F81099CB
:102E40000844119000BF079D032F2DD1A5B91098FC
:102E50004FEA504A00200490012503E00498401CEA
:102E600004906D009B49049831F8100020B104983B
:102E700031F810005045F1D91098B0FBF5F9082051
:102E800000EB89004044401EB0FBF8F00990202080
:102E90000A90002008904FF6F570814502D98E48BF
:102EA000814536D90E2011E7A5B910984FEA103A9E
:102EB00000200490012503E00498401C04906D005C
:102EC0008649049831F8100020B1049831F81000B8
:102ED0005045F1D91098B0FBF5F940F6F5708145F1
:102EE00003D9042000EB490A06E0012709EB490059
:102EF000401C032101EB500A0AEB0800401EB0FB06
:102F0000F8F0099001200A9005984001B0FBF8F014
:102F100008900A9858440F90069A09990F9801FB57
:102F20000201089808440E9013990E980844401E18
:102F3000491E20EA01010E98A1EB000A032F06D1D9
:102F40000A9850440A900F9850440F9013E0069846
:102F5000BAFBF0F100FB11A038B1AAF1010A0A98FE
:102F6000401C0A900F98401C0F900698BAFBF0F195
:102F70000998084409900E9800EB0510A0EB0B008F
:102F80001099884201D90E20A0E610990A980A1AD1
:102F90000699099800FB11210898081AB0FBF5F969
:102FA000032F0BD14FF6F570814507D8079818B954
:102FB0006808079000B135E00E2087E6022F28D17F
:102FC0004FF6F570814517D9079830B94020B0EB1E
:102FD000450F02D36800079024E0189800F0020023
:102FE00008B103271EE0079820B9680007908028E1
:102FF00000D817E00E2069E640F6F570814508D844
:10300000079820B968000790802800D80AE00E20B1
:103010005CE6012F05D140F6F570814501D90E20FF
:1030200054E600E00FE700BF41462046FDF7B7F841
:103030002BA0016821604168616001892181807A4B
:10304000A072414604F10B0001F03FFB65730A9842
:1030500081B204F10E0001F038FB06982074032FB2
:1030600001D1002000E0059881B204F1110001F0C7
:103070002CFB1098B0F5803F06D2109881B204F175
:10308000130001F022FB04E004F12000109901F08C
:1030900010FBF82060753F2104F1180001F015FBCA
:1030A000FF2104F11A0001F010FB594604F11C0045
:1030B00001F0FFFA032F37D104F14300119901F019
:1030C000F8FA04F12400099910E00000140000202F
:1030D0008C4800087E480008F5FFFF0F7048000884
:1030E000EBFE904D53444F53352E300001F0E1FA82
:1030F000022104F12C0001F0DCFA012104F130007E
:1031000001F0E3FA062104F1320001F0DEFA80203A
:1031100084F84000292084F84200132282A104F19F
:103120004700FDF723F816E004F12700119901F09C
:10313000C0FA099881B204F1160001F0C6FA8020A5
:1031400084F82400292084F8260013227BA104F1AE
:103150002B00FDF70BF84AF6552104F5FF7001F03E
:10316000B4FA01235A4621461698FFF740FD08B1EC
:103170000120ABE5032F32D101230BF106022146DA
:103180001698FFF734FD41462046FDF708F87049D0
:10319000204601F08EFA6F4904F5F27001F089FAC9
:1031A000A9F1010104F5F47001F083FA022104F59C
:1031B000F67001F07EFA4AF6552104F5FF7001F031
:1031C00084FA01230BF1070221461698FFF70FFD41
:1031D00001230BF1010221461698FFF708FD149810
:1031E00000FB08F12046FCF7DAFF0F980D90002055
:1031F000049040E0032F0FD16FF00701204601F04B
:1032000058FA391F201D01F054FA6FF0704104F193
:10321000080001F04EFA09E0012F01D14E4801E00B
:103220006FF007000146204601F043FA099812901A
:1032300000BF14991298884201D9149800E012989E
:103240008246534621460D9A1698FFF7D0FC08B1E6
:1032500001203BE541462046FCF7A1FF0D98504474
:103260000D901298A0EB0A00129012980028E0D15D
:103270000498401C0490069904988842BAD3032FFE
:1032800001D1284600E00898129000BF14991298C6
:10329000884201D9149800E012988246534621468C
:1032A0000D9A1698FFF7A3FC08B101200EE50D98C2
:1032B00050440D901298A0EB0A001290129800282A
:1032C000E4D100BF032F02D10C2017900DE010981D
:1032D000B0F5803F02D30620179006E0022F02D1FE
:1032E0000420179001E00120179000BF189800F00B
:1032F000080070B910980B9000200C9023460BA981
:10330000DDE91602FFF7B2F80190019808B10198C3
:10331000DCE4002211461698FFF7DCFB08B101201F
:10332000D4E40020D2E400004E4F204E414D452011
:103330002020204641543332202020004E4F204E82
:10334000414D4520202020464154202020202000AF
:103350005252614172724161F8FFFF00F7B582B0CD
:1033600016460398019001A800F094FD0446002C35
:1033700002DA0B2005B0F0BD0F4850F8245025B1FB
:1033800000200D4941F824002870029840B10299AC
:103390004C700020029908700749029841F82400F7
:1033A0000EB90020E6E7002202A903A800F0D6FE2D
:1033B00007463846DEE70000140000202DE9F74FED
:1033C0008EB0044616461CB9092011B0BDE8F08F36
:1033D00006F03F06324601A90FA800F0BFFE0546E1
:1033E000002D70D10198029002A80F9900F0ECFB1B
:1033F00005462DB99DF8330000F0800000B1062588
:1034000006F01C00002856D045B1042D03D102A8B7
:10341000FFF75AFA054646F008060AE09DF80E0046
:1034200000F0110008B1072503E006F0040000B128
:103430000825002D51D106F0080000284DD000F0DD
:1034400027FD0090099901F10E00009901F031F972
:10345000099901F11600009901F02BF909990198D9
:1034600000F03FFD814620200999C8720022099989
:10347000019801F00CF9099901F11C00002101F0FB
:1034800018F9012001990871B9F1000F25D00198B0
:10349000D0F830A00022494602A801F0ABF805465A
:1034A000DDB95146019800F0AFFF0546A9F10100D2
:1034B0000199086111E085B99DF80E0000F0100037
:1034C00010B1042509E05DE006F0020028B19DF886
:1034D0000E0000F0010000B107254DB906F008000C
:1034E00008B146F040060198006B206209986062BE
:1034F000002D55D10999019800F0F3FCA0600999BD
:1035000001F11C0000F000FDE060019820600198CE
:10351000C088A080267400206074E06160614FF470
:10352000007104F12800FCF73AFE06F0200048B3D1
:10353000E06838B3E0686061019840894FEA402B49
:10354000A768D4F80C800CE03946204600F030FC27
:103550000746012F00D80225781C00B90125A8EBE9
:103560000B080DB9D845EFD8A7615DB9C8F30800BD
:1035700040B139460198FEF761FD8246BAF1000F6D
:1035800001D102250CE00AEB5820E061E2690199C3
:103590004878012304F12801FFF7C2FA00B10125A0
:1035A0000DB10020206028460FE72DE9FF4F85B0C0
:1035B000044615469A46DDF818B00020CAF8000007
:1035C00003A9204601F029F90490049810B9607C01
:1035D000049018B1049809B0BDE8F08F207C00F089
:1035E000010008B90720F6E76169E068401A019018
:1035F0000198854200D9019DA0E0A08AC0F308008F
:1036000000287ED103984089401E616900EA512953
:10361000B9F1000F17D1606910B9A068029004E0F9
:103620002046A16900F0C4FB02900298022802D251
:1036300002206074CFE70298401C10B9012060742A
:10364000C9E70298A061A1690398FEF7F7FC064656
:1036500016B902206074BEE74E444FEA5528B8F10F
:10366000000F29D009EB080003994989884203D942
:1036700003984089A0EB09080399487843463246ED
:103680005946FFF74DFA10B101206074A3E7207C82
:1036900000F0800068B1E069801B404509D2E16913
:1036A000891B0BEB41204FF4007204F12801FCF759
:1036B0005DFD4FEA482737E0E069B04220D0207C2A
:1036C00000F0800078B1E26903994878012304F1A1
:1036D0002801FFF78CFA10B1012060747BE7207C91
:1036E00000F07F002074039948780123324604F1EA
:1036F0002801FFF715FA18B1012060746BE700E0AC
:10370000E661A08AC0F30800C0F50077AF4200D997
:103710002F46A08AC0F3080204F1280011183A4687
:103720005846FCF723FD00BFED1BDAF800003844D3
:10373000CAF80000BB44606938446061002D7FF422
:103740005CAF002047E7F8B504466946204601F023
:1037500064F80646002E44D1207C00F0400000288A
:103760003FD0207C00F0800070B1E2690099487879
:10377000012304F12801FFF73AFA08B10120F8BD4E
:10378000207C00F07F00207400F082FB0746216A55
:10379000009800F039FE06461EBB656AE87A40F0E4
:1037A0002000E8722946A268206800F070FF05F149
:1037B0001C00E16800F07DFF394605F1160000F0BD
:1037C00078FF002105F1120000F07FFF0120009931
:1037D0000871009800F090FF0646207C00F0BF00C2
:1037E00020743046CBE72DE9FF4F83B004461546E1
:1037F0009B46049800900020CBF8000001A92046C9
:1038000001F00BF80290029810B9607C029018B198
:10381000029807B0BDE8F08F207C00F0020008B9E4
:103820000720F6E700BF606928446169884202D238
:103830006069C0F1FF35BBE0A08AC0F30800002832
:1038400075D101984089401E616900EA512ABAF198
:10385000000F1ED1606938B9A76857B9002120460A
:10386000FEF746FC074604E02046A169FEF740FC4F
:10387000074607B99FE0012F02D102206074C8E714
:10388000781C10B901206074C3E7A761A06800B973
:10389000A760207C00F0800078B1E2690199487847
:1038A000012304F12801FFF7A2F910B1012060748F
:1038B000AFE7207C00F07F002074A1690198FEF73B
:1038C000BDFB064616B902206074A2E756444FEAD3
:1038D0005529B9F1000F2BD00AEB0900019949894C
:1038E000884203D901984089A0EB0A0901994878D8
:1038F0004B4632460099FFF77AF910B10120607407
:1039000087E7E069801B48450ED2E069801B009A7A
:1039100002EB40214FF4007204F12800FCF726FC72
:10392000207C00F07F0020744FEA49282BE013E050
:10393000E069B0420FD0E168606988420BD201991A
:1039400048780123324604F12801FFF7E9F810B165
:10395000012060745DE7E661A08AC0F30800C0F54D
:103960000078A84500D9A846A18AC1F3080204F14D
:103970002801501842460099FCF7F8FB207C40F0E3
:103980008000207400BFA5EB0805DBF80000404470
:10399000CBF80000009840440090606940446061AA
:1039A000E1686069884201D9606900E0E068E06030
:1039B000002D7FF441AF00BF207C40F04000207418
:1039C000002026E7F0B502460E4600200021802A9E
:1039D00001DA104627E0B6F56A7F24D1124B45F292
:1039E00020570025102414E0A7EB050C05EB5C0123
:1039F0004FEA410C33F81CC0944500D10BE04FEA6C
:103A0000410C33F81CC0944501DA0D4600E00F4626
:103A1000641E002CE8D100BF2CB14FF0010C0CEB60
:103A2000410C33F81C00F0BD209D01082DE9F04148
:103A300002460F4600200021802A01D290B22BE0DE
:103A4000B2F5803F28D2B7F56A7F25D195B2134BE6
:103A500045F2205C0026102414E0ACEB060806EBCF
:103A600058014FEA410833F81880A84500D10BE00F
:103A70004FEA410833F81880A84501DA0E4600E005
:103A80008C46641E002CE8D100BF2CB14FF0010819
:103A900008EB410833F81800BDE8F0819C480008A5
:103AA00070B5B0F5803F4DD281B2B1F5805F01DADB
:103AB000254E00E0254E324600BF32F8023B0BB1E6
:103AC000994200DA3CE032F8024B2512E4B21E19AA
:103AD0008E4230DD092D2CD2DFE805F005090F13E9
:103AE000171B1F232700CE1A32F8161021E0CE1A1A
:103AF00006F001068E1BB1B21BE0A1F11006B1B2B7
:103B000017E0A1F12006B1B213E0A1F13006B1B285
:103B10000FE0A1F11A06B1B20BE001F10806B1B253
:103B200007E0A1F15006B1B203E0A1F5E356B1B24E
:103B300000BF00BF04E0002DBFD102EB4402BCE790
:103B400000BF084670BD0000A4F1020896F3020809
:103B50002DE9FF4107460D4600213846FEF7FEF9E4
:103B60000646022E06D0032E00D21DB9304604B000
:103B7000BDE8F08100BF00240AE007F5F97101EB10
:103B8000041101F1080000F0BFF94DF82400641C95
:103B9000042CF2D30DB1681E00E00020044600BFE3
:103BA0005DF8240028B15DF824103846FEF7D6F9F8
:103BB00000E0032006462DB9022E03D3601C044604
:103BC0000428EDD33046D2E72DE9F34104462768B7
:103BD00002E00198401C0190019800782F28F8D04D
:103BE000019800785C28F4D00020A060019800784B
:103BF000202808D280212B20015500212046FEF7E5
:103C000006FF05462CE000BF01A92046FEF700FB99
:103C1000054605B123E02046FEF773FD05462B203F
:103C2000065D3DB1042D04D100BF06F0040000B9CB
:103C3000052514E006F0040000B110E0A07900F0C2
:103C4000100008B905250AE0208AC0F3080207F130
:103C500034001118384600F044F9A060D4E700BFE2
:103C60002846BDE8FC81000070B504460D46E1B26F
:103C70000548FEF731F800BF80210348FDF7B2FF89
:103C80000028F9D0204670BD0038014010B500284A
:103C900021D0114B0022001F196803E0814203D894
:103CA0000A4649680029F9D152B11368841A9C4226
:103CB00004D1006818441060104602E0506000E033
:103CC000186039B102680B1A934203D10B681A4489
:103CD00002604968416010BD380000202DE9FF4FA7
:103CE00083B0074691461E460498016839604168D2
:103CF000796001893981807AB872052E19D9B04668
:103D000012E039F802BB00240CE0584668F35F006B
:103D100080464FEA6B0B08F4803010B1234888EAE4
:103D20000008641C102CF0D3B9F800000028E8D17A
:103D30004646072400BF06F00F0000F1300A36099E
:103D4000BAF1390F03DD0AF1070000F0FF0A20463F
:103D5000641E01A901F800A00CB1002EEBD17E2059
:103D600001A90855002509E0785DFEF72DFC20B17A
:103D7000601EA84200D106E06D1C6D1CA54202D257
:103D8000785D2028F0D100BF00BF082C04D2204667
:103D9000641C01A9085C00E0202029466D1C7854B1
:103DA000082DF2D307B0BDE8F08F0000211001000C
:103DB0002DE9F04781460C46D9F80050022C02D379
:103DC000A869A04202D84FF001085EE04FF0FF382A
:103DD0002878012804D002282CD0032851D13CE0B7
:103DE000264606EB5606686A00EB5621284600F088
:103DF0000BFB00B148E03046761CC0F3080105F12A
:103E00003400475C686A00EB5621284600F0FCFA53
:103E100000B139E0C6F3080105F13400405C47EA1F
:103E2000002704F0010008B1380901E0C7F30B00D6
:103E3000804629E0686A00EB1421284600F0E4FA85
:103E400000B121E040F2FF1101EA440205F1340122
:103E5000501800F065F8804616E0686A00EBD4114F
:103E6000284600F0D1FA00B10EE040F2FF1101EA5D
:103E7000840205F13401501800F046F820F0704833
:103E800002E04FF0010800BF00BF4046BDE8F087E8
:103E90000020704770B504464FF0FF302668314669
:103EA000324601B970BD00BF12F8013B202B01D38F
:103EB0003A2BF9D13A2B11D102250E78302E08DB9E
:103EC0000E78392E05DC8E1C964202D10E78A6F1B2
:103ED0003005022D01DA28462260E3E7002000BF0A
:103EE000E0E770B505460C4604F11A0000F018F83A
:103EF00006462878032805D104F1140000F010F8D4
:103F000046EA0046304670BD0146C8788A7842EAE3
:103F100000204A7842EA00200A7842EA00207047EE
:103F2000014648780A7842EA002070472AA5FCF743
:103F3000CDFDFDF751FE31A0FDF714FF01223BA19D
:103F40003B48FFF70BFA04467CB93AA0FDF70AFF9D
:103F500001214348FCF7B3FD20214148FCF7B1FDA6
:103F600002213F48FCF7ADFD2CE020213C48FCF746
:103F7000A6FD02213A48FCF7A4FD01213848FCF7D0
:103F8000A0FD38A0FDF7EEFE44A0FDF7EBFE4FF4D8
:103F90000073484A002125A0FEF78CFE04466CB948
:103FA00045A0FDF7DFFE002220A11046FFF7D6F95D
:103FB00001221EA11E48FFF7D1F903E0214643A0CC
:103FC000FDF7D0FE29464948FCF722FB2946474821
:103FD000FCF768FA00BFFEE7313A5344436172646C
:103FE000CEC4BCFECFB5CDB3C7AEC7AEC7AEC7AEAD
:103FF000C7AEC7AE3131312E747874000D0AD5E2E8
:10400000CAC7D2BBB8F62053444361726420CEC401
:10401000BCFECFB5CDB34641544653B6C1D0B4CEA5
:10402000C4BCFECAB5D1E90D0A000000313A000057
:1040300040020020466174467320665F6D6F756EA6
:104040007420737563636573732C63616E2072658E
:10405000616420616E64207772697465210D0A00C5
:10406000000C0140466174467320665F6D6F756E8B
:1040700074206661696C2C646F6573206E6F7420A8
:10408000796574206861766520612066696C657366
:10409000797374656D2E0D0A0000000041626F7522
:1040A0007420746F20666F726D61742E2E2E0D0A4F
:1040B000000000009C060020665F6D6B6673207335
:1040C0007563636573730D0A0000000046617446F2
:1040D0007320665F6D6B6673206661696C2C726518
:1040E00073756C743A25640D0A0000007404002096
:1040F000F0B50B30154D20F007010024144A0FE0F5
:1041000003688B420BD38B4205D95E1A431847686C
:10411000C3E9006700E04368136002C004E0021DC9
:1041200010680028ECD12046002802D1286808B188
:104130000020F0BD064A07481060074A121A22F014
:104140000702C0E9002401202860D7E73C000020D6
:104150003800002064090020600B00202DE9F74F93
:1041600084B00021059801600498FFF793FE039046
:104170000398002803DA0B2007B0BDE8F08F9C49B4
:10418000039851F820400CB90C20F5E7059804601D
:10419000069800F0FE000690207878B16078FEF76F
:1041A00011FD074607F0010040B9069820B107F05D
:1041B000040008B10A20DFE70020DDE700202070BE
:1041C0006078FEF771FC074607F0010008B1032094
:1041D000D2E7069820B107F0040008B10A20CBE727
:1041E00000212046FFF7B4FC0546042D01D1012033
:1041F000C2E7022D01D30D20BEE7D4F8309004F1C0
:104200003F00FFF78DFEB0F5007F01D00D20B3E732
:1042100004F14A00FFF784FE064626B904F158006F
:10422000FFF772FE0646E6614420005DE070E0782C
:10423000012804D0E078022801D00D209CE7E07826
:1042400046434120005D6081608918B16089411E4C
:10425000084008B10D208FE704F14500FFF760FE2C
:104260002081207A00F00F0008B10D2084E704F1CE
:104270004700FFF755FE8246BAF1000F04D104F162
:104280005400FFF741FE824604F14200FFF748FE6A
:104290008346BBF1000F01D10D206DE70BEB06004B
:1042A000218900EB111002900298824501D20D2065
:1042B00062E70298AAEB00006189B0FBF1F8B8F15F
:1042C000000F01D10D2057E700254A48804500D84E
:1042D00003254FF6F570804500D8022540F6F570AD
:1042E000804500D801250DB90D2045E708F10200F1
:1042F000A061C4F8209009EB0B006062029848446A
:10430000E062032D13D104F15E00FFF709FE08B14E
:104310000D2031E7208908B10D202DE704F1600060
:10432000FFF7F2FDA062A0698000019014E02089EF
:1043300008B90D2020E7606A3044A062022D02D146
:10434000A069400007E0207E00F00100A16901EBB8
:10435000410100EB51000190E169019800F2FF106A
:10436000B1EB502F01D20D2006E74FF0FF30606116
:10437000206180206071032D2DD104F16400FFF7CE
:10438000CFFD012827D109F10101204600F03CF8BA
:1043900008BB0020607104F23220FFF7C1FD4AF62D
:1043A0005521884217D104F13400FFF7ADFD1249C1
:1043B000884210D104F50670FFF7A6FD0F49884228
:1043C00009D104F50770FFF79FFD606104F50870DF
:1043D000FFF79AFD2061257009480088401C80B2D3
:1043E00007490880E0800748E0600020C4E600003C
:1043F00014000020F5FFFF0F5252614172724161BB
:104400001C0000204000002070B504460D46002628
:10441000206BA84210D0204600F0B4F906465EB9E1
:10442000607801232A4604F13401FEF779FB10B1CC
:104430004FF0FF3501262563304670BD2DE9F0476A
:1044400004460D4616464FF00209022D74D3A069AA
:10445000A84271D92078012804D0022849D0032825
:104460000DD15EE02F4607EB5707606A00EB57213E
:104470002046FFF7C9FF8146B9F1000F00D075E073
:1044800038467F1CC0F3080104F1340001EB00083A
:1044900005F0010028B1F1B298F8000061F31F1097
:1044A00000E0304688F8000001202071606A00EBCF
:1044B00057212046FFF7A8FF8146B9F1000F00D031
:1044C00054E0C7F3080104F1340001EB000805F0E3
:1044D000010010B1C6F3071006E098F8000000F0E4
:1044E000F000C6F30321084388F800000120207182
:1044F0003CE0606A00EB15212046FFF785FF81460E
:10450000B9F1000F00D031E0B1B240F2FF1202EA7F
:10451000450304F13402981800F0D7F80120207107
:1045200024E0606A00EBD5112046FFF76DFF81465D
:10453000B9F1000F01D019E019E040F2FF1101EAD2
:10454000850204F134015018FFF7DEFC66F31B000E
:10455000064640F2FF1101EA850204F134015018C9
:10456000314600F0A6F80120207100BF00BF484688
:10457000BDE8F0872DE9F04707460C4615469846FA
:1045800084F80D800F20E07200202073002104F1D8
:104590001A0000F09AF8681E00EB800101EBC009D8
:1045A00000200646824600BF4FF6FF70864204D0C8
:1045B000484609F1010937F810600D4911F80A1051
:1045C0000819314600F081F80EB94FF6FF760AF16E
:1045D000010082460D28E7D34FF6FF70864202D0D5
:1045E00037F8190008B945F040052570BDE8F08797
:1045F000584800082DE9F04781460E4617464FF00F
:104600000008D9F80040022E02D3A069B04202D8B7
:104610000220BDE8F08767B100BF4FF0FF32394696
:104620002046FFF70BFF8046B8F1000F01D040464F
:10463000EFE700BF31464846FFF7BAFB054605B92C
:1046400022E0012D01D10220E3E7681C08B9012016
:10465000DFE7002231462046FFF7F0FE8046B8F142
:10466000000F01D04046D4E7D4E90510801E8142F6
:1046700006D26069401C6061607940F001006071A1
:104680002E46A069B042D5D800BF0020C1E770B562
:1046900006460C461546A9B204F11A0000F015F8BA
:1046A0003078032804D1290C04F1140000F00DF82F
:1046B00070BD00F8011B090A00F8011B090A00F887
:1046C000011B090A00F8011B704700F8011B0912C1
:1046D00000F8011B704730B5014600200B2200BFD7
:1046E000431003EBC01411F8015B6319D8B2531ED9
:1046F0001A1EF5D130BD000070B50446204600F00A
:1047000041F80546002D37D1207803282DD1607956
:1047100001282AD1410204F13400FBF740FD4AF69A
:10472000552104F23220FFF7D0FF144904F1340080
:10473000FFF7BFFF124904F50670FFF7BAFF04F553
:1047400007706169FFF7B5FF04F508702169FFF78D
:10475000B0FF206A401C20636078012304F134011B
:10476000226BFEF744FA0020607160780022114647
:10477000FEF7B0F900B10125284670BD52526141E3
:104780007272416170B5044600252079E8B1607805
:10479000012304F13401226BFEF729FAA0B90020AD
:1047A0002071616A206B401AE16988420DD2E0787D
:1047B00002280AD1E369216BCA186078012304F149
:1047C0003401FEF714FA00E00125284670BD2DE9FA
:1047D000F0410646356815F8014B2046FDF7F4FE1A
:1047E00060B115F8017B3846FDF708FF18B94FF0A6
:1047F000FF30BDE8F08107EB042084B24CB14FF4E8
:104800006A712046FFF7DEF8044614B94FF0FF3016
:10481000EFE7A04635604046EBE770B504460D462D
:1048200009268CB1206878B12068007860B1A08832
:104830002168C988884207D121684878FEF7C2F903
:1048400000F0010000B900260EB9206800E0002049
:104850002860304670BD000001030507090E1012E4
:104860001416181C1E81FE0000407E80FE00000011
:1048700001000400100040000001000200000100DF
:1048800002000400080010002000000007000000E3
:10489000000000000000000000000000A400E8A1EB
:1048A000A700ECA1A800A7A1B000E3A1B100C0A19E
:1048B000B700A4A1D700C1A1E000A4A8E100A2A86C
:1048C000E800A8A8E900A6A8EA00BAA8EC00ACA8ED
:1048D000ED00AAA8F200B0A8F300AEA8F700C2A1AC
:1048E000F900B4A8FA00B2A8FC00B9A80101A1A877
:1048F0001301A5A81B01A7A82B01A9A84401BDA8C5
:104900004801BEA84D01ADA86B01B1A8CE01A3A876
:10491000D001ABA8D201AFA8D401B3A8D601B5A8E5
:10492000D801B6A8DA01B7A8DC01B8A85102BBA823
:104930006102C0A8C702A6A1C902A5A1CA0240A8D7
:10494000CB0241A8D90242A89103A1A69203A2A634
:104950009303A3A69403A4A69503A5A69603A6A6CF
:104960009703A7A69803A8A69903A9A69A03AAA69F
:104970009B03ABA69C03ACA69D03ADA69E03AEA66F
:104980009F03AFA6A003B0A6A103B1A6A303B2A63E
:10499000A403B3A6A503B4A6A603B5A6A703B6A60B
:1049A000A803B7A6A903B8A6B103C1A6B203C2A6BD
:1049B000B303C3A6B403C4A6B503C5A6B603C6A66F
:1049C000B703C7A6B803C8A6B903C9A6BA03CAA63F
:1049D000BB03CBA6BC03CCA6BD03CDA6BE03CEA60F
:1049E000BF03CFA6C003D0A6C103D1A6C303D2A6DE
:1049F000C403D3A6C503D4A6C603D5A6C703D6A6AB
:104A0000C803D7A6C903D8A60104A7A71004A1A765
:104A10001104A2A71204A3A71304A4A71404A5A712
:104A20001504A6A71604A8A71704A9A71804AAA7DF
:104A30001904ABA71A04ACA71B04ADA71C04AEA7AE
:104A40001D04AFA71E04B0A71F04B1A72004B2A77E
:104A50002104B3A72204B4A72304B5A72404B6A74E
:104A60002504B7A72604B8A72704B9A72804BAA71E
:104A70002904BBA72A04BCA72B04BDA72C04BEA7EE
:104A80002D04BFA72E04C0A72F04C1A73004D1A7AF
:104A90003104D2A73204D3A73304D4A73404D5A752
:104AA0003504D6A73604D8A73704D9A73804DAA71F
:104AB0003904DBA73A04DCA73B04DDA73C04DEA7EE
:104AC0003D04DFA73E04E0A73F04E1A74004E2A7BE
:104AD0004104E3A74204E4A74304E5A74404E6A78E
:104AE0004504E7A74604E8A74704E9A74804EAA75E
:104AF0004904EBA74A04ECA74B04EDA74C04EEA72E
:104B00004D04EFA74E04F0A74F04F1A75104D7A717
:104B100010205CA9132043A81420AAA1152044A8A2
:104B20001620ACA11820AEA11920AFA11C20B0A165
:104B30001D20B1A1252045A82620ADA13020EBA144
:104B40003220E4A13320E5A1352046A83B20F9A17D
:104B5000AC2080000321E6A1052147A8092148A82F
:104B60001621EDA1212159A96021F1A26121F2A212
:104B70006221F3A26321F4A26421F5A26521F6A2C9
:104B80006621F7A26721F8A26821F9A26921FAA299
:104B90006A21FBA26B21FCA27021A1A27121A2A219
:104BA0007221A3A27321A4A27421A5A27521A6A299
:104BB0007621A7A27721A8A27821A9A27921AAA269
:104BC0009021FBA19121FCA19221FAA19321FDA1A9
:104BD000962149A897214AA898214BA899214CA829
:104BE0000822CAA10F22C7A11122C6A115224DA8D1
:104BF0001A22CCA11D22D8A11E22DEA11F224EA85E
:104C00002022CFA123224FA82522CEA12722C4A152
:104C10002822C5A12922C9A12A22C8A12B22D2A1BA
:104C20002E22D3A13422E0A13522DFA13622C3A156
:104C30003722CBA13D22D7A14822D6A14C22D5A113
:104C4000522250A86022D9A16122D4A16422DCA101
:104C50006522DDA1662251A8672252A86E22DAA140
:104C60006F22DBA1952292A89922D1A1A522CDA1E4
:104C7000BF2253A81223D0A16024D9A26124DAA2B2
:104C80006224DBA26324DCA26424DDA26524DEA20C
:104C90006624DFA26724E0A26824E1A26924E2A2DC
:104CA0007424C5A27524C6A27624C7A27724C8A2FC
:104CB0007824C9A27924CAA27A24CBA27B24CCA2CC
:104CC0007C24CDA27D24CEA27E24CFA27F24D0A29C
:104CD0008024D1A28124D2A28224D3A28324D4A26C
:104CE0008424D5A28524D6A28624D7A28724D8A23C
:104CF0008824B1A28924B2A28A24B3A28B24B4A2AC
:104D00008C24B5A28D24B6A28E24B7A28F24B8A27B
:104D10009024B9A29124BAA29224BBA29324BCA24B
:104D20009424BDA29524BEA29624BFA29724C0A21B
:104D30009824C1A29924C2A29A24C3A29B24C4A2EB
:104D40000025A4A90125A5A90225A6A90325A7A98F
:104D50000425A8A90525A9A90625AAA90725ABA95F
:104D60000825ACA90925ADA90A25AEA90B25AFA92F
:104D70000C25B0A90D25B1A90E25B2A90F25B3A9FF
:104D80001025B4A91125B5A91225B6A91325B7A9CF
:104D90001425B8A91525B9A91625BAA91725BBA99F
:104DA0001825BCA91925BDA91A25BEA91B25BFA96F
:104DB0001C25C0A91D25C1A91E25C2A91F25C3A93F
:104DC0002025C4A92125C5A92225C6A92325C7A90F
:104DD0002425C8A92525C9A92625CAA92725CBA9DF
:104DE0002825CCA92925CDA92A25CEA92B25CFA9AF
:104DF0002C25D0A92D25D1A92E25D2A92F25D3A97F
:104E00003025D4A93125D5A93225D6A93325D7A94E
:104E10003425D8A93525D9A93625DAA93725DBA91E
:104E20003825DCA93925DDA93A25DEA93B25DFA9EE
:104E30003C25E0A93D25E1A93E25E2A93F25E3A9BE
:104E40004025E4A94125E5A94225E6A94325E7A98E
:104E50004425E8A94525E9A94625EAA94725EBA95E
:104E60004825ECA94925EDA94A25EEA94B25EFA92E
:104E7000502554A8512555A8522556A8532557A862
:104E8000542558A8552559A856255AA857255BA832
:104E900058255CA859255DA85A255EA85B255FA802
:104EA0005C2560A85D2561A85E2562A85F2563A8D2
:104EB000602564A8612565A8622566A8632567A8A2
:104EC000642568A8652569A866256AA867256BA872
:104ED00068256CA869256DA86A256EA86B256FA842
:104EE0006C2570A86D2571A86E2572A86F2573A812
:104EF000702574A8712575A8722576A8732577A8E2
:104F0000812578A8822579A883257AA884257BA87D
:104F100085257CA886257DA887257EA8882580A84C
:104F2000892581A88A2582A88B2583A88C2584A819
:104F30008D2585A88E2586A88F2587A8932588A8E6
:104F4000942589A895258AA8A025F6A1A125F5A1D3
:104F5000B225F8A1B325F7A1BC258BA8BD258CA847
:104F6000C625F4A1C725F3A1CB25F0A1CE25F2A13A
:104F7000CF25F1A1E2258DA8E3258EA8E4258FA8F1
:104F8000E52590A80526EFA10626EEA1092691A801
:104F90004026E2A14226E1A10030A1A10130A2A158
:104FA0000230A3A10330A8A10530A9A1063065A94C
:104FB000073096A90830B4A10930B5A10A30B6A1CE
:104FC0000B30B7A10C30B8A10D30B9A10E30BAA189
:104FD0000F30BBA11030BEA11130BFA1123093A879
:104FE0001330FEA11430B2A11530B3A11630BCA10C
:104FF0001730BDA11D3094A81E3095A8213040A9BE
:10500000223041A9233042A9243043A9253044A9A4
:10501000263045A9273046A9283047A9293048A974
:105020004130A1A44230A2A44330A3A44430A4A49C
:105030004530A5A44630A6A44730A7A44830A8A46C
:105040004930A9A44A30AAA44B30ABA44C30ACA43C
:105050004D30ADA44E30AEA44F30AFA45030B0A40C
:105060005130B1A45230B2A45330B3A45430B4A4DC
:105070005530B5A45630B6A45730B7A45830B8A4AC
:105080005930B9A45A30BAA45B30BBA45C30BCA47C
:105090005D30BDA45E30BEA45F30BFA46030C0A44C
:1050A0006130C1A46230C2A46330C3A46430C4A41C
:1050B0006530C5A46630C6A46730C7A46830C8A4EC
:1050C0006930C9A46A30CAA46B30CBA46C30CCA4BC
:1050D0006D30CDA46E30CEA46F30CFA47030D0A48C
:1050E0007130D1A47230D2A47330D3A47430D4A45C
:1050F0007530D5A47630D6A47730D7A47830D8A42C
:105100007930D9A47A30DAA47B30DBA47C30DCA4FB
:105110007D30DDA47E30DEA47F30DFA48030E0A4CB
:105120008130E1A48230E2A48330E3A48430E4A49B
:105130008530E5A48630E6A48730E7A48830E8A46B
:105140008930E9A48A30EAA48B30EBA48C30ECA43B
:105150008D30EDA48E30EEA48F30EFA49030F0A40B
:105160009130F1A49230F2A49330F3A49B3061A962
:105170009C3062A99D3066A99E3067A9A130A1A587
:10518000A230A2A5A330A3A5A430A4A5A530A5A5AF
:10519000A630A6A5A730A7A5A830A8A5A930A9A57F
:1051A000AA30AAA5AB30ABA5AC30ACA5AD30ADA54F
:1051B000AE30AEA5AF30AFA5B030B0A5B130B1A51F
:1051C000B230B2A5B330B3A5B430B4A5B530B5A5EF
:1051D000B630B6A5B730B7A5B830B8A5B930B9A5BF
:1051E000BA30BAA5BB30BBA5BC30BCA5BD30BDA58F
:1051F000BE30BEA5BF30BFA5C030C0A5C130C1A55F
:10520000C230C2A5C330C3A5C430C4A5C530C5A52E
:10521000C630C6A5C730C7A5C830C8A5C930C9A5FE
:10522000CA30CAA5CB30CBA5CC30CCA5CD30CDA5CE
:10523000CE30CEA5CF30CFA5D030D0A5D130D1A59E
:10524000D230D2A5D330D3A5D430D4A5D530D5A56E
:10525000D630D6A5D730D7A5D830D8A5D930D9A53E
:10526000DA30DAA5DB30DBA5DC30DCA5DD30DDA50E
:10527000DE30DEA5DF30DFA5E030E0A5E130E1A5DE
:10528000E230E2A5E330E3A5E430E4A5E530E5A5AE
:10529000E630E6A5E730E7A5E830E8A5E930E9A57E
:1052A000EA30EAA5EB30EBA5EC30ECA5ED30EDA54E
:1052B000EE30EEA5EF30EFA5F030F0A5F130F1A51E
:1052C000F230F2A5F330F3A5F430F4A5F530F5A5EE
:1052D000F630F6A5FC3060A9FD3063A9FE3064A964
:1052E0000531C5A80631C6A80731C7A80831C8A826
:1052F0000931C9A80A31CAA80B31CBA80C31CCA8F6
:105300000D31CDA80E31CEA80F31CFA81031D0A8C5
:105310001131D1A81231D2A81331D3A81431D4A895
:105320001531D5A81631D6A81731D7A81831D8A865
:105330001931D9A81A31DAA81B31DBA81C31DCA835
:105340001D31DDA81E31DEA81F31DFA82031E0A805
:105350002131E1A82231E2A82331E3A82431E4A8D5
:105360002531E5A82631E6A82731E7A82831E8A8A5
:105370002931E9A82032E5A22132E6A22232E7A2B1
:105380002332E8A22432E9A22532EAA22632EBA295
:105390002732ECA22832EDA22932EEA231325AA9EC
:1053A000A33249A98E334AA98F334BA99C334CA908
:1053B0009D334DA99E334EA9A1334FA9C43350A9A3
:1053C000CE3351A9D13352A9D23353A9D53354A9DD
:1053D000004EBBD2014EA1B6024E4081034EDFC645
:1053E000044E4181054E4281064E4381074EF2CD67
:1053F000084EC9D5094EFDC80A4ECFC90B4EC2CFC3
:105400000C4EA2D80D4EBBB20E4EEBD30F4E4481C4
:10541000104EA4D8114EF3B3124E4581134EA8D7A7
:10542000144ED2C7154EA7D8164EC0CA174E468185
:10543000184EF0C7194EFBB11A4EB5D21B4ED4B45C
:105440001C4EABB61D4EBFCB1E4EA9D81F4E47817A
:10545000204E4881214E4981224EAAB6234E4A81D0
:10546000244EBDC1254ECFD1264E4B81274EA5C916
:10547000284EADD8294E4C812A4EF6B82B4EBED1BF
:105480002C4EDCE32D4ED0D62E4E4D812F4E4E812C
:10549000304EE1B7314E4F81324EAEB4334E508173
:1054A000344ED9C1354E5181364EBCD8374E52811B
:1054B000384EE8CD394EA4B53A4EAACE3B4EF7D67B
:1054C0003C4E53813D4EF6C03E4ED9BE3F4EAFD806
:1054D000404E5481414E5581424E5681434ECBC47D
:1054E000444E5781454EC3BE464E5881474EB1D8B3
:1054F000484EB4C3494EE5D24A4E59814B4EAED6C2
:105500004C4EDACE4D4EA7D54E4EF5BA4F4EA6B7FD
:10551000504ED6C0514E5A81524EB9C6534ED2C586
:10552000544EC7C7554E5B81564ED4B9574E5C8119
:10553000584ECBB3594ED2D25A4E5D815B4E5E81EE
:105540005C4EBFD85D4EC5BE5E4EF2C65F4EB2D257
:10555000604EB0CF614EE7CF624E5F81634E608197
:10556000644E6181654E6281664EE9CA674E638111
:10557000684E6481694EC0D86A4E65816B4E668103
:105580006C4E67816D4E68816E4E69816F4E6A8187
:10559000704EF2C2714ED2C2724E6B81734EE9C828
:1055A000744E6C81754E6D81764E6E81774E6F8133
:1055B000784E7081794E71817A4E72817B4E738103
:1055C0007C4E74817D4E75817E4EACC77F4E768158
:1055D000804E7781814E7881824E7981834E7A81A7
:1055E000844E7B81854E7C81864ECBC1874E7D81EA
:1055F000884EE8D3894EF9D58A4E7E818B4EC2CA39
:105600008C4EFEB68D4EA1D88E4EDAD38F4EF7BF9C
:10561000904E8081914EC6D4924EA5BB934EC1D878
:10562000944EE5CE954EAEBE964E8181974E8281C8
:10563000984EA8D8994E83819A4EC7D19B4EA9D037
:105640009C4E84819D4E85819E4E86819F4EBDD805
:10565000A04EEFD9A14EF6CDA24EBABFA34E878180
:10566000A44EBBBDA54EA5BAA64EE0D2A74EFAB237
:10567000A84EE0BAA94EB6C4AA4E8881AB4EEDCF73
:10568000AC4EA9BEAD4EA4CDAE4EC1C1AF4E8981C8
:10569000B04E8A81B14E8B81B24ED7C7B34EF1D98D
:1056A000B44E8C81B54EF4D9B64E8D81B74E8E81F5
:1056B000B84E8F81B94E9081BA4ECBC8BB4EE9D857
:1056C000BC4E9181BD4E9281BE4E9381BF4EDAD2C7
:1056D000C04EB2CAC14ECAC8C24EECD8C34EEAD8F8
:1056E000C44EC6D8C54EF6BDC64ECDC6C74EF0B3E5
:1056F000C84E9481C94EEBD8CA4EF1BDCB4EE9BD20
:10570000CC4E9581CD4ED4C8CE4ED3B4CF4E9681DB
:10571000D04E9781D14ED8C2D24E9881D34ED6B2B8
:10572000D44ED0D7D54ECBCAD64EFBCBD74ECCD548
:10573000D84EB6B8D94EC9CFDA4E9981DB4E9A8190
:10574000DC4E9B81DD4EDAD9DE4EF0D8DF4EAAC7A3
:10575000E04E9C81E14EEED8E24E9D81E34EFAB4DC
:10576000E44EEEC1E54ED4D2E64E9E81E74E9F81D7
:10577000E84EEDD8E94EA081EA4EC7D2EB4EEFD805
:10578000EC4EC7C3ED4EA181EE4EA281EF4EA38138
:10579000F04EF6D1F14EA481F24ED9D6F34EF2D8A6
:1057A000F44EA581F54EF5D8F64EFEBCF74EDBBCA7
:1057B000F84EA681F94EA781FA4EA881FB4ECEC8BD
:1057C000FC4EA981FD4EDDB7FE4EAA81FF4EC2B749
:1057D000004FAB81014FF3C6024FAC81034FAD8147
:1057E000044FAE81054FAF81064FB081074FB181A5
:1057F000084FB281094FF8D80A4FC1D20B4FB3817D
:105800000C4FB4810D4FE9CE0E4FBFBC0F4FFCB70C
:10581000104FA5B7114FDDD0124FB581134FB68190
:10582000144FB781154FB881164FB981174FDAD68B
:10583000184FC5D3194FEFBB1A4FE1BB1B4FF1D81F
:105840001C4FBA811D4FBB811E4FA1C91F4FB0CE47
:10585000204FABB4214FBC81224FF3D8234FBD81E1
:10586000244FCBC9254FF6D8264FD7C2274FF7D89C
:10587000284FBE81294FBF812A4FB1CE2B4FF9D877
:105880002C4FC0812D4FC1812E4FC2812F4FAEB200
:10589000304FC0B9314FC381324FA3D9334FC48188
:1058A000344FE9B0354FC581364FE6C1374FC68119
:1058B000384FECC9394FC7813A4FC5CB3B4FC881F0
:1058C0003C4FC6CB3D4FA4D93E4FC9813F4FCA8103
:1058D000404FCB81414FCC81424FCD81434FE8B502
:1058E000444FCE81454FCF81464FABB5474FD08116
:1058F000484FD181494FD2814A4FD3814B4FD481F8
:105900004C4FD5814D4FBBCE4E4FCDB54F4FA1D74C
:10591000504FF4D7514FD3D3524FD681534FE5CC8C
:10592000544FD781554FCEBA564FD881574FA2D931
:10593000584FDCD9594FE0D35A4FFDD85B4FF0B7E1
:105940005C4FF7D75D4FFED85E4FFAD85F4FA1D9B5
:10595000604FE3C4614FD981624FDA81634FB6D3A0
:10596000644FF4D8654FDDD9664FDB81674FFBD8B4
:10597000684FDC81694FE5C56A4FDD816B4FDE8181
:105980006C4FD0C06D4FDF816E4FE0816F4FF0D113
:10599000704FDBB0714FE181724FE281734FD1BC28
:1059A000744FA6D9754FE381764FA5D9774FE4811F
:1059B000784FE581794FE6817A4FE7817B4FACD90B
:1059C0007C4FAED97D4FE8817E4FABD97F4FB9CAAE
:1059D000804FE981814FEA81824FEB81834FA9D9C2
:1059E000844FB6D6854FEC81864FED81874FEE818F
:1059F000884FDEB3894FA8D98A4FEF818B4FFDC006
:105A00008C4FF0818D4FCCCA8E4FF1818F4FAAD928
:105A1000904FF281914FA7D9924FF381934FF48128
:105A2000944FB0D9954FF581964FF681974FB1B607
:105A3000984FF781994FF8819A4FF9819B4FA9B9F7
:105A40009C4FFA819D4FC0D29E4FFB819F4FFC819E
:105A5000A04FC0CFA14FFD81A24FFE81A34FC2C274
:105A6000A44F4082A54FC4BDA64FECD5A74FE0B2CE
:105A7000A84FC8C7A94FEBBFAA4FADD9AB4F4182C2
:105A8000AC4FAFD9AD4F4282AE4FEACEAF4FEEBA78
:105A9000B04F4382B14F4482B24F4582B34F4682EA
:105AA000B44F4782B54FD6C7B64F4882B74F4982E9
:105AB000B84F4A82B94F4B82BA4F4C82BB4F4D828E
:105AC000BC4F4E82BD4F4F82BE4F5082BF4FE3B19D
:105AD000C04F5182C14F5282C24F5382C34FD9B47B
