:020000040800F2
:10000000180400204901000855060008B502000840
:100010005106000891010008BD080008000000001A
:100020000000000000000000000000006D07000854
:100030009501000800000000570600085908000854
:100040006301000863010008630100086301000800
:1000500063010008630100086301000863010008F0
:1000600063010008630100086301000863010008E0
:1000700063010008630100086301000863010008D0
:1000800063010008630100086301000863010008C0
:1000900063010008630100086301000863010008B0
:1000A00063010008630100086301000863010008A0
:1000B0006301000863010008630100086301000890
:1000C0006301000863010008630100086301000880
:1000D0006301000863010008630100086301000870
:1000E0006301000863010008630100086301000860
:1000F0006301000863010008630100086301000850
:10010000630100086301000863010008630100083F
:10011000630100086301000863010008630100082F
:10012000630100086301000863010008630100081F
:10013000DFF810D000F01AF800480047E108000886
:10014000AFF30080180400200648804706480047A7
:10015000FEE7FEE7FEE7FEE7FEE7FEE7FEE7FEE777
:10016000FEE7FEE75D08000831010008064C074D78
:1001700006E0E06840F0010394E807009847103477
:10018000AC42F6D3FFF7D8FF180900083809000879
:1001900000BFFEE770472DE9F0410246002500262A
:1001A000002000230024002791F803C00CF00F0565
:1001B00091F803C00CF0100CBCF1000F03D091F8C3
:1001C00002C04CEA050591F800C0BCF1000F31D027
:1001D000146800202BE04FF0010C0CFA00F3B1F88A
:1001E00000C00CEA03069E4220D183004FF00F0CA2
:1001F0000CFA03F7BC4305FA03FC4CEA040491F83B
:1002000003C0BCF1280F06D14FF0010C0CFA00FC22
:10021000C2F814C00AE091F803C0BCF1480F05D140
:100220004FF0010C0CFA00FCC2F810C0401C08286A
:10023000D1D31460B1F800C0BCF1FF0F34DD5468B5
:1002400000202EE000F1080C4FF0010808FA0CF332
:10025000B1F800C00CEA03069E4221D183004FF0A2
:100260000F0C0CFA03F7BC4305FA03FC4CEA040438
:1002700091F803C0BCF1280F05D100F1080C08FA71
:100280000CF8C2F8148091F803C0BCF1480F07D1F4
:1002900000F1080C4FF0010808FA0CF8C2F81080C1
:1002A000401C0828CED35460BDE8F08141617047FE
:1002B0000161704700BFFEE721B1028842F480620D
:1002C000028004E002884FF6FF331A400280704734
:1002D00021B1028842F00102028004E002884FF658
:1002E000FE731A40028070471FB50121480500F0D7
:1002F000B3F97020ADF808000020ADF804004BF60B
:10030000FF70ADF80600094800904FF48040ADF84A
:100310000C000011ADF80A006946054800F0F4F839
:1003200001210348FFF7D4FF1FBD0000A086010094
:100330000054004010B500F08FF8FFF7D5FF10BD56
:1003400070B5044600250121234800F0A7F800BF3E
:100350002249214800F0BAF80028F9D0A0211E480F
:1003600000F04CF900BF1D49491C1B4800F0AEF8D5
:100370000028F8D02146184800F040F900BF17497E
:100380003F31154800F0A2F80128F8D001211248A9
:1003900000F084F8A121104800F030F900BF0F49A7
:1003A000491C0D4800F092F80028F8D00A4800F0E7
:1003B00021F9054600BF09493F31074800F086F89A
:1003C0000128F8D000210448FFF776FF01210248F8
:1003D00000F070F8284670BD005400400100001085
:1003E00070B504460D460121194800F057F800BFCA
:1003F0001849174800F06AF80028F9D0A0211448DD
:1004000000F0FCF800BF1349491C114800F05EF8E9
:100410000028F8D021460E4800F0F0F800BF0D4942
:100420007F310B4800F052F80128F8D029460848DF
:1004300000F0E4F800BF07497F31054800F046F8B6
:100440000128F8D00121024800F034F870BD000006
:10045000005400400100001008B50121082000F000
:100460000BF94020ADF800001C208DF8030003209C
:100470008DF8020069460848FFF78DFE8020ADF830
:1004800000001C208DF8030003208DF8020069464F
:100490000148FFF780FE08BD000C014021B1028831
:1004A00042F48072028004E002884FF6FF631A4033
:1004B0000280704721B1028842F40072028004E099
:1004C00002884FF6FF531A40028070470CB502466F
:1004D000002000230193009300920B0F019321F061
:1004E0007F41019B1BB1009B1433009303E0090C77
:1004F000009B18330093009B1B680B400BB101203D
:1005000000E000200CBD00002DE9F04385B004465A
:100510000D460026B1460427DFF8CC80A6884FF6AA
:10052000C0700640684600F0B7F8DDF808802F4834
:10053000B8FBF0F01FFA80F946EA0906A680208889
:100540004FF6FE710840208000262949286888421D
:100550000CD828684000B8FBF0F087B2042F00DA0E
:1005600004273E4309F10100208427E0E8884BF688
:10057000FF71884206D1286800EB4000B8FBF0F01C
:1005800087B209E0286800EBC00101EB0010B8FB5E
:10059000F0F087B247F48047C7F30B0008B947F083
:1005A000010747F4004006434FF4967009FB00F042
:1005B0004FF47A7190FBF1F0401C2084A6832088D0
:1005C00040F00100208026884FF6F5300640A888CC
:1005D0006989084306432680A88929890843208120
:1005E00005B0BDE8F083000000127A0040420F0021
:1005F000A08601000146088AC0B270470182704798
:1006000008B50121082000F037F810208DF803000C
:1006100003208DF802000120ADF8000069460B4868
:10062000FFF7B9FD2020ADF8000069460748FFF745
:10063000B2FD0220ADF8000069460448FFF7ABFDAB
:1006400023210248FFF734FE08BD0000000C0140E2
:1006500000BFFEE77047704729B1064AD2690243DE
:10066000044BDA6104E0034AD2698243014BDA6148
:10067000704700000010024029B1064A9269024307
:10068000044B9A6104E0034A92698243014B9A61E8
:10069000704700000010024030B500210022002405
:1006A00000232D4D6D6805F00C0121B1042905D002
:1006B000082923D105E0294D056022E0274D05607A
:1006C0001FE0254D6D6805F47012234D6D6805F42B
:1006D0008034022505EB92421CB9214D554305603B
:1006E0000BE01D4D6D6805F400351DB11C4D5543E3
:1006F000056002E0194D5543056002E0174D0560A5
:1007000000BF00BF144D6D6805F0F0010909154DDB
:100710006B5C0568DD4045600F4D6D6805F4E06178
:10072000090A104D6B5C4568DD4085600A4D6D68B7
:1007300005F46051C90A0B4D6B5C4568DD40C5602E
:10074000054D6D6805F44041890B074D6B5CC5682C
:10075000B5FBF3F5056130BD0010024000127A00D0
:1007600000093D000000002010000020704710B577
:1007700000F002F810BD00000CB5002001900090C0
:100780003348006840F480303149086000BF304889
:10079000006800F4003000900198401C019000981F
:1007A00018B90198B0F5A06FF1D12948006800F49C
:1007B000003010B10120009001E00020009000986E
:1007C000012843D12348006840F010002149086007
:1007D0000846006820F0030008600846006840F002
:1007E000020008601A484068194948600846406895
:1007F00048600846406840F48060486008464068A9
:1008000020F47C1048600846406840F4E8104860D6
:100810000846006840F08070086000BF0C4800681F
:1008200000F000700028F9D00948406820F003006B
:10083000074948600846406840F00200486000BF31
:100840000348406800F00C000828F9D10CBD0000F6
:1008500000100240002002407047000010B513480D
:10086000006840F0010011490860084640681049DE
:1008700008400E494860084600680E4908400B4988
:1008800008600846006820F4802008600846406838
:1008900020F4FE0048604FF41F008860FFF767FFF8
:1008A0004FF000600449086010BD000000100240D5
:1008B0000000FFF8FFFFF6FE08ED00E000BFFEE7D6
:1008C00002E008C8121F08C1002AFAD17047704719
:1008D000002001E001C1121F002AFBD17047000077
:1008E0000024FFF78DFEFFF725FD12210020FFF702
:1008F00077FD0020FFF724FD0446122C04D10121CE
:100900000448FFF7D3FC03E020210248FFF7CEFCA8
:1009100000BFFEE7000C014038090008000000207D
:1009200014000000C00800084C0900081400002052
:1009300004040000D00800080000000001020304C5
:0C0940000102030406070809020406086F
:0400000508000131BD
:00000001FF
