:020000040800F2
:100000001804002049010008D90600081706000856
:10001000D506000833020008A90B00080000000004
:100020000000000000000000000000003909000886
:10003000370200080000000001070008250A000838
:100040006301000863010008630100086301000800
:1000500063010008630100086301000863010008F0
:1000600063010008630100086301000863010008E0
:1000700063010008630100086301000863010008D0
:1000800063010008630100086301000863010008C0
:1000900063010008630100086301000863010008B0
:1000A00063010008630100086301000863010008A0
:1000B0006301000863010008630100086301000890
:1000C0006301000863010008630100086301000880
:1000D0006301000863010008630100086301000870
:1000E0006301000863010008630100086301000860
:1000F0006301000863010008630100086301000850
:10010000630100086301000863010008630100083F
:10011000630100086301000863010008630100082F
:10012000630100086301000863010008630100081F
:10013000DFF810D000F04CF80048004765100008C8
:10014000AFF30080180400200648804706480047A7
:10015000FEE7FEE7FEE7FEE7FEE7FEE7FEE7FEE777
:10016000FEE7FEE7290A0008310100082DE9F05FEB
:100170000546002092469B46884606468146402416
:100180001BE0284641464746224600F042F85346C7
:100190005A46C01A914110D311461846224600F023
:1001A00029F82D1A67EB01084F462246012000214D
:1001B00000F020F817EB00094E41201EA4F10104C5
:1001C000DFDC484631462A464346BDE8F09F000042
:1001D000064C074D06E0E06840F0010394E8070094
:1001E00098471034AC42F6D3FFF7A6FFF41200088C
:1001F00014130008202A04DB203A00FA02F1002040
:1002000070479140C2F1200320FA03F31943904054
:100210007047202A04DB203A21FA02F000217047BF
:1002200021FA02F3D040C2F120029140084319465E
:10023000704700BFFEE770472DE9F04304464FF6D4
:10024000FF763746B046B1460425E443E6B2C4F330
:100250000727C4F307484FEA1469E80200F030F9B1
:100260000546042D3FD121482149886021488860F6
:100270000846006940F010000861FF2E05D01E48B6
:100280000680E80200F01CF90546042D08D1FF2F76
:1002900006D01948801C0780E80200F011F90546D5
:1002A000042D0AD1B8F1FF0F07D01348001DA0F8A4
:1002B0000080E80200F004F90546042D0AD1B9F1E6
:1002C000FF0F07D00C48801DA0F80090E80200F056
:1002D000F7F80546052D06D00548006941F6EF718F
:1002E0000840034908612846BDE8F08323016745BB
:1002F00000200240AB89EFCD08F8FF1F30B5A525DF
:10030000042400F069F800B100254FF4302000F01B
:10031000D7F80446042C3AD11E481F4988601F486C
:1003200088600846006940F02000086108460069BE
:1003300040F0400008614FF4302000F0C1F804465E
:10034000042C1BD11448006941F6DF7108401249A2
:1003500008610846006940F01000086110480580F7
:10036000E00200F0ADF80446052C10D00A48006900
:1003700041F6EF7108400849086108E0052C06D0F5
:100380000548006941F6EF710840034908612046BD
:1003900030BD00002301674500200240AB89EFCD4E
:1003A00000F8FF1F04200B49C96801F0010109B1E1
:1003B00001200EE00749C96801F0040109B10220DB
:1003C00007E00449C96801F0100109B1032000E009
:1003D000042070470020024000200449C96901F050
:1003E000020109B1012000E0002070470020024016
:1003F0000148006A704700000020024030B5054601
:1004000004244FF4302000F05BF80446042C41D162
:10041000214822498860224888600846006940F0E7
:10042000200008610846006940F0400008614FF470
:10043000302000F045F80446042C22D1174800690A
:1004400041F6DF710840154908610846006940F02F
:10045000100008611DB100201249088002E0A520AB
:10046000104908804FF4302000F02AF80446052C8B
:1004700010D00A48006941F6EF7108400749086149
:1004800008E0052C06D00548006941F6DF710840F8
:1004900002490861204630BD230167450020024023
:1004A000AB89EFCD00F8FF1F0248034948600348BD
:1004B000486070472301674500200240AB89EFCDBB
:1004C00000B502460423FFF76DFF034603E0FFF784
:1004D00069FF0346521E012B01D1002AF7D102B950
:1004E0000523184600BD2DE9F041024600250026EF
:1004F000002000230024002791F803C00CF00F0512
:1005000091F803C00CF0100CBCF1000F03D091F86F
:1005100002C04CEA050591F800C0BCF1000F31D0D3
:10052000146800202BE04FF0010C0CFA00F3B1F836
:1005300000C00CEA03069E4220D183004FF00F0C4E
:100540000CFA03F7BC4305FA03FC4CEA040491F8E7
:1005500003C0BCF1280F06D14FF0010C0CFA00FCCF
:10056000C2F814C00AE091F803C0BCF1480F05D1ED
:100570004FF0010C0CFA00FCC2F810C0401C082817
:10058000D1D31460B1F800C0BCF1FF0F34DD546862
:1005900000202EE000F1080C4FF0010808FA0CF3DF
:1005A000B1F800C00CEA03069E4221D183004FF04F
:1005B0000F0C0CFA03F7BC4305FA03FC4CEA0404E5
:1005C00091F803C0BCF1280F05D100F1080C08FA1E
:1005D0000CF8C2F8148091F803C0BCF1480F07D1A1
:1005E00000F1080C4FF0010808FA0CF8C2F810806E
:1005F000401C0828CED35460BDE8F081024600209C
:1006000093680B400BB1012000E00020704741616E
:1006100070470161704700BFFEE7000008B5012187
:10062000042000F06FF80121102000F06BF8012089
:10063000ADF8000004208DF8030069460548FFF777
:1006400052FF4FF40050ADF8000069460248FFF732
:100650004AFF08BD000801400010014070B5044683
:100660000D4629462046FFF7C9FF012808D100BFE3
:1006700029462046FFF7C2FF0128F9D0012070BDAE
:100680000020FCE708B50121082000F03BF810200D
:100690008DF8030003208DF802000120ADF8000062
:1006A00069460B48FFF71FFF2020ADF800006946A0
:1006B0000748FFF718FF0220ADF80000694604481C
:1006C000FFF711FF23210248FFF7A3FF08BD000039
:1006D000000C014000BFFEE77047000006480068BC
:1006E00000F4E06005490843001D03490860BFF3BA
:1006F0004F8F00BFFEE700000CED00E00000FA05A0
:100700007047000029B1064A92690243044B9A617E
:1007100004E0034A92698243014B9A6170470000EA
:100720000010024030B500210022002400232D4D8E
:100730006D6805F00C0121B1042905D0082923D1E9
:1007400005E0294D056022E0274D05601FE0254D9D
:100750006D6805F47012234D6D6805F48034022530
:1007600005EB92421CB9214D554305600BE01D4D30
:100770006D6805F400351DB11C4D5543056002E060
:10078000194D5543056002E0174D056000BF00BFDD
:10079000144D6D6805F0F0010909154D6B5C056895
:1007A000DD4045600F4D6D6805F4E061090A104DAC
:1007B0006B5C4568DD4085600A4D6D6805F46051ED
:1007C000C90A0B4D6B5C4568DD40C560054D6D6821
:1007D00005F44041890B074D6B5CC568B5FBF3F52B
:1007E000056130BD0010024000127A0000093D0092
:1007F000000000201000002010B5FFF7EDFD0128DB
:1008000011D110A000F09CFAFFF74EFE19A000F0E5
:1008100097FA25A000F094FA30A000F091FA002099
:10082000FFF7ECFD0DE037A000F08AFAFFF73CFE81
:100830000120FFF7E3FD3E4800F082FA3D4800F05A
:100840007FFA10BDD0BEC6ACB4A6D3DAB6C1B1A390
:10085000BBA4D7B4CCACA3ACBCB4BDABBDF8D0D0BA
:10086000BDE2B3FDB6C1B1A3BBA4D7B4CCAC2E2EB0
:100870002E0D0A00BCB4BDABBDE2B3FDB6C1B1A341
:10088000BBA4A3ACBDE2B3FDB6C1B1A3BBA4BBE1A5
:10089000B0D1464C415348B5C4CBF9D3D0C4DAC823
:1008A000DDC7E5BFD50D0A00D3C9D3DABDE2B3FD7C
:1008B000BAF3B3CCD0F2B1BBC7E5BFD5A3ACCBF98B
:1008C000D2D4BAF3C3E6B2BBBBE1D3D0C8CEBACE62
:1008D000CCE1CABECAE4B3F60D0A0000B5C8B4FD47
:1008E0003230C3EBBAF3BCB4BFC9B8F8D0BEC6ACA3
:1008F000CFC2D4D8D0C2B5C4B3CCD0F22E2E2E0DD8
:100900000A0000000D0AD0BEC6ACB4A6D3DACEDE13
:10091000B6C1B1A3BBA4D7B4CCACA3ACBCB4BDAB83
:10092000BDF8D0D0B6C1B1A3BBA42E2E2E0D0A00A7
:100930005C120008B0120008704710B500F002F811
:1009400010BD00000CB500200190009033480068F5
:1009500040F480303149086000BF3048006800F43E
:10096000003000900198401C0190009818B901983F
:10097000B0F5A06FF1D12948006800F4003010B143
:100980000120009001E0002000900098012843D150
:100990002348006840F010002149086008460068BC
:1009A00020F0030008600846006840F0020008607C
:1009B0001A48406819494860084640684860084637
:1009C000406840F4806048600846406820F47C102D
:1009D00048600846406840F4E810486008460068EF
:1009E00040F08070086000BF0C48006800F00070A4
:1009F0000028F9D00948406820F003000749486002
:100A00000846406840F00200486000BF0348406864
:100A100000F00C000828F9D10CBD000000100240C5
:100A2000002002407047000010B51348006840F0F5
:100A300001001149086008464068104908400E4905
:100A40004860084600680E4908400B49086008469F
:100A5000006820F4802008600846406820F4FE000A
:100A600048604FF41F008860FFF767FF4FF0006099
:100A70000449086010BD0000001002400000FFF8AB
:100A8000FFFFF6FE08ED00E021B1828942F400523A
:100A9000828104E082894DF6FF731A40828170479B
:100AA00010B500F0A3F800F081F810BD0246002058
:100AB000B1F5007F00D100BF13880B400BB10120BE
:100AC00000E00020704700002DE9F04786B00546A1
:100AD0000E460024A24600BFA1460027B08900B1FF
:100AE00000BF2F462C8A4CF6FF700440F088044368
:100AF0002C82AC894EF6F3100440B088318908434B
:100B0000718908430443AC81AC8A4FF6FF4004402E
:100B1000B0890443AC8201A8FFF704FE1F48874256
:100B200002D1DDF810A001E0DDF80CA0A88900F4E6
:100B3000004040B10AEBCA0000EB0A1031684900DE
:100B4000B0FBF1F807E00AEBCA0000EB0A103168CD
:100B50008900B0FBF1F86420B8FBF0F00401200933
:100B6000642101FB1089A88900F4004040B13220C3
:100B700000EBC900B0FBF1F000F00700044308E00F
:100B8000322000EB09106421B0FBF1F000F00F00FF
:100B900004432C8106B0BDE8F08700000038014016
:100BA000C1F308028280704700BFFEE71FB5012134
:100BB0008803FFF7A7FD4FF4E13000900020ADF867
:100BC0000C000C20ADF80A000020ADF80800ADF8CC
:100BD0000600ADF8040069460348FFF775FF0121E0
:100BE0000148FFF751FF1FBD0038014008B5012142
:100BF0000420FFF787FD4FF40070ADF800001820C7
:100C00008DF8030003208DF8020069460648FFF7BF
:100C10006AFC04208DF803000002ADF8000069466C
:100C20000148FFF760FC08BD00080140FFF7E0FB4A
:100C3000401C00280ED00FA000F082F8FFF734FC13
:100C4000FFF75CFB0020FFF7F7FA15A000F078F83B
:100C5000FFF744FD21A000F073F8FFF725FCFFF734
:100C60004DFB4FF0FF30FFF7E7FA27A000F068F8E0
:100C7000FFF734FD0D0AD0BEC6ACB4A6D3DAD0B4AB
:100C8000B1A3BBA4D7B4CCACA3ACBCB4BDABBDF8D2
:100C9000D0D0BDE2B3FDB1A3BBA42E2E2E0D0A0011
:100CA0000D0AD0BEC6ACD7D4B6AFB8B4CEBBBCD399
:100CB000D4D8D0C2C5E4D6C3A3ACB8B4CEBBBAF3C3
:100CC000D0BEC6ACBECDB4A6D3DACEDED0B4B1A30E
:100CD000BBA4D7B4CCAC0D0A000000000D0AD0BEF6
:100CE000C6ACB4A6D3DACEDED0B4B1A3BBA4D7B41D
:100CF000CCACA3ACBCB4BDABBDF8D0D0D0B4B1A328
:100D0000BBA42E2E2E0D0A000D0AD0BEC6ACD7D421
:100D1000B6AFB8B4CEBBBCD3D4D8D0C2C5E4D6C36A
:100D2000A3ACB8B4CEBBBAF3D0BEC6ACBECDB4A6ED
:100D3000D3DAD0B4B1A3BBA4D7B4CCAC0D0A0000B5
:100D40000FB4054B10B503A9044A029800F018F837
:100D500010BC5DF814FB00004110000814000020D6
:100D600002E008C8121F08C1002AFAD17047704774
:100D7000002001E001C1121F002AFBD170470000D2
:100D80002DE9FF4F8DB09B460F460446002606E036
:100D900025280BD05A460F999047641C761C207862
:100DA0000028F5D111B03046BDE8F08F0025A846E7
:100DB0000122984900E0054314F8013F203B02FA64
:100DC00003F00842F7D120782E2817D114F8010F2C
:100DD00045F004052A280ED06FF02F022078A0F1EC
:100DE000300109290AD808EB880102EB410100EB28
:100DF0000108641CF2E757F8048B641C20786C2807
:100E00000DD004DC4C2812D06A2811D104E07428DB
:100E10000DD07A280CD10AE045F4001507E061787E
:100E200045F48015814202D1641C05F58015641CCF
:100E30002078692844D008DC0028B3D0582867D02F
:100E400063280FD0642808D13AE0702865D0732851
:100E500012D075285AD078285AD05A460F99904700
:100E6000761CD5E017F8040B8DF8000000208DF8F3
:100E70000100E946012003E057F8049B4FF0FF30E2
:100E800069074FF0000501D40AE06D1C45450DDAF5
:100E90008542FADB19F805100029F6D106E06D1C31
:100EA0008542FCDB19F805100029F8D12E4404E036
:100EB00019F8010B5A460F9990476D1EF8D2A7E01A
:100EC0000A200021CDE90801C5F3025002280CD008
:100ED00001CFC117021E71F100020CDA0023D0EB22
:100EE000030063EB01012D2208E0FF1D27F0070737
:100EF000F7E80201EEE72A0504D52B228DF8282019
:100F000001223CE0EA073AD02022F7E70A2000E07D
:100F100010200021CDE9080107E01020002145F054
:100F20000405CDE908014FF00808C5F30250022876
:100F300010D001CF00214FF0000A2A0720D52278D7
:100F4000702A0DD0DDE908C38CF0100C5CEA030CAC
:100F50000CD015E0FF1D27F00707F7E80201EAE7CC
:100F600040228DF828204FF0010A0CE050EA0103DE
:100F700006D030238DF828308DF8292002229246A1
:100F80002278582A04D024A20DF120090B9209E0FE
:100F900026A2F9E7DDE90823FFF7E8F80B9B9B5C45
:100FA00009F8013D50EA0102F4D1ADEB090020300F
:100FB0000890680701D44FF001080899884503DDBF
:100FC0000898A8EB000000E000208046002506E01D
:100FD0000AA85A46405D0F9990476D1C761C5545EE
:100FE000F6DB04E030205A460F999047761CB8F1A2
:100FF0000001A8F10108F5DC05E019F8010B5A46DB
:101000000F999047761C0899481E08900029F4DC37
:10101000641CC4E6092801003031323334353637D8
:101020003839616263646566000000003031323334
:1010300034353637383941424344454600000000D4
:1010400070B504460D46E1B20548FFF7A9FD00BFA3
:1010500080210348FFF72AFD0028F9D0204670BD03
:1010600000380140FFF71CFDFFF70CFBFFF7D6FA35
:1010700001212E48FFF7CBFA20212C48FFF7C9FAAF
:1010800002212A48FFF7C5FA29A0FFF759FE31A02F
:10109000FFF756FEFFF7ACF9401C50B133A0FFF745
:1010A0004FFEFFF7A5F9044621463CA0FFF748FE96
:1010B00009E042A0FFF744FEFFF79AF904462146F3
:1010C00036A0FFF73DFEFFF787F9012803D148A0BE
:1010D000FFF736FE02E052A0FFF732FE012113486F
:1010E000FFF797FA20E001215A48FFF7B7FA0128E5
:1010F00009D10E480C30006880F020000B490C31FB
:101100000860FFF793FD4FF400515348FFF7A6FA2C
:10111000012809D105480C30006880F0020003491D
:101120000C310860FFF768FBDDE70000000C0140B0
:101130000D0A0A0ABBB6D3ADCAB9D3C3D2B0BBF04D
:10114000202053544D33322020BFAAB7A2B0E5A1CE
:10115000A30D0A00D5E2CAC7B6C1D0B4B1A3BBA4DF
:10116000B2E2CAD4CAB5D1E90D0A00000D0AC4BF63
:10117000C7B0D0BEC6ACB4A6D3DAD0B4B1A3BBA4BA
:10118000D7B4CCACA3ACB0B44B657931BCFCBDE2F8
:10119000B3FDB1A3BBA40D0A00000000D0B4B1A3FD
:1011A000BBA4BCC4B4E6C6F7B5C4D6B5A3BA5752FF
:1011B00050523D307825780D0A0000000D0AC4BF5A
:1011C000C7B0D0BEC6ACCEDE20D0B420B1A3BBA485
:1011D000A3ACB0B4204B65793120BCFCBFC9C9E8D1
:1011E000D6C3B3C920D0B420B1A3BBA40D0A00005C
:1011F0000D0AC4BFC7B0D0BEC6ACB4A6D3DAB6C160
:10120000B1A3BBA4D7B4CCACA3ACB0B44B6579321A
:10121000BCFCBDE2B3FDB1A3BBA40D0A00000000FD
:101220000D0AC4BFC7B0D0BEC6ACCEDE20B6C1204A
:10123000B1A3BBA4A3ACB0B4204B65793220BCFCF5
:10124000BFC9C9E8D6C3B3C920B6C120B1A3BBA4E6
:101250000D0A000000080140001001400D0AD0BE38
:10126000C6ACD2D1B1BBC9E8D6C3CEAAB6C1B1A370
:10127000BBA4A3ACC9CFB5E7B8B4CEBBBAF3C9FA27
:10128000D0A7A3A8B1D8D0EBD6D8D0C2B8F8BFAAFF
:10129000B7A2B0E5C9CFB5E7A3ACD6BBB0B4B8B47C
:1012A000CEBBBCFCCEDED0A7A3A90D0A0000000077
:1012B0000D0AB4A6D3DAB1A3BBA4D7B4CCACCFC2C9
:1012C000CEDEB7A8D5FDB3A3CFC2D4D8D0C2B3CC9D
:1012D000D0F2A3ACB1D8D0EBD2AACFC8BDE2B3FD57
:1012E000B1A3BBA4D7B4CCACD4D9CFC2D4D80D0A47
:1012F0000000000014130008000000201800000087
:10130000600D00082C1300081800002000040000E5
:10131000700D000800000000010203040102030434
:0C1320000607080902040608000000008F
:0400000508000131BD
:00000001FF
