:020000040800F2
:100000001804002049010008790B00085104000879
:10001000750B000891010008DD0E000800000000CB
:10002000000000000000000000000000910C00082B
:1000300095010008000000007B0B00087D0D000802
:100040006301000863010008630100086301000800
:1000500063010008630100086301000863010008F0
:1000600063010008630100086301000863010008E0
:1000700063010008630100086301000863010008D0
:1000800063010008630100086301000863010008C0
:1000900063010008630100086301000863010008B0
:1000A00063010008630100086301000863010008A0
:1000B0006301000863010008630100086301000890
:1000C0006301000863010008630100086301000880
:1000D0006301000863010008630100086301000870
:1000E0006301000863010008630100086301000860
:1000F0006301000863010008630100086301000850
:10010000630100086301000863010008630100083F
:10011000630100086301000863010008630100082F
:10012000630100086301000863010008630100081F
:10013000DFF810D000F01AF800480047FF0F000861
:10014000AFF30080180400200648804706480047A7
:10015000FEE7FEE7FEE7FEE7FEE7FEE7FEE7FEE777
:10016000FEE7FEE7810D000831010008064C074D4F
:1001700006E0E06840F0010394E807009847103477
:10018000AC42F6D3FFF7D8FF341000085410000833
:1001900000BFFEE7704700B59DB00121080200F0E6
:1001A000EDFC4FF080501C90002017901690199095
:1001B0001A901B90032018904FF08050159000204B
:1001C00010900F9012901390149001201190002025
:1001D00005900090049001904FF480400B90102007
:1001E00003900820029016A80D9000200A90089015
:1001F00006904FF48060079000200C904FF48050E0
:1002000009900FA80E90684600F020F80121002008
:1002100000F002F81DB000BD51B18200A2F1C04251
:10022000126842F001038200A2F1C042136009E0AB
:100230008200A2F1C0421268034B1A408300A3F16E
:10024000C0431A6070470000FEFF0F00D0E90112A2
:100250001143C26811430269114342691143826923
:100260001143C2691143026A1143426A1143826A0F
:100270001143C26A1143026B114302689200A2F15A
:10028000C0421160816808290BD101688900A1F181
:10029000C041096841F0400201688900A1F1C041F4
:1002A0000A60416B0968426B526841EA0211426B75
:1002B000926841EA0221426B928941EA0241426B13
:1002C000128A41EA0251426B127D41EA0261426B9D
:1002D000926911430268521C9200A2F1C04211605F
:1002E000C16AB1F5804F1BD1816B0968826B52687E
:1002F00041EA0211826B926841EA0221826B128A02
:1003000041EA0251826B127D41EA0261826B92697D
:10031000114302689200A2F1C042C2F8041107E042
:100320006FF0704201688900A1F1C041C1F8042159
:1003300070472DE9F04102460025002600200023E9
:100340000024002791F803C00CF00F0591F803C0BA
:100350000CF0100CBCF1000F03D091F802C04CEA75
:10036000050591F800C0BCF1000F31D014680020E1
:100370002BE04FF0010C0CFA00F3B1F800C00CEACE
:1003800003069E4220D183004FF00F0C0CFA03F7B6
:10039000BC4305FA03FC4CEA040491F803C0BCF129
:1003A000280F06D14FF0010C0CFA00FCC2F814C063
:1003B0000AE091F803C0BCF1480F05D14FF0010CE1
:1003C0000CFA00FCC2F810C0401C0828D1D31460FD
:1003D000B1F800C0BCF1FF0F34DD546800202EE0FE
:1003E00000F1080C4FF0010808FA0CF3B1F800C056
:1003F0000CEA03069E4221D183004FF00F0C0CFA49
:1004000003F7BC4305FA03FC4CEA040491F803C06B
:10041000BCF1280F05D100F1080C08FA0CF8C2F85D
:10042000148091F803C0BCF1480F07D100F1080C0B
:100430004FF0010808FA0CF8C2F81080401C082898
:10044000CED35460BDE8F0814161704701617047CF
:1004500000BFFEE710B504462CB14FF480510548AB
:10046000FFF7F2FF04E04FF480510248FFF7EEFF80
:1004700010BD00000014014001B502E00098401ECC
:10048000009000980028F9D108BD000010B50024A4
:1004900000F01AFA044649F2413084427ED1CF205E
:1004A00000F064FA002000F065FA812000F062FAA2
:1004B000302000F05FFAED2000F058FA642000F0E0
:1004C00059FA032000F056FA122000F053FA812066
:1004D00000F050FAE82000F049FA852000F04AFACE
:1004E000102000F047FA782000F044FACB2000F00A
:1004F0003DFA392000F03EFA2C2000F03BFA0020B3
:1005000000F038FA342000F035FA062000F032FA14
:10051000F72000F02BFA202000F02CFAEA2000F05F
:1005200025FA002000F026FA002000F023FAB1207E
:1005300000F01CFA002000F01DFA1B2000F01AFA4F
:10054000B62000F013FA0A2000F014FAA22000F0FE
:1005500011FAC02000F00AFA352000F00BFAC12091
:1005600000F004FA112000F005FAC52000F0FEF9B1
:10057000452000F0FFF9452000F0FCF9C72000F00D
:10058000F5F9A22000F0F6F9F22000F0EFF90020D2
:1005900000F0F0F9262000F0E9F900E096E00120F3
:1005A00000F0E8F9E02000F0E1F90F2000F0E2F9B6
:1005B000262000F0DFF9242000F0DCF90B2000F009
:1005C000D9F90E2000F0D6F9092000F0D3F9542013
:1005D00000F0D0F9A82000F0CDF9462000F0CAF9CB
:1005E0000C2000F0C7F9172000F0C4F9092000F032
:1005F000C1F90F2000F0BEF9072000F0BBF9002080
:1006000000F0B8F9E12000F0B1F9002000F0B2F9F3
:10061000192000F0AFF91B2000F0ACF9042000F025
:10062000A9F9102000F0A6F9072000F0A3F92A206C
:1006300000F0A0F9472000F09DF9392000F09AF968
:10064000032000F097F9062000F094F9062000F04E
:1006500091F9302000F08EF9382000F08BF90F204E
:1006600000F088F9362000F081F9C82000F082F906
:100670002A2000F07BF9002000F07CF9002000F037
:1006800079F9002000F076F9EF2000F073F92B20C3
:1006900000F06CF9002000F06DF9002000F06AF91C
:1006A000012000F067F93F2000F064F93A2000F0E3
:1006B0005DF9552000F05EF9112000F057F98148EE
:1006C000FFF7DAFE292000F051F9F9E048F2525024
:1006D0008442FAD1CF2000F049F9002000F04AF915
:1006E000C12000F047F9302000F044F9ED2000F07F
:1006F0003DF9642000F03EF9032000F03BF91220A0
:1007000000F038F9812000F035F9E82000F02EF9EA
:10071000852000F02FF9102000F02CF9782000F04F
:1007200029F9CB2000F022F9392000F023F92C2000
:1007300000F020F9002000F01DF9342000F01AF933
:10074000022000F017F9F72000F010F9202000F047
:1007500011F9EA2000F00AF9002000F00BF900205E
:1007600000F008F9C02000F001F9212000F002F9A2
:10077000C12000F0FBF8112000F0FCF8C52000F0CB
:10078000F5F82D2000F0F6F8332000F0F3F83620CD
:1007900000F0ECF8002000F0EDF83A2000F0E6F868
:1007A000552000F0E7F8B12000F0E0F8002000F05C
:1007B000E1F8172000F0DEF8B62000F0D7F80A20A4
:1007C00000F0D8F8A22000F0D5F8F62000F0CEF81E
:1007D000012000F0CFF8302000F0CCF8F22000F03B
:1007E000C5F8002000F0C6F8262000F0BFF8012070
:1007F00000F0C0F8E02000F0B9F8D02000F0BAF81E
:10080000002000F0B7F8022000F0B4F8072000F054
:10081000B1F80B2000F0AEF81A2000F0ABF8312050
:1008200000F0A8F8542000F0A5F8402000F0A2F84D
:10083000292000F09FF8122000F09CF8122000F010
:1008400099F8122000F096F8172000F093F8E120B4
:1008500000F08CF8D02000F08DF8002000F08AF82D
:10086000022000F087F8072000F084F8052000F04F
:1008700081F8252000F07EF82D2000F07BF8442040
:1008800000F078F8452000F075F81C2000F072F8B0
:10089000182000F06FF8162000F06CF81C2000F013
:1008A00069F81D2000F066F8112000F05FF8054897
:1008B000FFF7E2FD292000F059F82C2000F056F84F
:1008C00010BD0000FCBF020010B50024042000F0A1
:1008D0004DF800BF1748008800BF1648008800F098
:1008E0002BF804464FF6FF7000EA042400F024F8C9
:1008F000044348F25250844201D1204610BDD32017
:1009000000F034F800BF0B48008800BF0948008899
:1009100000F012F804464FF6FF7000EA042400F0DD
:100920000BF8044349F24130844201D12046E5E707
:100930000020E3E7000002600148008870470000E3
:100940000000026010B502210748FFF77DFD40F668
:10095000FF20FFF791FD02210348FFF777FD40F6E6
:10096000FF20FFF789FD10BD001801404FF0C04186
:10097000088070470149088070470000000002604D
:1009800010B500F00BF8FFF706FC0120FFF762FD41
:10099000FFF7D8FFFFF77AFD10BD000008B5012171
:1009A000602000F0FBF810208DF8030003208DF884
:1009B00002000220ADF8000069466C48FFF7B9FC60
:1009C0000420ADF8000069466848FFF7B2FC4FF418
:1009D0000050ADF8000069466548FFF7AAFC1020FA
:1009E000ADF8000069466148FFF7A3FC04208DF8CC
:1009F00003000820ADF8000069465C48FFF799FC49
:100A000010208DF8030003208DF802000220ADF8BD
:100A1000000069465548FFF78CFC4FF48050ADF854
:100A2000000069465248FFF784FC18208DF8030047
:100A300003208DF802008020ADF8000069464C4884
:100A4000FFF777FC1020ADF8000069464848FFF733
:100A500070FC2020ADF8000069464548FFF769FCAE
:100A60004FF40060ADF8000069464148FFF761FCB3
:100A70004FF48040ADF8000069463D48FFF759FC4F
:100A80004FF40040ADF8000069463948FFF751FCCB
:100A90000120ADF8000069463548FFF74AFC022006
:100AA000ADF8000069463248FFF743FC8020ADF8FE
:100AB000000069462D48FFF73CFC4FF48070ADF80C
:100AC000000069462948FFF734FC4FF40070ADF888
:100AD000000069462548FFF72CFC4FF48060ADF814
:100AE000000069462148FFF724FC4FF40060ADF890
:100AF000000069461D48FFF71CFC4FF48050ADF81C
:100B0000000069461948FFF714FC4FF40050ADF897
:100B1000000069461548FFF70CFC4FF48040ADF823
:100B2000000069461148FFF704FC4FF40040ADF89F
:100B3000000069460D48FFF7FCFB4FF48070ADF8EC
:100B4000000069460A48FFF7F4FB4FF40070ADF867
:100B5000000069460648FFF7ECFB4FF48060ADF8F3
:100B6000000069460248FFF7E4FB08BD0018014099
:100B70000014014000BFFEE77047704729B1064AE4
:100B800052690243044B5A6104E0034A52698243AA
:100B9000014B5A61704700000010024029B1064A1B
:100BA00092690243044B9A6104E0034A92698243CA
:100BB000014B9A61704700000010024030B50021DF
:100BC0000022002400232D4D6D6805F00C0121B199
:100BD000042905D0082923D105E0294D056022E02C
:100BE000274D05601FE0254D6D6805F47012234DFB
:100BF0006D6805F48034022505EB92421CB9214D45
:100C0000554305600BE01D4D6D6805F400351DB1C1
:100C10001C4D5543056002E0194D5543056002E047
:100C2000174D056000BF00BF144D6D6805F0F00161
:100C30000909154D6B5C0568DD4045600F4D6D6819
:100C400005F4E061090A104D6B5C4568DD40856084
:100C50000A4D6D6805F46051C90A0B4D6B5C45681F
:100C6000DD40C560054D6D6805F44041890B074DB9
:100C70006B5CC568B5FBF3F5056130BD0010024043
:100C800000127A0000093D00000000201000002042
:100C9000704710B500F002F810BD00000CB5002040
:100CA000019000903348006840F48030314908607A
:100CB00000BF3048006800F4003000900198401CEC
:100CC0000190009818B90198B0F5A06FF1D12948AA
:100CD000006800F4003010B10120009001E0002015
:100CE00000900098012843D12348006840F010008C
:100CF000214908600846006820F0030008600846A3
:100D0000006840F0020008601A48406819494860CD
:100D10000846406848600846406840F48060486083
:100D20000846406820F47C1048600846406840F45B
:100D3000E81048600846006840F08070086000BF16
:100D40000C48006800F000700028F9D0094840689D
:100D500020F00300074948600846406840F0020060
:100D6000486000BF0348406800F00C000828F9D133
:100D70000CBD00000010024000200240704700003F
:100D800010B51348006840F001001149086008469A
:100D90004068104908400E494860084600680E49FE
:100DA00008400B4908600846006820F4802008606D
:100DB0000846406820F4FE0048604FF41F00886039
:100DC000FFF767FF4FF000600449086010BD0000A6
:100DD000001002400000FFF8FFFFF6FE08ED00E003
:100DE00021B1828942F40052828104E082894DF669
:100DF000FF731A408281704710B500F091F800F03F
:100E00006FF810BD2DE9F04786B005460E46002468
:100E1000A24600BFA1460027B08900B100BF2F46FF
:100E20002C8A4CF6FF700440F08804432C82AC8975
:100E30004EF6F3100440B0883189084371890843A5
:100E40000443AC81AC8A4FF6FF400440B0890443B0
:100E5000AC8201A8FFF7B2FE1F48874202D1DDF83D
:100E600010A001E0DDF80CA0A88900F4004040B11A
:100E70000AEBCA0000EB0A1031684900B0FBF1F838
:100E800007E00AEBCA0000EB0A1031688900B0FBEA
:100E9000F1F86420B8FBF0F004012009642101FBA3
:100EA0001089A88900F4004040B1322000EBC9004D
:100EB000B0FBF1F000F00700044308E0322000EB43
:100EC00009106421B0FBF1F000F00F0004432C8105
:100ED00006B0BDE8F08700000038014000BFFEE723
:100EE0001FB501218803FFF759FE4FF4E130009050
:100EF0000020ADF80C000C20ADF80A000020ADF881
:100F00000800ADF80600ADF8040069460348FFF795
:100F100079FF01210148FFF763FF1FBD0038014041
:100F200008B501210420FFF739FE4FF40070ADF839
:100F3000000018208DF8030003208DF80200694698
:100F40000648FFF7F6F904208DF803000002ADF81B
:100F5000000069460148FFF7ECF908BD00080140B0
:100F600002E008C8121F08C1002AFAD17047704772
:100F7000002001E001C1121F002AFBD170472DE9BA
:100F8000F04704460D4616461F46DDF820904FF008
:100F900000082A20FFF7EAFC200AFFF7EBFCE0B28A
:100FA000FFF7E8FC3119C1F30720FFF7E3FC311923
:100FB000C8B2FFF7DFFC2B20FFF7D8FC280AFFF7A9
:100FC000D9FCE8B2FFF7D6FC7919C1F30720FFF787
:100FD000D1FC7919C8B2FFF7CDFC2C20FFF7C6FC75
:100FE00000BF06E04846FFF7C5FC08F101001FFA04
:100FF00080F806FB07F04045F4DCBDE8F08708B553
:1010000000BFFFF7BDFCFFF7F7FE4FF4FC6028239D
:1010100064223C2100900846FFF7B1FF4FF478406E
:1010200028236422962100903220FFF7A8FF00BFFA
:10103000FEE700005410000800000020140000002B
:10104000600F00086810000814000020040400006D
:10105000700F0008000000000102030401020304F5
:08106000060708090204060856
:0400000508000131BD
:00000001FF
