:020000040800F2
:1000000018040020490100080D030008B50200088B
:1000100009030008910100080B0800080000000017
:10002000000000000000000000000000D1040008F3
:100030009501000800000000BB030008BD05000892
:100040006301000863010008630100086301000800
:1000500063010008630100086301000863010008F0
:1000600063010008630100086301000863010008E0
:1000700063010008630100086301000863010008D0
:1000800063010008630100086301000863010008C0
:1000900063010008630100086301000863010008B0
:1000A00063010008630100086301000863010008A0
:1000B0006301000863010008630100086301000890
:1000C0006301000863010008630100086301000880
:1000D0006301000863010008630100086301000870
:1000E0006301000863010008630100086301000860
:1000F0006301000863010008630100086301000850
:10010000630100086301000863010008630100083F
:10011000630100082106000863010008630100086C
:10012000630100086301000863010008630100081F
:10013000DFF810D000F01AF800480047090900085D
:10014000AFF30080180400200648804706480047A7
:10015000FEE7FEE7FEE7FEE7FEE7FEE7FEE7FEE777
:10016000FEE7FEE7C105000831010008064C074D17
:1001700006E0E06840F0010394E807009847103477
:10018000AC42F6D3FFF7D8FFA80A0008C80A000857
:1001900000BFFEE770472DE9F0410246002500262A
:1001A000002000230024002791F803C00CF00F0565
:1001B00091F803C00CF0100CBCF1000F03D091F8C3
:1001C00002C04CEA050591F800C0BCF1000F31D027
:1001D000146800202BE04FF0010C0CFA00F3B1F88A
:1001E00000C00CEA03069E4220D183004FF00F0CA2
:1001F0000CFA03F7BC4305FA03FC4CEA040491F83B
:1002000003C0BCF1280F06D14FF0010C0CFA00FC22
:10021000C2F814C00AE091F803C0BCF1480F05D140
:100220004FF0010C0CFA00FCC2F810C0401C08286A
:10023000D1D31460B1F800C0BCF1FF0F34DD5468B5
:1002400000202EE000F1080C4FF0010808FA0CF332
:10025000B1F800C00CEA03069E4221D183004FF0A2
:100260000F0C0CFA03F7BC4305FA03FC4CEA040438
:1002700091F803C0BCF1280F05D100F1080C08FA71
:100280000CF8C2F8148091F803C0BCF1480F07D1F4
:1002900000F1080C4FF0010808FA0CF8C2F81080C1
:1002A000401C0828CED35460BDE8F08141617047FE
:1002B0000161704700BFFEE708B50121082000F08A
:1002C0008DF810208DF8030003208DF80200012026
:1002D000ADF8000069460B48FFF75DFF2020ADF840
:1002E000000069460748FFF756FF0220ADF80000FE
:1002F00069460448FFF74FFF23210248FFF7D8FF64
:1003000008BD0000000C014000BFFEE77047000080
:1003100070B5002100230F22C47804B3154C246863
:1003200004F4E064C4F5E064210AC1F10403CA40A6
:10033000447804FA03F184781440214309010E4CF7
:100340000678A155047804F01F050124AC40057817
:100350006D11AD0005F1E025C5F8004109E0047814
:1003600004F01F050124AC40044D0678761145F8D1
:10037000264070BD0CED00E000E400E080E100E00C
:1003800002490143024A1160704700000000FA056B
:100390000CED00E008B54FF4C060FFF7F1FF352029
:1003A0008DF8000001208DF803008DF801008DF814
:1003B00002006846FFF7ACFF08BD704729B1064A46
:1003C000D2690243044BDA6104E0034AD2698243F2
:1003D000014BDA61704700000010024029B1064A63
:1003E00092690243044B9A6104E0034A9269824392
:1003F000014B9A61704700000010024030B50021A7
:100400000022002400232D4D6D6805F00C0121B160
:10041000042905D0082923D105E0294D056022E0F3
:10042000274D05601FE0254D6D6805F47012234DC2
:100430006D6805F48034022505EB92421CB9214D0C
:10044000554305600BE01D4D6D6805F400351DB189
:100450001C4D5543056002E0194D5543056002E00F
:10046000174D056000BF00BF144D6D6805F0F00129
:100470000909154D6B5C0568DD4045600F4D6D68E1
:1004800005F4E061090A104D6B5C4568DD4085604C
:100490000A4D6D6805F46051C90A0B4D6B5C4568E7
:1004A000DD40C560054D6D6805F44041890B074D81
:1004B0006B5CC568B5FBF3F5056130BD001002400B
:1004C00000127A0000093D0000000020100000200A
:1004D000704710B500F002F810BD00000CB5002008
:1004E000019000903348006840F480303149086042
:1004F00000BF3048006800F4003000900198401CB4
:100500000190009818B90198B0F5A06FF1D1294871
:10051000006800F4003010B10120009001E00020DC
:1005200000900098012843D12348006840F0100053
:10053000214908600846006820F00300086008466A
:10054000006840F0020008601A4840681949486095
:100550000846406848600846406840F4806048604B
:100560000846406820F47C1048600846406840F423
:10057000E81048600846006840F08070086000BFDE
:100580000C48006800F000700028F9D00948406865
:1005900020F00300074948600846406840F0020028
:1005A000486000BF0348406800F00C000828F9D1FB
:1005B0000CBD000000100240002002407047000007
:1005C00010B51348006840F0010011490860084662
:1005D0004068104908400E494860084600680E49C6
:1005E00008400B4908600846006820F48020086035
:1005F0000846406820F4FE0048604FF41F00886001
:10060000FFF767FF4FF000600449086010BD00006D
:10061000001002400000FFF8FFFFF6FE08ED00E0CA
:1006200010B540F22551054800F02BF8012804D1FF
:10063000024800F0E1F80249087010BD0050004087
:100640001400002021B1828942F40052828104E02A
:1006500082894DF6FF731A408281704710B500F011
:10066000FFF800F0D5F810BD02460020B1F5007F7C
:1006700000D100BF13880B400BB1012000E0002027
:10068000704770B50246002400230025002040F684
:100690006A16B14200D100BFC1F3421501F01F0339
:1006A000012606FA03F3012D02D19689334006E0B4
:1006B000022D02D1168A334001E0968A33400C1293
:1006C000012606FA04F41688344013B10CB1012057
:1006D00000E0002070BDF0B5034600240026002590
:1006E000002040F66A17B94200D100BF1846C1F396
:1006F000421401F01F06012707FA06F5012C01D16B
:100700000C3004E0022C01D1103000E014301AB19A
:1007100007682F43076002E00768AF430760F0BD3A
:100720002DE9F04786B005460E460024A24600BFDC
:10073000A1460027B08900B100BF2F462C8A4CF695
:10074000FF700440F08804432C82AC894EF6F3100D
:100750000440B08831890843718908430443AC815F
:10076000AC8A4FF6FF400440B0890443AC8201A834
:10077000FFF744FE1F48874202D1DDF810A001E0D8
:10078000DDF80CA0A88900F4004040B10AEBCA00D3
:1007900000EB0A1031684900B0FBF1F807E00AEB02
:1007A000CA0000EB0A1031688900B0FBF1F8642040
:1007B000B8FBF0F004012009642101FB1089A8892D
:1007C00000F4004040B1322000EBC900B0FBF1F072
:1007D00000F00700044308E0322000EB0910642118
:1007E000B0FBF1F000F00F0004432C8106B0BDE82F
:1007F000F08700000038014001468888C0F30800F7
:100800007047C1F308028280704700BFFEE7000016
:100810001FB501210805FFF7D1FD4FF4E13000902D
:100820000020ADF80C000C20ADF80A000020ADF857
:100830000800ADF80600ADF8040069460748FFF768
:100840006FFF01210548FFF7FDFEFFF7A3FD012221
:1008500040F225510148FFF73EFF1FBD0050004008
:1008600008B501213020FFF7B9FD4FF48050ADF8F5
:10087000000018208DF8030003208DF8020069465F
:100880000648FFF788FC04208DF80300ADF800004F
:1008900069460348FFF77FFC08BD000000100140D7
:1008A0000014014070B504460D4629462046FFF766
:1008B000A8FF00BF80212046FFF7D6FE0128F9D10E
:1008C00070BD70B505460C4604E021782846FFF758
:1008D000E9FF641C20780028F7D100BF402128469A
:1008E000FFF7C2FE0128F9D170BD02E008C8121F4F
:1008F00008C1002AFAD170477047002001E001C109
:10090000121F002AFBD1704710B5264CFFF7A6FE38
:10091000FFF7D2FC21462448FFF7D3FF00BF23484E
:100920000078312806D0322811D033281CD0342842
:100930002CD126E020211E48FFF7B8FC01211C48DD
:10094000FFF7B6FC02211A48FFF7B2FC1EE00121B6
:100950001748FFF7ABFC20211548FFF7A9FC02213F
:100960001348FFF7A5FC11E002211148FFF79EFC98
:1009700001210F48FFF79CFC20210D48FFF798FC50
:1009800004E023210A48FFF793FC00BF00BF07489B
:1009900000783028C3D107A10348FFF792FF002059
:1009A00010BD0000C00900080050004014000020E5
:1009B000000C0140CDCBB3F6B3C9B9A600000000CE
:1009C0000AB4CBCFEEC4BFCEAAC9CFCEBBBBFABF51
:1009D000D8D6C653544D333246313033BFAAB7A2AE
:1009E000B0E5B5C45247420A2D2D2D2D2D2D2D2DAC
:1009F0002D2D2D2D2D2D2D313AB5E3C1C1BAECB5DC
:100A0000C62D2D2D2D2D2D2D2D2D2D2D2D0A2D2DA0
:100A10002D2D2D2D2D2D2D2D2D2D2D2D2D323AB56C
:100A2000E3C1C1C2CCB5C62D2D2D2D2D2D2D2D2DC3
:100A30002D2D2D0A2D2D2D2D2D2D2D2D2D2D2D2D09
:100A40002D2D2D333AB5E3C1C1C0B6B5C62D2D2D20
:100A50002D2D2D2D2D2D2D2D2D0A2D2D2D2D2D2DE9
:100A60002D2D2D2D2D2D2D2D2D343AB9D8B1D5521A
:100A700047422D2D2D2D2D2D2D2D2D2D2D2D2D0A9A
:100A80002D2D2D2D2D2D2D2D2D2D2D2D2D2D2D3093
:100A90003ACDCBB3F6B3CCD0F22D2D2D2D2D2D2D5F
:100AA0002D2D2D2D2D0A0000C80A00080000002061
:100AB00018000000EA080008E00A000818000020FA
:100AC00000040000FA08000800000000010203040E
:100AD00001020304060708090204060800000000DA
:0400000508000131BD
:00000001FF
