:020000040800F2
:1000000018040020490100080D030008B50200088B
:100010000903000891010008C10700080000000062
:100020000000000000000000000000004D05000876
:100030009501000800000000E503000839060008EB
:10004000BD0800086301000863010008630100089F
:1000500063010008630100086301000863010008F0
:1000600063010008630100086301000863010008E0
:1000700063010008630100086301000863010008D0
:1000800063010008630100086301000863010008C0
:1000900063010008630100086301000863010008B0
:1000A00063010008630100086301000863010008A0
:1000B0006301000863010008630100086301000890
:1000C0006301000863010008630100086301000880
:1000D0006301000863010008630100086301000870
:1000E0006301000863010008630100086301000860
:1000F0006301000863010008630100086301000850
:10010000630100086301000863010008630100083F
:10011000630100086301000863010008630100082F
:10012000630100086301000863010008630100081F
:10013000DFF810D000F01AF800480047B9090008AD
:10014000AFF30080180400200648804706480047A7
:10015000FEE7FEE7FEE7FEE7FEE7FEE7FEE7FEE777
:10016000FEE7FEE73D06000831010008064C074D9A
:1001700006E0E06840F0010394E807009847103477
:10018000AC42F6D3FFF7D8FF740A0008940A0008BF
:1001900000BFFEE770472DE9F0410246002500262A
:1001A000002000230024002791F803C00CF00F0565
:1001B00091F803C00CF0100CBCF1000F03D091F8C3
:1001C00002C04CEA050591F800C0BCF1000F31D027
:1001D000146800202BE04FF0010C0CFA00F3B1F88A
:1001E00000C00CEA03069E4220D183004FF00F0CA2
:1001F0000CFA03F7BC4305FA03FC4CEA040491F83B
:1002000003C0BCF1280F06D14FF0010C0CFA00FC22
:10021000C2F814C00AE091F803C0BCF1480F05D140
:100220004FF0010C0CFA00FCC2F810C0401C08286A
:10023000D1D31460B1F800C0BCF1FF0F34DD5468B5
:1002400000202EE000F1080C4FF0010808FA0CF332
:10025000B1F800C00CEA03069E4221D183004FF0A2
:100260000F0C0CFA03F7BC4305FA03FC4CEA040438
:1002700091F803C0BCF1280F05D100F1080C08FA71
:100280000CF8C2F8148091F803C0BCF1480F07D1F4
:1002900000F1080C4FF0010808FA0CF8C2F81080C1
:1002A000401C0828CED35460BDE8F08141617047FE
:1002B0000161704700BFFEE708B50121082000F08A
:1002C000A3F810208DF8030003208DF80200012010
:1002D000ADF8000069460B48FFF75DFF2020ADF840
:1002E000000069460748FFF756FF0220ADF80000FE
:1002F00069460448FFF74FFF23210248FFF7D8FF64
:1003000008BD0000000C014000BFFEE7704708B5C3
:1003100025208DF8000001208DF803008DF80100E4
:1003200000208DF802004FF4C06000F051F86846DC
:1003300000F016F808BD08B500208DF80000012077
:100340008DF8030000208DF8010001208DF80200D7
:100350004FF4C06000F03CF8684600F001F808BDBA
:1003600070B5002100230F22C47804B3154C246813
:1003700004F4E064C4F5E064210AC1F10403CA4056
:10038000447804FA03F184781440214309010E4CA7
:100390000678A155047804F01F050124AC400578C7
:1003A0006D11AD0005F1E025C5F8004109E00478C4
:1003B00004F01F050124AC40044D0678761145F881
:1003C000264070BD0CED00E000E400E080E100E0BC
:1003D00002490143024A1160704700000000FA051B
:1003E0000CED00E07047000029B1064AD2690243D3
:1003F000044BDA6104E0034AD2698243014BDA61BB
:10040000704700000010024029B1064A9269024379
:10041000044B9A6104E0034A92698243014B9A615A
:1004200070470000001002400348406A40F08070AE
:1004300001494862704700000010024030B50021B9
:100440000022002400232D4D6D6805F00C0121B120
:10045000042905D0082923D105E0294D056022E0B3
:10046000274D05601FE0254D6D6805F47012234D82
:100470006D6805F48034022505EB92421CB9214DCC
:10048000554305600BE01D4D6D6805F400351DB149
:100490001C4D5543056002E0194D5543056002E0CF
:1004A000174D056000BF00BF144D6D6805F0F001E9
:1004B0000909154D6B5C0568DD4045600F4D6D68A1
:1004C00005F4E061090A104D6B5C4568DD4085600C
:1004D0000A4D6D6805F46051C90A0B4D6B5C4568A7
:1004E000DD40C560054D6D6805F44041890B074D41
:1004F0006B5CC568B5FBF3F5056130BD00100240CB
:1005000000127A0000093D000000002010000020C9
:1005100010B501460022002300204A11012A02D111
:10052000094C236806E0022A02D1074C236A01E045
:10053000054C636A01F01F02012494401C400CB179
:10054000012000E0002010BD00100240704710B5EF
:1005500000F002F810BD00000CB5002001900090E2
:100560003348006840F480303149086000BF3048AB
:10057000006800F4003000900198401C0190009841
:1005800018B90198B0F5A06FF1D12948006800F4BE
:10059000003010B10120009001E000200090009890
:1005A000012843D12348006840F010002149086029
:1005B0000846006820F0030008600846006840F024
:1005C000020008601A4840681949486008464068B7
:1005D00048600846406840F48060486008464068CB
:1005E00020F47C1048600846406840F4E8104860F9
:1005F0000846006840F08070086000BF0C48006842
:1006000000F000700028F9D00948406820F003008D
:10061000074948600846406840F00200486000BF53
:100620000348406800F00C000828F9D10CBD000018
:1006300000100240002002407047000010B513482F
:10064000006840F001001149086008464068104900
:1006500008400E494860084600680E4908400B49AA
:1006600008600846006820F480200860084640685A
:1006700020F4FE0048604FF41F008860FFF767FF1A
:100680004FF000600449086010BD000000100240F7
:100690000000FFF8FFFFF6FE08ED00E021B18289BF
:1006A00042F40052828104E082894DF6FF731A40C1
:1006B0008281704710B5FFF72AFE00F0A3F800F022
:1006C00081F810BD02460020B1F5007F00D100BFC7
:1006D00013880B400BB1012000E0002070470000A0
:1006E0002DE9F04786B005460E460024A24600BF1D
:1006F000A1460027B08900B100BF2F462C8A4CF6D6
:10070000FF700440F08804432C82AC894EF6F3104D
:100710000440B08831890843718908430443AC819F
:10072000AC8A4FF6FF400440B0890443AC8201A874
:10073000FFF784FE1F48874202D1DDF810A001E0D8
:10074000DDF80CA0A88900F4004040B10AEBCA0013
:1007500000EB0A1031684900B0FBF1F807E00AEB42
:10076000CA0000EB0A1031688900B0FBF1F8642080
:10077000B8FBF0F004012009642101FB1089A8896D
:1007800000F4004040B1322000EBC900B0FBF1F0B2
:1007900000F00700044308E0322000EB0910642158
:1007A000B0FBF1F000F00F0004432C8106B0BDE86F
:1007B000F087000000380140C1F3080282807047D2
:1007C00000BFFEE71FB501218803FFF71DFE4FF4B0
:1007D000E13000900020ADF80C000C20ADF80A00CC
:1007E0000020ADF80800ADF80600ADF80400694639
:1007F0000348FFF775FF01210148FFF74FFF1FBDB9
:100800000038014008B501210420FFF7FDFD4FF439
:100810000070ADF8000018208DF8030003208DF85B
:10082000020069460648FFF7B6FC04208DF8030075
:100830000002ADF8000069460148FFF7ACFC08BDB6
:10084000000801400020014908607047082C004062
:1008500070B506460C4615460121C802FFF7C4FDD7
:10086000284600F041F8304600F046F8204600F0F7
:100870004FF87F2000F008F8FFF7E4FFFFF75BFD7B
:1008800000F00AF870BD000040F08001014A1160DC
:1008900070470000002C00400120014908607047AB
:1008A000A480054210B57F2000F01EF810BD0000A6
:1008B00001480068C0B27047082C004010B5FFF72F
:1008C000F7FF01280DD1FFF7BDFF02210548FFF713
:1008D000EDFC01210348FFF7EBFC20210148FFF765
:1008E000E7FC10BD000C014000F07F01014A1160DF
:1008F00070470000002C00400021044A126822F4D6
:10090000C0710143014A116070470000042C00408F
:1009100008B5002100910749096821F07F01009185
:1009200000F07F01009A11430091024A0099116082
:1009300008BD0000042C0040014A024900F013B831
:10094000950900081400002002E008C8121F08C121
:10095000002AFAD170477047002001E001C1121F40
:10096000002AFBD170472DE9F04116460F46044698
:10097000002503E03946B047641C6D1C2078002830
:10098000F8D12846BDE8F08100BF011EA0F10100AA
:10099000FBD1704770B504460D46E1B20548FFF73C
:1009A0000BFF00BF80210348FFF78CFE0028F9D021
:1009B000204670BD003801400024002500BFFFF72D
:1009C0007BFCFFF777FE20211B48FFF76FFC02211D
:1009D0001948FFF76DFC01211748FFF769FC17481C
:1009E000FFF7D2FF7E20FFF793FD012805D1FFF727
:1009F0001BFD13A0FFF7A0FF02E017A0FFF79CFF6D
:100A00007F2255210020FFF723FF1948006800F0DE
:100A10007F0420210848FFF74BFC0BE0FF20FFF785
:100A2000B3FF1348001F006800F07F05A54201DAFC
:100A3000FFF738FFF2E70000000C0140FFFF5F0006
:100A4000B4B0BFDABFB4C3C5B9B7B2FAC9FAB5C456
:100A5000B8B4CEBB0D0A0000C9CFB5E7B8B4CEBB61
:100A6000BBF2D5DFB0B4BCFCB8B4CEBB0D0A0000FD
:100A7000042C0040940A0008000000201800000028
:100A800048090008AC0A0008180000200004000013
:100A900058090008000000000102030401020304D9
:0C0AA00006070809020406080000000018
:0400000508000131BD
:00000001FF
