:020000040800F2
:100000001804002049010008710600088103000857
:100010006D06000833020008650A000800000000B1
:100020000000000000000000000000006907000858
:10003000370200080000000073060008E10800080D
:100040006301000863010008630100086301000800
:1000500063010008630100086301000863010008F0
:1000600063010008630100086301000863010008E0
:1000700063010008630100086301000863010008D0
:1000800063010008630100086301000863010008C0
:1000900063010008630100086301000863010008B0
:1000A00063010008630100086301000863010008A0
:1000B0006301000863010008630100086301000890
:1000C0006301000863010008630100086301000880
:1000D0006301000863010008630100086301000870
:1000E0006301000863010008630100086301000860
:1000F0006301000863010008630100086301000850
:10010000630100086301000863010008630100083F
:10011000630100086301000863010008630100082F
:10012000630100086301000863010008630100081F
:10013000DFF810D000F04CF800480047A50F000889
:10014000AFF30080180400200648804706480047A7
:10015000FEE7FEE7FEE7FEE7FEE7FEE7FEE7FEE777
:10016000FEE7FEE7E5080008310100082DE9F05F31
:100170000546002092469B46884606468146402416
:100180001BE0284641464746224600F042F85346C7
:100190005A46C01A914110D311461846224600F023
:1001A00029F82D1A67EB01084F462246012000214D
:1001B00000F020F817EB00094E41201EA4F10104C5
:1001C000DFDC484631462A464346BDE8F09F000042
:1001D000064C074D06E0E06840F0010394E8070094
:1001E00098471034AC42F6D3FFF7A6FFF80F00088B
:1001F00018100008202A04DB203A00FA02F100203F
:1002000070479140C2F1200320FA03F31943904054
:100210007047202A04DB203A21FA02F000217047BF
:1002200021FA02F3D040C2F120029140084319465E
:10023000704700BFFEE7704710B500F075F9A020C9
:1002400000F040F9062000F0C3F900F08BF910BD72
:100250002DE9F0410246002500260020002300245D
:10026000002791F803C00CF00F0591F803C00CF0C3
:10027000100CBCF1000F03D091F802C04CEA050548
:1002800091F800C0BCF1000F31D0146800202BE0C1
:100290004FF0010C0CFA00F3B1F800C00CEA0306B1
:1002A0009E4220D183004FF00F0C0CFA03F7BC43A1
:1002B00005FA03FC4CEA040491F803C0BCF1280FD2
:1002C00006D14FF0010C0CFA00FCC2F814C00AE091
:1002D00091F803C0BCF1480F05D14FF0010C0CFAA6
:1002E00000FCC2F810C0401C0828D1D31460B1F83B
:1002F00000C0BCF1FF0F34DD546800202EE000F197
:10030000080C4FF0010808FA0CF3B1F800C00CEA31
:1003100003069E4221D183004FF00F0C0CFA03F725
:10032000BC4305FA03FC4CEA040491F803C0BCF199
:10033000280F05D100F1080C08FA0CF8C2F8148057
:1003400091F803C0BCF1480F07D100F1080C4FF041
:10035000010808FA0CF8C2F81080401C0828CED317
:100360005460BDE8F0810246002093680B400BB159
:10037000012000E000207047416170470161704733
:1003800000BFFEE770B50446002500F0CDF8A020C0
:1003900000F098F8032000F01BF9204600F092F8D6
:1003A000042000F015F900F0BFF8A12000F08AF851
:1003B000052000F00DF900F043F800F057F805466D
:1003C00000F0D0F8284670BD70B505460C4600F028
:1003D000ABF8A02000F076F8002000F0F9F82846ED
:1003E00000F070F8012000F0F3F8204600F06AF801
:1003F000022000F0EDF800F0B5F870BD08B501215D
:10040000082000F037F94020ADF8000014208DF8E6
:10041000030003208DF8020069460848FFF718FF23
:100420008020ADF8000014208DF8030003208DF823
:10043000020069460148FFF70BFF08BD000C0140B0
:1004400010B540210848FFF797FF80210648FFF7C5
:1004500095FF022000F028FA40210348FFF78EFFA5
:10046000022000F021FA10BD000C014070B50025FB
:10047000002400BF1FE040211148FFF77DFF02204C
:1004800000F012FA40210E48FFF778FF022000F03A
:100490000BFA80210A48FFF766FF18B9FE2000EA30
:1004A000440403E0012000EB4400C4B2022000F049
:1004B000FBF9681CC5B2082DDDDB204670BD0000CD
:1004C000000C014070B50546002400268021154827
:1004D000FFF752FF00BF21E005FA04F0C6B2402149
:1004E0001048FFF74BFF022000F0DEF906F0800015
:1004F00020B980210B48FFF73FFF03E08021094826
:10050000FFF73CFF022000F0CFF940210548FFF73C
:1005100033FF022000F0C8F9601CC4B2082CDBDBFA
:1005200070BD0000000C014010B540210C48FFF7E1
:1005300025FF80210A48FFF721FF022000F0B4F9CF
:1005400080210748FFF718FF022000F0ADF9402195
:100550000348FFF711FF022000F0A6F910BD0000CC
:10056000000C014010B580210848FFF705FF40212D
:100570000648FFF703FF022000F096F980210348A8
:10058000FFF7FCFE022000F08FF910BD000C0140C7
:1005900010B50446214602A000F0A6FA002010BDC6
:1005A0003C3C2D454550524F4D2D4552524F522DFA
:1005B0003E3E2049324320B5C8B4FDB3ACCAB12198
:1005C0006572726F72436F6465203D2025640A0076
:1005D00070B504464FF4805540210F48FFF7CCFE1C
:1005E00080210D48FFF7CAFE40210B48FFF7C6FEE9
:1005F0000AE0281EA5F101018DB205D12046FFF7C2
:10060000C7FFFFF7AFFF70BD80210348FFF7ABFEC8
:100610000028EED100BFF6E7000C014008B501212B
:10062000082000F027F810208DF8030003208DF833
:1006300002000120ADF8000069460B48FFF708FEF4
:100640002020ADF8000069460748FFF701FE0220B0
:10065000ADF8000069460448FFF7FAFD232102487F
:10066000FFF78CFE08BD0000000C014000BFFEE754
:100670007047704729B1064A92690243044B9A6158
:1006800004E0034A92698243014B9A61704700007B
:100690000010024030B500210022002400232D4D1F
:1006A0006D6805F00C0121B1042905D0082923D17A
:1006B00005E0294D056022E0274D05601FE0254D2E
:1006C0006D6805F47012234D6D6805F480340225C1
:1006D00005EB92421CB9214D554305600BE01D4DC1
:1006E0006D6805F400351DB11C4D5543056002E0F1
:1006F000194D5543056002E0174D056000BF00BF6E
:10070000144D6D6805F0F0010909154D6B5C056825
:10071000DD4045600F4D6D6805F4E061090A104D3C
:100720006B5C4568DD4085600A4D6D6805F460517D
:10073000C90A0B4D6B5C4568DD40C560054D6D68B1
:1007400005F44041890B074D6B5CC568B5FBF3F5BB
:10075000056130BD0010024000127A0000093D0022
:100760000000002010000020704710B500F002F8D3
:1007700010BD00000CB500200190009033480068C7
:1007800040F480303149086000BF3048006800F410
:10079000003000900198401C0190009818B9019811
:1007A000B0F5A06FF1D12948006800F4003010B115
:1007B0000120009001E0002000900098012843D122
:1007C0002348006840F0100021490860084600688E
:1007D00020F0030008600846006840F0020008604E
:1007E0001A48406819494860084640684860084609
:1007F000406840F4806048600846406820F47C10FF
:1008000048600846406840F4E810486008460068C0
:1008100040F08070086000BF0C48006800F0007075
:100820000028F9D00948406820F0030007494860D3
:100830000846406840F00200486000BF0348406836
:1008400000F00C000828F9D10CBD00000010024097
:100850000020024030B50146B1F1807F01D3012074
:1008600030BD21F07F40401E4FF0E0225061501714
:100870000F22002807DA13071D0E094B00F00F04A2
:10088000241F1D5503E013071C0E064B1C5400BF0C
:1008900000204FF0E0229061072010610020DFE788
:1008A00018ED00E000E400E070B5044600254820A3
:1008B000FFF7D0FF00BF08E000BF4FF0E020006965
:1008C00000F480300028F8D06D1CA542F4D34FF01E
:1008D000E020006920F001004FF0E021086170BDC8
:1008E0007047000010B51348006840F0010011493E
:1008F000086008464068104908400E4948600846AC
:1009000000680E4908400B4908600846006820F45A
:10091000802008600846406820F4FE0048604FF4DC
:100920001F008860FFF721FF4FF000600449086056
:1009300010BD0000001002400000FFF8FFFFF6FEAF
:1009400008ED00E021B1828942F40052828104E086
:1009500082894DF6FF731A408281704710B500F00E
:10096000A3F800F081F810BD02460020B1F5007F29
:1009700000D100BF13880B400BB1012000E0002024
:10098000704700002DE9F04786B005460E4600246A
:10099000A24600BFA1460027B08900B100BF2F4684
:1009A0002C8A4CF6FF700440F08804432C82AC89FA
:1009B0004EF6F3100440B08831890843718908432A
:1009C0000443AC81AC8A4FF6FF400440B089044335
:1009D000AC8201A8FFF75EFE1F48874202D1DDF816
:1009E00010A001E0DDF80CA0A88900F4004040B19F
:1009F0000AEBCA0000EB0A1031684900B0FBF1F8BD
:100A000007E00AEBCA0000EB0A1031688900B0FB6E
:100A1000F1F86420B8FBF0F004012009642101FB27
:100A20001089A88900F4004040B1322000EBC900D1
:100A3000B0FBF1F000F00700044308E0322000EBC7
:100A400009106421B0FBF1F000F00F0004432C8189
:100A500006B0BDE8F087000000380140C1F308028D
:100A60008280704700BFFEE71FB501218803FFF7B2
:100A700001FE4FF4E13000900020ADF80C000C2096
:100A8000ADF80A000020ADF80800ADF80600ADF89A
:100A9000040069460348FFF775FF01210148FFF78D
:100AA00051FF1FBD0038014008B501210420FFF7A8
:100AB000E1FD4FF40070ADF8000018208DF8030040
:100AC00003208DF8020069460648FFF7C1FB0420A9
:100AD0008DF803000002ADF8000069460148FFF7F9
:100AE000B7FB08BD000801400FB4054B10B503A9C2
:100AF000044A029800F018F810BC5DF814FB0000DE
:100B0000810F00081400002002E008C8121F08C16D
:100B1000002AFAD170477047002001E001C1121F7E
:100B2000002AFBD1704700002DE9FF4F8DB00F4622
:100B30000546002606E025280BD0DDE90F12904778
:100B40006D1C761C28780028F5D111B03046BDE820
:100B5000F08F0024A246A1460122E94900E00443A7
:100B600015F8013F203B02FA03F00842F7D128783C
:100B70002A2810D06FF02F022878A0F1300109291F
:100B800014D80AEB8A0102EB410144F0020400EBA5
:100B9000010A6D1CF0E701CF5FEA000A03D544F4B7
:100BA0000054CAF1000A44F002046D1C28782E2873
:100BB00017D115F8010F44F004042A280ED06FF065
:100BC0002F022878A0F1300109290AD809EB890100
:100BD00002EB410100EB01096D1CF2E757F8049BA1
:100BE0006D1C28786C280FD006DC4C2817D068289C
:100BF0000DD06A2814D104E0742810D07A280FD1BF
:100C00000DE044F400140AE044F4801401E044F4DC
:100C100040146978814202D104F580146D1C6D1C6A
:100C200028786E281ED00CDC632830D004DC002825
:100C30008BD0582811D19FE0642867D069280CD147
:100C400064E073282DD004DC6F2872D0702804D1A2
:100C500094E075286ED078286DD0DDE90F129047AA
:100C6000761C4BE1C4F30250022806D0032809D0B9
:100C7000042801CF09D0066040E101CFF117C0E997
:100C800000613BE101CF068038E1067036E117F8DC
:100C9000040B8DF8000000208DF80100EB460120C8
:100CA00003E057F804BB4FF0FF3061074FF000013D
:100CB00002D40DE008F10101884649450FDA80456C
:100CC000F8DB1BF808100029F4D108E008F1010155
:100CD00088468142FADB1BF808100029F6D1DDE9CD
:100CE0000F23AAEB08008146214600F031F9304479
:100CF00000EB080604E0DDE90F121BF8010B90473A
:100D0000B8F10108F7D221464846F2E00A21C4F3BF
:100D100002524FF0000B0891022A04D001CFC117F4
:100D2000032A09D00AE0FF1D27F00707F7E80201B0
:100D300008E02CE01EE01FE000B2C117042A01D138
:100D400040B2C117021E71F1000206DA0023D0EB97
:100D5000030063EB01012D2202E0220504D52B22C2
:100D60008DF82420012203E0E20701D02022F7E7DA
:100D7000904653E00A210BE0102109E010214FF0CA
:100D8000000B44F004044FF00809089103E0082127
:100D90004FF0000B0891C4F30252022A04D001CF95
:100DA0000021032A06D006E0FF1D27F00707F7E819
:100DB000020103E080B2042A00D1C0B24FF0000863
:100DC00022072BD52A78702A07D0DDF820C08CF0B6
:100DD000100C5CEA0B0C05D00EE040228DF82420AC
:100DE000012208E050EA010306D030238DF82430B8
:100DF0008DF8252002229046089B83F0080353EAD1
:100E00000B030BD150EA010201D1620706D5302253
:100E10008DF824204FF00108A9F101092A78582AF9
:100E200004D038A20B9208AA0A920BE03AA2F9E782
:100E30005B46089AFFF79AF90B9B9B5C0A9A521E35
:100E40000A92137050EA0102F2D10A98ADEB000049
:100E500000F1200B600702D524F4803401E04FF04C
:100E60000109D94502DDA9EB0B0000E0002000EBF1
:100E70000B0141440890AAEB010AE00306D4DDE926
:100E80000F232146504600F063F806444FF0000956
:100E900008E009A911F80900DDE90F12904709F1EE
:100EA0000109761CC145F4DBE0030CD5DDE90F2315
:100EB0002146504600F04CF8064404E0DDE90F12EC
:100EC00030209047761C0899481E08900029F5DCD0
:100ED00008E00A980A990078491C0A91DDE90F1286
:100EE0009047761CBBF10001ABF1010BF1DC214610
:100EF0005046DDE90F2300F019F806446D1C21E689
:100F000009280100303132333435363738396162DF
:100F100063646566000000003031323334353637A3
:100F20003839414243444546000000002DE9F04174
:100F3000044600251E461746880404D405E03946B9
:100F40002020B0476D1C641EF9D52846BDE8F0810D
:100F50002DE9F041044600251E469046C80301D500
:100F6000302700E02027880404D505E041463846B4
:100F7000B0476D1C641EF9D52846BDE8F08100001D
:100F800070B504460D46E1B20548FFF767FD00BFA6
:100F900080210348FFF7E8FC0028F9D0204670BD07
:100FA000003801400024FFF739FBFFF727FAFFF76D
:100FB000D5FC12210320FFF707FAFFF73DF90120C6
:100FC000FFF7E0F90446214607A0FFF78DFD122C3C
:100FD00004D101210748FFF7CFF903E0202105489C
:100FE000FFF7CAF900BFFEE72D2D2D3E30782530E2
:100FF00032580000000C01401810000800000020CA
:1010000018000000080B000830100008180000202D
:1010100000040000180B0008000000000102030497
:101020000102030406070809020406080000000084
:0400000508000131BD
:00000001FF
