:020000040800F2
:10000000F88800204901000871080008B1070008BD
:100010006D080008DF0100083D1E00080000000018
:10002000000000000000000000000000CD1B0008E0
:10003000410400080000000021090008B91C000864
:100040006301000863010008630100086301000800
:1000500063010008630100086301000863010008F0
:1000600063010008630100086301000863010008E0
:1000700063010008630100086301000863010008D0
:1000800063010008630100086301000863010008C0
:1000900063010008630100086301000863010008B0
:1000A00063010008630100086301000863010008A0
:1000B0006301000863010008630100086301000890
:1000C0006301000863010008630100086301000880
:1000D0006301000863010008630100086301000870
:1000E0006301000863010008630100086301000860
:1000F0006301000863010008630100086301000850
:1001000063010008050D0008630100086301000891
:10011000630100086301000863010008630100082F
:10012000630100086301000863010008630100081F
:10013000DFF810D000F030F80048004779200008C0
:10014000AFF30080F8880020064880470648004743
:10015000FEE7FEE7FEE7FEE7FEE7FEE7FEE7FEE777
:10016000FEE7FEE7BD1C00083101000830B50B4674
:10017000014600202022012409E021FA02F59D42D7
:1001800005D303FA02F5491B04FA02F52844151EAB
:10019000A2F10102F1DC30BD064C074D06E0E0683B
:1001A00040F0010394E8070098471034AC42F6D3BE
:1001B000FFF7C2FF042300082423000810B50346FC
:1001C00007E018780C78A04201D0002010BD5B1C1D
:1001D000491C101EA2F10102F3D10120F6E700BF75
:1001E000FEE770B500254FF4803400E0641E24B1B2
:1001F000802000F067FD0028F8D014B903252846B8
:1002000070BD40F2FF5000F015FD2846F8E70000F1
:10021000014600BF0748406B00F045000028F9D0B8
:1002200040F2FF50034A9063104640690822104094
:10023000C0B270470080014070B500251048446B83
:1002400001E00F48446B04F045000028F9D004F0A9
:10025000040028B10325042000F0ECFC284670BD02
:1002600004F0010028B10125012000F0E3FC28463C
:10027000F5E740F2FF5000F0DDFC2846EFE7000014
:100280000080014070B500250B48446B01E00A482E
:10029000446B04F045000028F9D004F0040028B1B4
:1002A0000325042000F0C6FC284670BD40F2FF5034
:1002B00000F0C0FC2846F8E7008001402DE9F0413D
:1002C00006460F464FF000082248456B01E02148E2
:1002D000456B05F045000028F9D005F0040038B161
:1002E0004FF00308042000F0A5FC4046BDE8F08173
:1002F00005F0010030B14FF00108012000F09AFC38
:100300004046F3E700F0D8FCB04203D04FF01008AD
:100310004046EBE740F2FF5000F08CFC002000F07C
:10032000E5FC044604F4604018B9200C38804046CF
:10033000DCE704F4005008B11320D7E704F4804050
:1003400008B11020D2E704F4004008B10F20CDE737
:100350004046CBE70080014070B500264FF4803561
:100360000F48446B02E06D1E0D48446B04F04500DD
:1003700008B9002DF7D115B104F0040028B1032607
:10038000042000F057FC304670BD04F0400028B156
:100390000026402000F04EFC3046F5E73046F3E7FB
:1003A0000080014000F0805111B10349086001E074
:1003B0000249486070470000040402400000024007
:1003C00021B1026842F00102026004E002684FF6C7
:1003D000FE731A400260704701460020002201F0BF
:1003E000805313B1054B1A6801E0054B1A6802EA05
:1003F00001030BB1012000E000207047000402401F
:100400000000024010B50022026847F6F0739A43DC
:100410000C6A8B6823430C6923434C6923438C6922
:100420002343CC6923434C6A23438C6A23431A43F6
:100430000260CB6843600B6883604B68C36010BD8B
:10044000704710B50346002000BF03E084181C5419
:10045000441CA0B28842F9D310BD00002DE9FC4134
:1004600007460D4600260024002000900190082039
:100470005B49086010204860402088600020C86008
:100480004FF480600861084600F06EFC1020FFF712
:10049000BFFE044614B12046BDE8FC8151480088E7
:1004A00000044F49086037204860402088600020E1
:1004B000C8604FF480600861084600F055FC3720A2
:1004C000FFF7A6FE04460CB12046E5E74FF0FF30EB
:1004D0004549086008204860302088600220C860D4
:1004E0000020086101204861084600F0BBFB0020A5
:1004F0003B49086033204860402088600020C86085
:100500004FF480600861084600F02EFC3320FFF7AE
:100510007FFE04460CB12046BEE709E04FF4001010
:1005200000F0D0FB20B100F019FC4DF82600761C3D
:100530002E48406B40F22A6108400028EED0082087
:1005400000F0C0FB28B1082000F074FB0424204612
:10055000A2E7022000F0B6FB28B1022000F06AFBFF
:100560000224204698E7202000F0ACFB28B1202090
:1005700000F060FB062420468EE74FF4007000F088
:10058000A1FB30B14FF4007000F054FB072420466B
:1005900082E740F2FF5000F04DFB00980006009902
:1005A00001F47F4140EA0120009901F47F0140EA13
:1005B0001120009940EA11606860019800060199D5
:1005C00001F47F4140EA0120019901F47F0140EAF2
:1005D0001120019940EA1160286020465CE7000084
:1005E000C800002018000020DC000020008001402E
:1005F00008B50121302000F0A5F918208DF803007E
:1006000003208DF802004FF48070ADF800006946B9
:10061000194800F035F84FF40070ADF80000694655
:10062000154800F02DF84FF48060ADF800006946E1
:10063000114800F025F84FF40060ADF8000069465D
:100640000D4800F01DF84FF48050ADF800006946E9
:10065000094800F015F80420ADF800006946074885
:1006600000F00EF80121880200F05CF9012102205F
:1006700000F058F908BD00000010014000140140CE
:100680002DE9F04102460025002600200023002429
:10069000002791F803C00CF00F0591F803C00CF08F
:1006A000100CBCF1000F03D091F802C04CEA050514
:1006B00091F800C0BCF1000F31D0146800202BE08D
:1006C0004FF0010C0CFA00F3B1F800C00CEA03067D
:1006D0009E4220D183004FF00F0C0CFA03F7BC436D
:1006E00005FA03FC4CEA040491F803C0BCF1280F9E
:1006F00006D14FF0010C0CFA00FCC2F814C00AE05D
:1007000091F803C0BCF1480F05D14FF0010C0CFA71
:1007100000FCC2F810C0401C0828D1D31460B1F806
:1007200000C0BCF1FF0F34DD546800202EE000F162
:10073000080C4FF0010808FA0CF3B1F800C00CEAFD
:1007400003069E4221D183004FF00F0C0CFA03F7F1
:10075000BC4305FA03FC4CEA040491F803C0BCF165
:10076000280F05D100F1080C08FA0CF8C2F8148023
:1007700091F803C0BCF1480F07D100F1080C4FF00D
:10078000010808FA0CF8C2F81080401C0828CED3E3
:100790005460BDE8F0810246002093680B400BB125
:1007A000012000E0002070474161704701617047FF
:1007B00000BFFEE708B50121042000F0C3F80121C5
:1007C000102000F0BFF80120ADF8000004208DF8E3
:1007D000030069460548FFF753FF4FF40050ADF89A
:1007E000000069460248FFF74BFF08BD00080140C2
:1007F0000010014070B504460D4629462046FFF71B
:10080000CAFF012808D100BF29462046FFF7C3FFD1
:100810000128F9D0012070BD0020FCE708B50121B6
:10082000082000F08FF810208DF8030003208DF8C9
:1008300002000120ADF8000069460B48FFF720FFD9
:100840002020ADF8000069460748FFF719FF022095
:10085000ADF8000069460448FFF712FF2321024863
:10086000FFF7A4FF08BD0000000C014000BFFEE739
:10087000704708B54FF4C06000F048F831208DF89B
:10088000000000208DF801008DF8020001208DF895
:100890000300684600F002F808BD000070B50021B2
:1008A00000230F22C47804B3154C246804F4E064D8
:1008B000C4F5E064210AC1F10403CA40447804FA93
:1008C00003F184781440214309010E4C0678A155A8
:1008D000047804F01F050124AC4005786D11AD00CB
:1008E00005F1E025C5F8004109E0047804F01F0592
:1008F0000124AC40044D0678761145F8264070BDC1
:100900000CED00E000E400E080E100E0024901437A
:10091000024A1160704700000000FA050CED00E08B
:100920007047000029B1064A52690243044B5A61DC
:1009300004E0034A52698243014B5A617047000048
:100940000010024029B1064A92690243044B9A61A1
:1009500004E0034A92698243014B9A6170470000A8
:100960000010024030B500210022002400232D4D4C
:100970006D6805F00C0121B1042905D0082923D1A7
:1009800005E0294D056022E0274D05601FE0254D5B
:100990006D6805F47012234D6D6805F480340225EE
:1009A00005EB92421CB9214D554305600BE01D4DEE
:1009B0006D6805F400351DB11C4D5543056002E01E
:1009C000194D5543056002E0174D056000BF00BF9B
:1009D000144D6D6805F0F0010909154D6B5C056853
:1009E000DD4045600F4D6D6805F4E061090A104D6A
:1009F0006B5C4568DD4085600A4D6D6805F46051AB
:100A0000C90A0B4D6B5C4568DD40C560054D6D68DE
:100A100005F44041890B074D6B5CC568B5FBF3F5E8
:100A2000056130BD0010024000127A0000093D004F
:100A3000000000201000002010B500F009FA19494C
:100A4000087088B120211848FFF7AEFE0221164831
:100A5000FFF7ACFE01211448FFF7A8FE114801780A
:100A600012A001F02DFA10BD01210F48FFF79CFEE6
:100A700020210D48FFF79AFE02210B48FFF796FE52
:100A800012A001F01DFA0748007848B914A001F03F
:100A900017FA00F003FF19A001F012FA00F096FC1B
:100AA00000BFE0E72B000020000C014053444361ED
:100AB000726420B3F5CABCBBAFCAA7B0DC2C5374B8
:100AC00061747573203D2025640D0A005344436111
:100AD000726420B3F5CABCBBAFB3C9B9A60D0A0096
:100AE00053444361726420BFAACABCB5A5BFE9B62E
:100AF000C1D0B4B2E2CAD40D0A000000534443612D
:100B0000726420BFAACABCB6E0BFE9B6C1D0B4B215
:100B1000E2CAD40D0A0000007CB50546002400207E
:100B20000090019000F0E2F800F0007010B10E2487
:100B300020467CBD3D49098888B26946FFF78EFC96
:100B400004460CB12046F4E7012D36D1019800F49B
:100B5000802000282ED035480088000434490860E1
:100B600037204860402088600020C860A8020861E3
:100B7000084600F0F9F83720FFF74AFB04460CB1AD
:100B80002046D6E702202A49086006204860402017
:100B900088600020C8604FF480600861084600F05B
:100BA000E3F80620FFF734FB04460CB12046C0E70B
:100BB0002046BEE725242046BBE7019800F480309C
:100BC00078B31A4800880004194908603720486043
:100BD000402088600020C8604FF4806008610846AB
:100BE00000F0C2F83720FFF713FB04460CB1204693
:100BF0009FE700200E49086006204860402088607A
:100C00000020C8604FF480600861084600F0ACF82E
:100C10000620FFF7FDFA04460CB1204689E720467E
:100C200087E7FFE72524204683E70000180000201F
:100C3000C80000200149886370470000008001401F
:100C40000149886370470000008001400149086045
:100C500070470000A0003042014908607047000062
:100C60008C05304200210A4B02685A6242689A623F
:100C70001A46D16A21F0F701D0E902231A43036929
:100C80001A4343691A431143014AD1627047000075
:100C90000080014000200649086048608860C86004
:100CA00048628862C862034888630020C86370474E
:100CB00000800140FF07C00001480069C0B27047D2
:100CC0000080014001460020034A526B0A400AB1ED
:100CD000012000E0002070470080014002480068C9
:100CE00000F00300704700000080014008B5014695
:100CF000002000900248084400900098006808BD59
:100D00001480014010B500F09BFC10BD29B1064ACB
:100D1000D26B0243044BDA6304E0034AD26B824392
:100D2000014BDA63704700000080014000210A4A4D
:100D3000516847F6FF629143027D83681A43436816
:100D40001A43C3681A4303681A4303691A431143D9
:100D5000014A51607047000000800140014800686E
:100D600070470000808001400021094B02689A60B2
:100D70001A46D1686FF30A01D0E901231A43C36808
:100D80001A4303691A431143014AD16070470000B6
:100D9000008001400549096821F00301034A116000
:100DA000114609680143116070470000008001404E
:100DB00010B50248FFF710FB10BD00000020001026
:100DC00070B50446002520480068032802D1272575
:100DD000284670BD1C48006838B11B4800680128CF
:100DE00003D01948006802282CD1B4F5805F02D1E5
:100DF00027252846EDE7B4F5006F13D10120FFF752
:100E00008BFE0546F5B9002010490875086048605A
:100E100088604FF40060C860002008610846FFF752
:100E200085FF0FE00020FFF777FE054655B900204B
:100E300006490875086048608860C860086108460F
:100E4000FFF774FF2846C4E714000020B00000201C
:100E500010B5002400F030FB04460CB1204610BD54
:100E600000F0B2F904460CB12046F8E700200F4923
:100E70000875086048608860C86008610846FFF728
:100E800055FF1CB90A4800F015F8044634B9084962
:100E9000B1F84C10080400F0CBFC044624B94FF420
:100EA0000060FFF78DFF04462046D8E7B000002021
:100EB0006000002030B5014600200022AC4B1B78BA
:100EC00081F84E30AB4B1B88A1F84C30AA4B1B6805
:100ED0001A0E93090B70C2F383034B7002F00303E5
:100EE0008B70A54B1B68C3F30742CA70A24B1B88CB
:100EF000C3F307220A71A04B1A784A715B681A0E75
:100F00001301CB809C4B5B68C3F30742CB8843EA59
:100F10001213CB8002F00F030B72974B9B88C3F325
:100F20000722D3094B72C2F380138B72C2F34013B2
:100F3000CB72C2F300130B7300234B738C4B1B68F3
:100F40001BB18B4B1B68012B3CD193071B0D0B6115
:100F5000894B1A790B6943EA82030B61864B9B68C4
:100F60001A0E0B6943EA92130B61C2F3C2030B75AD
:100F700002F007034B75804B9B68C3F3074253098C
:100F80008B75C2F38203CB7593075B0F0B767A4B9D
:100F90001B89C3F307220B7E43EAD2130B760B693E
:100FA0005B1C4B640C7E4B6CA41C0125A5406B4361
:100FB0004B640C7A0123A3408B64D1E91134634361
:100FC0004B6421E06A4B1B68022B1DD16A4B1A79D6
:100FD00093069B0A0B61684B9B681A0E0B6943EAE8
:100FE00002230B61644B9B68C3F307420B691343F5
:100FF0000B61614B1B89C3F307220B695B1CDB048C
:101000004B644FF400738B64C2F3801301F8193FF3
:1010100093065B0E4B70584B1A7A4B7843EAD21307
:101020004B7002F07F038B70534BDB681A0ED309B1
:10103000CB70C2F341130B71C2F382034B71930760
:101040001B0F8B714C4BDB68C3F307428B7943EA70
:1010500092138B71C2F34013CB7100230B7202F019
:1010600001034B72444B9B89C3F30722D3098B7254
:10107000C2F38013CB72C2F340130B73C2F300139D
:101080004B73C2F381038B7302F00303CB733A4BB0
:101090001A7B53080B7401234B74384B1B681A0ED0
:1010A000CA741939354B1B68C3F307421402CC8547
:1010B000324B1B88C3F30722CB8D1343CB852F4BB9
:1010C0001A7814060C635B681A0E0B6B43EA024431
:1010D0000C632A4B5B68C3F307420B6B43EA0224A1
:1010E0000C63264B9B88C3F307220B6B13430B63E4
:1010F000224B1A7934235A54204B9B681A0E3523FD
:101100005A541E4B9B68C3F3074214068C631B4B57
:101110001B89C3F307228B6B43EA02448C63174B92
:101120001A7A8B6B43EA02248C63144BDB681A0E29
:101130008B6B13438B63114BDB68C3F307423C2378
:101140005B5C43EA12143C235C5413071C0DCC87F0
:101150000A4B9B89C3F30722CB8F1343CB87074BE3
:101160001A7B540840235C54012441235C5430BD55
:101170001400002018000020300000204000002053
:1011800008B500200090684600F06CFB08B1FF2015
:1011900008BD0098C0F34320FAE710B50424FFF718
:1011A000EFFF0446042C01D1002010BDFF2C01D11B
:1011B0000220FAE70120F8E710B5FFF719FAFFF768
:1011C00058FBFFF767FD10BD38B5002401200090E3
:1011D000FFF784FD10B92524204638BD4448006837
:1011E000042828D000204349086002204860C0201D
:1011F00088600020C8604FF4806008610846FFF7EF
:10120000B3FDFFF719F804460CB12046E5E70020CE
:10121000FFF76CFD384908600420FFF767FD364989
:1012200048600820FFF762FD334988600C20FFF713
:101230005DFD3149C8602E48006858B12C480068EF
:10124000012807D02A480068062803D028480068EB
:10125000022816D10020274908600320486040205A
:1012600088600020C8604FF4806008610846FFF77E
:101270007BFD69460320FFF721F804460CB12046A8
:10128000ABE71B48006804282ED0BDF800001B49BE
:101290000860BDF800000004164908600920486095
:1012A000C02088600020C8604FF480600861084654
:1012B000FFF75AFDFEF7C0FF04460CB120468CE74D
:1012C0000020FFF713FD0E4908600420FFF70EFD14
:1012D0000B4948600820FFF709FD094988600C2088
:1012E000FFF704FD0649C8600024204675E70000AA
:1012F00014000020C800002040000020180000203A
:101300003000002030B58BB005460C461348FFF77F
:1013100049F800211248FFF753F812480090019550
:1013200000200290A00803900020049080200590E7
:101330008000069080000790002008904FF4005035
:10134000099000200A9069460548FFF75BF80121E3
:101350000348FFF735F80BB030BD000000F0001077
:10136000440402408080014030B58BB005460C46F5
:101370001348FFF717F800211248FFF721F8124829
:101380000090019510200290A00803900020049086
:101390008020059080000690800007900020089033
:1013A0004FF40050099000200A9069460548FFF765
:1013B00029F801210348FFF703F80BB030BD000006
:1013C00000F00010440402408080014010B500226B
:1013D0004FF480412C48FFF734F82C48007880B94E
:1013E00020231A010021284800F062FB27490870D9
:1013F00000F0E8FA2549087000BFFFF7CEFE00288C
:10140000FBD12248007880B920231A01002120480E
:1014100000F09AF91D49087000F0BAFA1B490870EB
:1014200000BFFFF7BAFE0028FBD11848007838B992
:101430004FF4804216491448FEF7C0FE1549087063
:101440001448007801280FD101211348FFF7ACF9A7
:1014500020211148FFF7AAF902210F48FFF7A6F94A
:101460000EA000F02DFD0EE020210B48FFF79CF9A7
:1014700002210948FFF79AF901210748FFF796F979
:101480000C4800F01DFD10BDF40400202B000020CE
:10149000F44400202A000020000C01404D756C74BB
:1014A0006920626C6F636B20B2E2CAD4B3C9B9A67B
:1014B000A3A10000C02200082DE9F041002400266D
:1014C00000250027A046B220594908750020086071
:1014D00048608860C86008610846FFF727FC032061
:1014E000FFF758FC0120FFF7B1FB002051490860CD
:1014F00048608860C8604FF4806008610846FFF764
:1015000033FCFEF76EFE044614B12046BDE8F081C0
:101510004FF4D57047490860082048604020886033
:101520000020C8604FF4806008610846FFF71CFC8B
:10153000FEF712FF04462CB901203F4908604FF026
:10154000804812E000203B49086037204860402076
:1015500088600020C8604FF4806008610846FFF78B
:1015600003FC3720FEF754FE044600203149086092
:1015700037204860402088600020C8604FF48060B9
:1015800008610846FFF7F0FB3720FEF741FE0446EE
:10159000002C4AD136E000202649086037204860F8
:1015A000402088600020C8604FF4806008610846D1
:1015B000FFF7DAFB3720FEF72BFE04460CB120467E
:1015C000A4E71E4848EA00001A490860292048603C
:1015D000402088600020C8604FF4806008610846A1
:1015E000FFF7C2FBFEF74EFE04460CB120468DE726
:1015F0000020FFF77BFB0646012080EAD67080F0D2
:1016000001076D1C1FB94FF6FF708542C3D34FF61B
:10161000FF70854202D31B24204677E706F0804006
:10162000061E02D002200449086020466EE7000032
:10163000B0000020C800002014000020000010802E
:1016400010B51148006801280BD100200F498860AF
:1016500040F24C40C8600C20FEF7DAFD0C490870DF
:1016600002E000200A4908704FF48070FFF7E8FAA2
:1016700000214FF48070FFF749FB01200549086005
:101680000348007810BD00001C00002000800140CD
:1016900020000020240000202DE9F04107460C46E0
:1016A000154600260020214908702149086021497B
:1016B00008602149C86221480068022801D105025A
:1016C000640A4FF0FF301E490860084645609020CC
:1016D00088600220C8600020086101204861084637
:1016E000FFF7C0FA174804601120164948604020EF
:1016F00088600020C8604FF4806008610846FFF7EA
:1017000033FB1120FEF784FD064616B13046BDE8D6
:10171000F08101210802FFF7F9FA0120FFF79CFA96
:1017200029463846FFF7EEFD3046F0E7200000205E
:10173000240000201C000020008001401400002034
:10174000DC000020C80000202DE9F04180460D4655
:1017500014461E46002700202E4908702E490860B6
:1017600001202E49086000202D49C8622D480068DC
:10177000022801D104026D0A2B48046010202A4976
:101780004860402088600020C8604FF48060086195
:101790000846FFF7E9FA1020FEF73AFD074617B1B1
:1017A0003846BDE8F0814FF0FF302049086006FB65
:1017B00004F04860902088600220C8600020086122
:1017C000012048610846FFF74DFA174805601220CE
:1017D00015494860402088600020C8604FF4806050
:1017E00008610846FFF7C0FA1220FEF711FD074610
:1017F0000FB13846D5E701210802FFF787FA01202B
:10180000FFF72AFA06FB04F14046FFF77BFD384656
:10181000C7E7000020000020240000201C0000205A
:101820000080014014000020C8000020DC000020DF
:1018300070B5044600250A4804600720084948603E
:10184000402088600020C8604FF48060086108462E
:10185000FFF78AFA0720FEF7DBFC0546284670BD35
:10186000C800002070B5044600250A48008800041E
:101870000949886040F24D40C8600D20FEF7C8FC61
:1018800005460DB1284670BD0348406920602846D2
:10189000F9E70000180000200080014010B543F275
:1018A0000F224FF400712D48FEF7CBFD2C48007835
:1018B00080B94FF400720021284800F0A1F82849AF
:1018C000087000F07FF82649087000BFFFF765FC3C
:1018D0000028FBD12248007880B94FF40072002123
:1018E0002048FFF7D9FE1E49087000F051F81C4946
:1018F000087000BFFFF751FC0028FBD118480078A2
:1019000038B94FF4007217491448FEF757FC1649CE
:1019100008701548007801280FD101211348FEF7FF
:1019200043FF20211148FEF741FF02210F48FEF737
:101930003DFF0FA000F0C4FA0EE020210B48FEF797
:1019400033FF02210948FEF731FF01210748FEF766
:101950002DFF0E4800F0B4FA10BD0000F400002086
:101960002B000020F402002029000020000C014080
:1019700053696E676C6520626C6F636B20B2E2CA5C
:10198000D4B3C9B9A6A3A10A0000000078220008B8
:1019900010B5002400BFFFF70BFA30B90748006804
:1019A00018B9074800780028F5D00548007810B12C
:1019B0000348007810BD2046FCE70000240000200A
:1019C0002000002010B5002400BFFFF7F1F930B966
:1019D0000948006818B9094800780028F5D0074878
:1019E000007810B10548007810BD40F2FF50FFF7B5
:1019F00021F92046F8E70000240000202000002004
:101A00002DE9F04107460C461546002600202149E5
:101A1000087021490860214908602149C8622148AD
:101A20000068022801D10502640A1F4804601820DA
:101A30001D494860402088600020C8604FF48060E5
:101A400008610846FFF790F91820FEF7E1FB06460B
:101A500016B13046BDE8F0814FF0FF301349086001
:101A600008464560902088600020C8600861012019
:101A700048610846FFF7F6F801210802FFF746F92A
:101A800029463846FFF770FC0120FFF7E5F830469D
:101A9000E0E7000020000020240000201C000020BF
:101AA0000080014014000020C8000020DC0000205D
:101AB0002DE9F84380460E4617461C4600250020B7
:101AC00000903A4908703A49086001203949086095
:101AD00000203949C86239480068022801D107024C
:101AE000760A374800880004364908603720486085
:101AF000402088600020C8604FF48060086108467C
:101B0000FFF732F93720FEF783FB054615B128466B
:101B1000BDE8F8832B48046017202A49486040201C
:101B200088600020C8604FF4806008610846FFF7B5
:101B30001BF91720FEF76CFB05460DB12846E7E7B9
:101B40002048066019201F49486040208860002016
:101B5000C8604FF4806008610846FFF705F9192056
:101B6000FEF756FB05460DB12846D1E74FF0FF3092
:101B70001549086004FB07F0486090208860002049
:101B8000C8600861012048610846FFF76BF8012131
:101B90000802FFF7BBF80120FFF75EF804FB07F12E
:101BA0004046FFF7E1FB2846B2E700002000002096
:101BB000240000201C0000200080014014000020B0
:101BC00018000020C8000020DC000020704710B57D
:101BD00000F002F810BD00000CB50020019000904C
:101BE0003348006840F480303149086000BF304815
:101BF000006800F4003000900198401C01900098AB
:101C000018B90198B0F5A06FF1D12948006800F427
:101C1000003010B10120009001E0002000900098F9
:101C2000012843D12348006840F010002149086092
:101C30000846006820F0030008600846006840F08D
:101C4000020008601A484068194948600846406820
:101C500048600846406840F4806048600846406834
:101C600020F47C1048600846406840F4E810486062
:101C70000846006840F08070086000BF0C480068AB
:101C800000F000700028F9D00948406820F00300F7
:101C9000074948600846406840F00200486000BFBD
:101CA0000348406800F00C000828F9D10CBD000082
:101CB00000100240002002407047000010B5134899
:101CC000006840F00100114908600846406810496A
:101CD00008400E494860084600680E4908400B4914
:101CE00008600846006820F48020086008464068C4
:101CF00020F4FE0048604FF41F008860FFF767FF84
:101D00004FF000600449086010BD00000010024060
:101D10000000FFF8FFFFF6FE08ED00E021B1828928
:101D200042F40052828104E082894DF6FF731A402A
:101D30008281704710B500F0A3F800F081F810BD63
:101D400002460020B1F5007F00D100BF13880B4090
:101D50000BB1012000E00020704700002DE9F047A2
:101D600086B005460E460024A24600BFA1460027C5
:101D7000B08900B100BF2F462C8A4CF6FF7004409A
:101D8000F08804432C82AC894EF6F3100440B088EE
:101D900031890843718908430443AC81AC8A4FF60A
:101DA000FF400440B0890443AC8201A8FEF7DAFD8D
:101DB0001F48874202D1DDF810A001E0DDF80CA039
:101DC000A88900F4004040B10AEBCA0000EB0A10F9
:101DD00031684900B0FBF1F807E00AEBCA0000EBFC
:101DE0000A1031688900B0FBF1F86420B8FBF0F00C
:101DF00004012009642101FB1089A88900F4004036
:101E000040B1322000EBC900B0FBF1F000F0070058
:101E1000044308E0322000EB09106421B0FBF1F02C
:101E200000F00F0004432C8106B0BDE8F0870000ED
:101E300000380140C1F308028280704700BFFEE70E
:101E40001FB501218803FEF77DFD4FF4E1300090BE
:101E50000020ADF80C000C20ADF80A000020ADF811
:101E60000800ADF80600ADF8040069460348FFF726
:101E700075FF01210148FFF751FF1FBD00380140E8
:101E800008B501210420FEF75DFD4FF40070ADF8A8
:101E9000000018208DF8030003208DF80200694629
:101EA0000648FEF7EDFB04208DF803000002ADF8B4
:101EB000000069460148FEF7E3FB08BD0008014049
:101EC0000FB4054B10B503A9044A029800F018F8A6
:101ED00010BC5DF814FB0000552000082C00002009
:101EE00002E008C8121F08C1002AFAD170477047E3
:101EF000002001E001C1121F002AFBD17047000041
:101F00002DE9FF4F89B09B460446002506E02528B1
:101F10000BD05A460B999047641C6D1C2078002802
:101F2000F5D10DB02846BDE8F08F0027B846012254
:101F3000474900E0074314F8013F203B02FA03F051
:101F40000842F7D120782E2819D114F8010F47F054
:101F500004072A280ED06FF02F022078A0F130015C
:101F600009290CD808EB880102EB410100EB0108BC
:101F7000641CF2E70A98641C50F8048B0A902078DD
:101F80000028CED0642808D0692806D075281ED035
:101F90005A460B9990476D1C58E00A994FF00A0970
:101FA00001C90A91002802DA40422D2102E03905D8
:101FB00004D52B218DF82010012103E0F90704D06E
:101FC0002021F7E78A4608AE0DE00021FAE70A99DA
:101FD0004FF00A0901C90A91F7E74946FEF7C6F82A
:101FE000303106F8011D0028F7D1ADEB060000F1F5
:101FF0002009780701D44FF00108C84502DDA8EB9D
:10200000090000E000208046002706E008A85A46A4
:10201000C05D0B9990476D1C7F1C5745F6DB04E0B3
:1020200030205A460B9990476D1CB8F10001A8F179
:102030000108F5DC05E016F8010B5A460B999047AC
:102040006D1CB9F10001A9F10109F4DC641C65E71C
:102050000928010070B504460D46E1B20548FFF7B6
:10206000E9FE00BF80210348FFF76AFE0028F9D08F
:10207000204670BD00380140FEF7D0FBFEF79AFB0A
:10208000FFF758FEFFF798F802211548FEF78CFB82
:1020900001211348FEF78AFB20211148FEF786FB39
:1020A00010A0FFF70DFF1BA0FFF70AFF27A0FFF707
:1020B00007FF3648FFF704FF3548FFF701FF35A05B
:1020C000FFF7FEFE0AE001214148FEF793FB0128DD
:1020D00004D140A0FFF7F4FEFEF7AEFCF3E70000EA
:1020E000000C01400D0ABBB6D3ADCAB9D3C320530F
:1020F000544D333220BFAAB7A2B0E5B6D420534422
:102100004361726420BDF8D0D0B6C1D0B4B2E2CA87
:10211000D40D0A00D4DABFAACABCBDF8D0D053444B
:10212000BFA8BBF9B1BEB2E2CAD4C7B0A3ACC7EB7B
:10213000B8F8BFAAB7A2B0E5B2E5C8EB333247D2D0
:10214000D4C4DAB5C45344BFA80D0A00B1BEB3CCA1
:10215000D0F2BBE1B6D45344BFA8BDF8D0D020B76D
:10216000C7CEC4BCFECFB5CDB320B7BDCABDB6C1C6
:10217000D0B4A3ACBBE1C9BEB3FD5344BFA8B5C442
:10218000CEC4BCFECFB5CDB30D0A0000342200088A
:10219000F02100080D0A20C8F4D2D1C8B7C8CFA3D7
:1021A000ACC7EBB0B4BFAAB7A2B0E5B5C44B4559B4
:1021B00031B0B4BCFCA3ACBFAACABC5344BFA8B2E4
:1021C000E2CAD4CAB5D1E92E2E2E2E0D0A00000087
:1021D000000801400D0ABFAACABCBDF8D0D05344C4
:1021E000BFA8B6C1D0B4CAB5D1E90D0A000000003D
:1021F0000D0A20B5AB7364BFA8C4DAB5C4D4ADCEA4
:10220000C4BCFEB2BBBFC9BBD6B8B4A3ACCAB5D1BF
:10221000E9C7B0CEF1B1D8B1B8B7DD5344BFA8C457
:10222000DAB5C4D4ADCEC4BCFEA3A1A3A1A3A10DB5
:102230000A000000CAB5D1E9BAF3BFC9CDA8B9FDFB
:10224000B5E7C4D4B8F1CABDBBAFBBF2CAB9D3C3FA
:102250005344BFA8CEC4BCFECFB5CDB3B5C4C0FDFA
:10226000B3CCBBD6B8B45344BFA8CEC4BCFECFB524
:10227000CDB30D0A0000000053696E676C652062E3
:102280006C6F636B20B2E2CAD4CAA7B0DCA3ACC740
:10229000EBC8B7B1A35344BFA8D5FDC8B7BDD3C8D9
:1022A000EBBFAAB7A2B0E5A3ACBBF2BBBBD2BBD518
:1022B000C55344BFA8B2E2CAD4A3A10A00000000DB
:1022C0004D756C746920626C6F636B20B2E2CAD486
:1022D000CAA7B0DCA3ACC7EBC8B7B1A35344BFA82F
:1022E000D5FDC8B7BDD3C8EBBFAAB7A2B0E5A3ACB4
:1022F000BBF2BBBBD2BBD5C55344BFA8B2E2CAD464
:10230000A3A10000242300080000002030000000EA
:10231000E01E00085423000830000020C888000098
:10232000F01E000800000000010203040102030483
:10233000060708090204060800000000000000006B
:10234000000000000000000000000000000000008D
:042350000000000089
:0400000508000131BD
:00000001FF
